:07471900440A26000186A0FE
:10CE5400EF700690078A938001E4900A25F090070A
:10CE64008B121A87900A2A121B3890078F121A877E
:10CE7400900A2E121B38900793121A87900A3202D6
:02CE84001B3859
:07EB0300900A2A121A7B227E
:06EC5300900A2A021B38A2
:07EB0A00900A2E121A7B2273
:06EC5900900A2E021B3898
:07EB1100900A32121A7B2268
:06EC5F00900A32021B388E
:10D88700900A25EFF0BF011C12EB267F007E007D7A
:10D89700007C0012EDED12EB2D7F007E007D007CF9
:05D8A7000012EDED226E
:06EC6500900A25E0FF22E9
:107F8500900A25E06401700302804C7F0612E21D11
:107F950090095C121B38E4FFFE7D207CC290095CD1
:107FA500121A97121146900A2A121A97121237902E
:107FB500096C121B38E4FFFE7D207CC290095C121F
:107FC5001A97121146900A2E121A97121237900913
:107FD50070121B387F0212E21D900960121B38E4F3
:107FE500FFFE7D487CC2900960121A9712114690D7
:107FF5000A32121A9712123790096C121A97121137
:1080050046900964121B38E4FFFE7D487CC2900946
:1080150060121A97121146900A32121A97121237E5
:10802500900970121A97121146900968121B38129E
:10803500EB26900964121A7B12EDED12EB2D9009D7
:0780450068121A7B12EDED39
:01804C002211
:07472000440CD5000186A046
:10E2A70012EAE3EF700912E8B312EC6502E6CA124C
:05E2B700E66612D887A5
:01E2BC00223F
:10E0F80012EAE3EF700912E8B312EB0302E64412E6
:09E10800E5D812EC5312E8B32231
:10E1110012EAE3EF700912E8B312EB0A02E64412C5
:09E12100E5D812EC5912E8B32212
:10E12A0012EAE3EF700912E8B312EB1102E64412A5
:09E13A00E5D812EC5F12E8B322F3
:07472700440CD9000186A03B
:05641E00900B5AEFF0A5
:10642300E4900B5FF0A3F0EF7009E5EF5403600312
:106433007F0022900B61E4F0A3743AF0900B5AE0D2
:106443006011900B61E0FFA3E0900800CFF0A3EF91
:10645300F08035900BD5E4F0A3743EF07B007A080E
:106463007D007C807F2012CA2B7A0B7B5E900BD53C
:10647300E4F0A304F07DFF7C817F2012CA2B900BF4
:106483005EE0F460037F0022900800E0FEA3E0FFDB
:10649300900B61E06E7003A3E06F60037F00227BCB
:1064A300017A087904900B5B121BDFEF1FAC0670B7
:1064B300011E4C6019900B5BE475F001121BC812AE
:1064C3001677FD900B5FE48DF012173680DD900B8D
:1064D3005FE0FEA3E0F4FFEEF4900B5FF0A3EFF0B8
:1064E300900B5AE06032900B5FE0FFA3E09008024C
:1064F300CFF0A3EFF07D017C807F2012A7227B01E8
:106503007A087900900B04E4F0A3743EF07D007CDC
:10651300807F201293218033900802E0FEA3E0FFE6
:10652300900B5FE0B50624A3E0B5071F900B5E74E4
:1065330001F0FB7A0B795E900B04E4F0A304F07D89
:0D654300FF7C817F201293217F01227F00C9
:016550002228
:10AB9700E4FF12641EEF700590080404F0900804A7
:10ABA700E06401704CA304F0900426121A87900801
:10ABB70008121B3890048F121A8790080C121B3842
:10ABC7009004A3121A87900810121B38900447129A
:10ABD7001A8790082C121B3812E974EF54F0FFE41F
:10ABE700C4F854F0C8EFC4540F48FF900837F080FA
:0DABF70005900837E0FF12E29012EAFB2201
:10BBC60012EBB290082C121B387F0312E1EF90089B
:10BBD60028121B3812E9E0900834EEF0A3EFF07D4E
:10BBE60001E4FF12BAD47D017F0112BAD49008187D
:10BBF600121A7B900C59121B38E4FF12DEEA9008E9
:0FBC06001C121A7B900C59121B387F0102DEEAC8
:10A6AC00C2AFC2AF9008207449F090CDE9E493900A
:10A6BC000821F090CDEAE493900822F090CDEBE4E1
:10A6CC0093900823F012ED97900837EFF0E4900880
:10A6DC0004F07F0112641E900BD57404F0A3E4F017
:10A6EC00FB7A04FD7C807F3012CA2B7D017C00E458
:10A6FC00FF12A7227D017C02E4FF12A7227B017AC4
:10A70C00047900900B047404F0A3E4F0FDFCFF1238
:06A71C00932175EF1622E7
:07EB18007B017A087900225D
:07472E00440B18000186A0F6
:10E14300E4900B14F0A3F0900B1CF0A3F012EA166A
:09E15300900B16EEF0A3EFF02290
:10C36300900B16E0FEA3E0FF12D8F6C3EF9414EE91
:10C373009400400B12EA16900B16EEF0A3EFF09028
:10C383000B1CE475F001121736D3900B1DE0946378
:10C39300900B1CE09400400DE4F0A3F0900B147597
:06C3A300F0011217362222
:09E96B00900B14E0FEA3E0FF2272
:07473500440561000186A0AC
:108F82007A057B6D900BD5E4F0A3742BF07D007C09
:108F9200827F2012CA2B74FFFFFE7B017A05797251
:108FA200900B23E4F0A37426F0129597900570E0DD
:108FB2006E7003A3E06F605878727C057D017BFFC1
:108FC2007A0479007E007F26121651E490056DF036
:108FD200A3F07B017A057972900B23F07426129527
:108FE20091900570EEF0A3EFF090056F742BF07D79
:108FF200017C827F2012A7227B017A05796D900B7A
:1090020004E4F0A3742BF07D007C827F2012932174
:0B9012007B017A057972E4FD020AC1BF
:10C9F0007A057B6D900BD5E4F0A37405F07D007C87
:10CA0000827F2012CA2B90056DE0B4FF14A3E0B41E
:10CA1000FF0FA3E0B4FF0AA3E0F47003A3E0F46007
:0BCA2000097D017C827F2012A72222EA
:10BD9C00E4F5CF7B017A057972125DBF90056F7463
:10BDAC002BF07B017A057972900B23E4F0A37426B7
:10BDBC00129592900570EEF0A3EFF07D017C827FDE
:10BDCC002012A7227B017A05796D900B04E4F0A375
:0CBDDC00742BF07D007C827F20029321FC
:10597E00E4900BB6F0A3F07B017A057969A3121BB4
:10598E00DFE4F5CF7A05793A125DBF900BB8121BA2
:10599E00BF12176245F070157A0B7BB6900BD5F0DF
:1059AE00A37402F07D007C867F2012CA2B900BB66A
:1059BE00E0F47003A3E0F4602D900BB8121BBF90BF
:1059CE00000274011216BDE475F0011217C5900B9A
:1059DE00B8121BBF121762FFAEF0BEFF09BFFF0663
:1059EE00E4F5F01217FD900BB8121BBF90000212D7
:1059FE001690C3940B4078900002E41217029000A8
:105A0E000374011216BD900003121690C394044045
:105A1E000D900BB8121BBF900003E4121702900BEF
:105A2E00B8121BBF90000312169025E0FEE424006E
:105A3E00FFEE3486FE900BB4F0FCA3EFF0FD7A0B74
:105A4E007BB6900BD5E4F0A37402F07F2012CA2B24
:105A5E00900BB6E0F47003A3E0F46013900BB5E086
:105A6E002401FD900BB4E03400FC7F2012A722909D
:105A7E000BB8121BBF121762FF900535E5F0F0A3AD
:105A8E00EFF0A3742C129583900538EEF0A3EFF08F
:105A9E00900BB8121BBF90000312169025E0FEE487
:105AAE002400FFEE3486900BB4F0A3EFF0900002CA
:105ABE0012169075F02CA4FF900BB4E5F08FF01237
:105ACE001736900BB4E0FCA3E0FD7B017A05793527
:0E5ADE00900B04E4F0A3742CF07F20029321BF
:05568D00900B6CEFF032
:10569200E4A3F0A3F07B017A057969900B71121BE8
:1056A200DF12176245F070157A0B7B6D900BD5F007
:1056B200A37402F07D007C867F2012CA2B900B6DB2
:1056C200E0F47003A3E0F4602D900B71121BBF9005
:1056D200000274011216BDE475F0011217C5900B99
:1056E20071121BBF121762FFAEF0BEFF09BFFF06A9
:1056F200E4F5F01217FD900B71121BBF121762FF37
:10570200900535E5F0F0A3EFF0A3742CF0900002C1
:10571200121690C3940B500302579B900B71121BED
:10572200BF900002E412170290000374011216BD2A
:10573200900003121690C39404400D900B71121B3B
:10574200BF900003E4121702900B71121BBF90006E
:105752000312169025E0FEE42400FFEE3486FE904C
:105762000B6FF0FCA3EFF0FD7A0B7B6D900BD5E491
:10577200F0A37402F07F2012CA2B900B6DE0F4703C
:1057820003A3E0F46013900B70E02401FD900B6F13
:10579200E03400FC7F2012A7221254FCEFC3940BCA
:1057A2004007900B6CE04401F0900B6CE0900560B8
:1057B200129583900538EEF0A3EFF0900B71121B57
:1057C200BF90000312169025E0FEE42400FFEE34A1
:1057D20086900B6FF0A3EFF090000212169075F016
:1057E2002CA4FF900B6FE5F08FF0121736900B6F21
:1057F200E0FCA3E0FD7B017A057935900B04E4F02F
:09580200A3742CF07F2002932115
:09E97400900572E0FEA3E0FF2211
:10958300F07B017A05793A900B23E4F07427A3F07A
:0495930074FFFFFE64
:06959700900B20121BDF07
:10959D00900B25EEF0A3EFF0900B2374FFF5F01276
:1095AD00174C45F0605DE4F5CF900B2075F001127E
:1095BD001BC8121677FE900B25E06EF0A3E0F0E4C9
:1095CD00A3F0900B27E0C3940850CD900B25E0FE3F
:1095DD00A3E0FFEE30E717EF25E0FFEE336410FE5A
:1095ED00EF6421FF900B25EEF0A3EFF0800D900BB3
:1095FD0026E025E0F0900B25E033F0900B27E004FA
:0B960D00F080BF900B25E0FEA3E0FF03
:01961800222F
:0B473C00440004000186A041011900A8
:1077F7009007FFEFF07BFF7A057997900B2B121B11
:10780700DF900426121A87900B2E121B387B017A01
:1078170000790812A8847BFF7A0579DF900B2B1279
:107827001BDF90048F121A87900B2E121B387B01D7
:107837007A00793712A8847BFF7A067927900B2B79
:10784700121BDF9004A3121A87900B2E121B387B92
:10785700017A00796612A8847BFF7A0679B7900BC4
:107867002B121BDF900432121A87900B2E121B3833
:107877007B017A00799512A8847BFF7A06796F904D
:107887000B2B121BDF900436121A87900B2E121B3C
:10789700387B017A0079C412A8849007FFE0701240
:1078A700FE7F18FD7B017A0079FB121E15E4FF129B
:1078B700D75312EB26900113121BDF12EB2D900109
:1078C70016121BDF9007FFE0700A900000121B449E
:0578D7000000FFFF228C
:1062E30012EB42900CDD121BDF12ED4F900CE0EF2E
:1062F300F09006C7E0600F900000121B44000000FE
:1063030000E49006C7F0900000121A7BEF5401FFDF
:10631300E4FEFDFCFBFAF9F8C31219B67018900CF1
:10632300DD121BBF1219ED7B017A007937128DAA9A
:106333009000FB121B38900000121A7BEF5402FFEF
:10634300E4FEFDFCFBFAF9F8C31219B6701B900CBE
:10635300DD121BBF900004121A0D7B017A007966CF
:10636300128DAA9000FF121B38900000121A7BEFC7
:106373005410FFE4FEFDFCFBFAF9F8C31219B670E2
:106383001B900CDD121BBF900008121A0D7B017AC3
:10639300007908128DAA90010B121B38900000128D
:1063A3001A7BEF5404FFE4FEFDFCFBFAF9F8C31279
:1063B30019B67066900CE0E0702490053A9360176C
:1063C300900CDD121BBF90000C121A0D7B017A009A
:1063D3007995128DAA803D7F0312DE1480369001D9
:1063E30003121A7BC004C005C006C007900CDD125F
:1063F3001BBF90001C121A0D7B017A0079C4128D09
:10640300AAA804A905AA06AB07D007D006D005D0D1
:0A64130004121142900103121B381D
:01641D00225C
:10DEEA00EF75F004A47B0124FBF9740035F0FAC243
:0CDEFA00AE900C59121A7B121A3DD2AEE9
:01DF060022F8
:10E1EF00EF75F004A47B0124FBF9740035F0FAC23B
:06E1FF00AE1219EDD2AED4
:01E2050022F6
:07EB1F007B017A0079FB2263
:10BAD400900E1BEFF0ED900000601F121A97C0004B
:10BAE400C001E47F01FEFDFC900E1BE0F9F8121981
:10BAF400DAD001D00012198E8020121A97C000C02B
:10BB040001E47F01FEFDFC900E1BE0F9F81219DA46
:10BB140012199BD001D000121981900000121B3819
:01BB240022FE
:10DA7F00AB07E47F01FEFDFCA8031219DA9000004A
:10DA8F00121A97121981EC4D4E4F60037F01227FBE
:02DA9F00002263
:10DF0700EFC394055010EF75F02FA42408F974009F
:0DDF170035F0FA7B01227B007A00790022B0
:07EB26007B017A0079372220
:07EB2D007B017A00796622EA
:0586FC00900DFFEFF0FE
:10870100E4A3F0EFC394004009900DFFE0FE94054F
:1087110040037F0022EE14601D14602A1460371498
:108721006044240470557F0412DA7FEF70047F01E6
:1087310080427F00803EE4FF12DA7FEF70047F0108
:1087410080027F00802E7F0112DA7FEF70047F01AB
:1087510080027F00801E7F0212DA7FEF70047F01AA
:1087610080027F00800E7F0212DA7FEF70047F01AA
:1087710080027F00900E00EFF08005E4900E00F083
:10878100900E00E06026900DFFE0FEC394054003CB
:108791007F0022EEB4030A90053AE49370037F014F
:0E87A10022900DFFE0FF12DF0702D1BC7F0027
:0187AF0022A7
:10DE1400EFC394004005EF9405400D900119E044D0
:0FDE240002F0E4FFFEFDFC2212DF0712EDA9223F
:10B98C00900C5DEFF0C394004006E0FD9405400878
:10B99C00900119E04402F022ED702790042A121A4B
:10B9AC0087900AF6121B3890042E121A87900AFA06
:10B9BC00121B38900C5E121A7B12C1B5900C5E12E1
:10B9CC001B38900C5DE0FF12DF07A3121A7B12DF0D
:02B9DC005E22E9
:07474700440CE5000186A00F
:10CE860012E666900E1CEFF012EAE3EF14700E1233
:10CE9600E8B3900E1CE0FF12E1EF02E64412E5D87B
:10CEA600900C59121B38900E1CE0FF12DEEA12E8B5
:01CEB600B3C8
:01CEB7002258
:10D1320012E666900E1DEFF012EAE3EF14700E1283
:10D14200E8B3900E1DE0FF12DA7F02E6CA12E6662D
:0DD15200AD07900E1DE0FF12BAD412E8B335
:01D15F0022AD
:10D8AC0012EAE3EFC394015005E4FF02E85B12EDCA
:10D8BC00C1900E1EEFF012E8B3900E1EE0FF128620
:04D8CC00FC12EDF36A
:01D8D0002235
:10C8FD0012EDC1900C62EFF012EAE3EFD394014018
:10C90D001D12E5D8900C63121B38900C63121A7B24
:10C91D00900C5E121B38900C62E0FF02B98C12E88D
:0CC92D00B3900C62E0FF12DE1412E6442E
:01C9390022DB
:10C0DA0012EB34900DB1121BDF900DB1121BBFE9A8
:10C0EA004A4B70057F0102E85B12EAE3EFD3940141
:10C0FA00400C12E5D8900DB1121BBF02EDED12E80B
:10C10A00B3900DB1121BBF12EDAD12E6447F007E53
:08C11A00007D007C0012E644E8
:01C1220022FA
:10D5ED0012EB34900DB4121BDF900DB4121BBFE97A
:10D5FD004A4B7004FF02E85B12E8B3900DB4121BA6
:07D60D00BF12EDB112E6446B
:01D6140022F3
:10D6150012EB34900DB7121BDF900DB7121BBFE94B
:10D625004A4B7004FF02E85B12E8B3900DB7121B7A
:07D63500BF12EDB512E6443F
:01D63C0022CB
:10D63D0012EB34900DBA121BDF900DBA121BBFE91D
:10D64D004A4B7004FF02E85B12E8B3900DBA121B4F
:07D65D00BF12EAD312EDF346
:01D6640022A3
:10D6650012EB34900DBD121BDF900DBD121BBFE9EF
:10D675004A4B7004FF02E85B12E8B3900DBD121B24
:07D68500BF12EDB912E644EB
:01D68C00227B
:07EB340012EDC112DF072200
:10AE800012EAE3900CE3E4F0A3EFF012EAE3EF142C
:10AE900014702812EDC1900CE2EFF012E8B3900CA0
:10AEA000E2E0B4030E12ED4FEF70047F0380097FE0
:10AEB000048005900CE2E0FF02EDF312EDC1900C6E
:10AEC000E1EFF012EDC1900CE2EFF012E8B3900C5C
:10AED000E2E0B40310900CE1E0B40304E4FF80026C
:05AEE0007F0112D753B1
:01AEE500224A
:10C1FE00E490021FF07B017A0279327C027D369048
:10C20E000BDC7406F0A37410F012CB527B017A0291
:10C21E0079347C027D96900BDC7404F0A37410F0DC
:10C22E0012CB527B017A0279207C027D22900BDCAC
:08C23E007404F0A3F002CB52DE
:10DFED007B017A02792012DBD38F828E83E4F0A33A
:0ADFFD00F08F828E83A3A3F0A3F03F
:01E0070022F6
:089EF300900CE9EEF0A3EFF082
:109EFB00F5828E83E0FEA3E0FF4E600312C68D90C9
:109F0B000CE9E0FEA3E0FFF5828E83A3A3E0FCA3A4
:109F1B00E04C60468F828E83A3A3E0FCA3E0FD9010
:109F2B000CEBECF0FAA3EDF0FB2404F582E43CF52A
:109F3B0083E0FDA3E08F828E83A3A3CDF0A3EDF08E
:109F4B008B828A8312C6867B017A027932900CEB64
:109F5B00E0FCA3E0FD12E31580A57B017A027920DA
:0B9F6B00900CE9E0FCA3E0FD02E31510
:10C43300900C16EEF0A3EFF0900C1AEAF0A3EBF0D9
:08C44300900C18ECF0A3EDF0E1
:10C44B00900C16E0FEA3E0FF12D272EF4E7011902B
:10C45B000C16E0FEA3E0FFA3E0FCA3E0FD1284DAE0
:0BC46B00900C1AE0FCA3E0FD02928898
:085F1500900B74EEF0A3EFF015
:105F1D00900B74E0FEA3E0FFF5828E83A3A3E0FD5A
:105F2D00A3E0900B76CDF0A3EDF08F828E83E0FE93
:105F3D00A3E0FF4E604B8F828E83E0FEA3E0AA06A6
:105F4D00F9121D26900B74E0FEA3E0FFF5828E83FF
:105F5D00E0FCA3E0FD900B7AECF0A3EDF0F5828C64
:105F6D0083A3A3E0FDA3E08F828E83CDF0A3EDF09C
:105F7D007B017A027934900B7AE0FCA3E0FD02E319
:105F8D0015900B76E0FEA3E0FF4E700302605B8F71
:105F9D00828E83A3A3E0FEA3E04E7008900B76E003
:105FAD00FEA38050900B76E0FEA3E0F5828E83E099
:105FBD00FEA3E0AA06F9121D26EF64017072900B84
:105FCD0076E0FEA3E0F5828E83A3A3E0FEA3E0FFBF
:105FDD00900B74E0FCA3E0FDF5828C83EEF0A3EF53
:105FED00F08D828C83E0FEA3E04E7032900B76E054
:105FFD00FEA3E0FFA3EEF0FCA3EFF0FD2404F58279
:10600D00E43EF583E0FFA3E0900B76CFF0A3EFF035
:10601D00900B74E0FEA3E0FF128114025F8E900BD3
:10602D0076E0FEA3E0F5828E83A3A3E4F0A3F02235
:10603D00900B76E0FEA3E02404F582E43EF583E0C8
:0E604D00FFA3E0900B76CFF0A3EFF0025F8E82
:01605B002222
:04D272008F828E8396
:10D27600A3A3801CEF4E601F8F828E83E0FAA3E08B
:10D286006D7002EA6C6010EF2404F582E43EF583CB
:07D29600E0FEA3E0FF80DDD4
:01D29D00226E
:1084DA00900C1EECF0A3EDF0900C1CEEF0A3EFF064
:1084EA00E4FDFC8F828E83A3A3E0FFA3E0900C201F
:1084FA00CFF0A3EFF07B017A02793212DBD3AC061C
:10850A00AD07ED4C700990021F04F0E4FEFF22ED66
:10851A002404F582E43CF583E4F0A3F08D828C8395
:10852A00A3A3F0A3F0900C1EE0FFA3E08D828C833E
:10853A00CFF0A3EFF0900C20E07002A3E0700F9050
:10854A000C1CE0FEA3E0F5828E83A3A38030900C7E
:10855A0020E0FEA3E02404F582E43EF583E0FEA3D6
:10856A00E0FF4E600A900C20EEF0A3EFF080DF905F
:10857A000C20E0FEA3E02404F582E43EF583ECF04F
:07858A00A3EDF0AE04AF0504
:0185910022C7
:10811400900CEFECF0A3EDF0900CEDEEF0A3EFF08B
:10812400F5828E83A3A3E0FEA3E0FF900CEFE0B5FD
:108134000627A3E0B50722EF2404F582E43EF58385
:10814400E0FEA3E0FF900CEDE0FCA3E0F5828C835D
:10815400A3A3EEF0A3EFF0805CEF4E6058EF24048D
:10816400F582E43EF583E0FCA3E0FD900CEFE0FA39
:10817400A3E0FBEDB5032EECB5022AEF2404F5824F
:10818400E43EF583E0FCA3E02404F582E43CF583BB
:10819400E0FCA3E0FDEF2404F582E43EF583ECF07B
:1081A400A3EDF08010EF2404F582E43EF583E0FEB5
:1081B400A3E0FF80A4900CEFE0FEA3E0F5828E83A1
:1081C40012C6867B017A027932900CEFE0FCA3E0C0
:0481D400FD02E315B0
:0E928800900C22EEF0A3EFF0A3ECF0A3EDF0BB
:10929600E4FFFE7B017A02793412DBD3EF4E7009CC
:1092A60090021F04F0E4FEFF228F828E83A3A3E4C4
:1092B600F0A3F0900C24E0FDA3E08F828E83CDF026
:1092C600A3EDF0900C22E0FCA3E0FD4C604C8D82F7
:1092D6008C83A3A3E0FCA3E0FD900C26ECF0A3EDA9
:1092E600F04C7005900C228022900C26E0FCA3E046
:1092F600F5828C83A3A3E0FCA3E0FD4C600A900CEE
:1093060026ECF0A3EDF080E1900C26E0FCA3E0F55E
:0A931600828C83A3A3EEF0A3EFF016
:01932000222A
:07C68600A3A3E0FEA3E0FF07
:08C68D00900CF1EEF0A3EFF0B8
:10C69500900CF1E0FEA3E0FF4E6025A3EEF0FCA3B5
:10C6A500EFF0FDF5828E83A3A3E0FFA3E0900CF1EC
:10C6B500CFF0A3EFF07B017A02793412E31580D035
:01C6C5002252
:10DFB500900DC0121BDFED1216F012ED6D900DC025
:0CDFC500121BBF900001E48FF002181C3A
:06B9DE00900DC3121BDFF7
:10B9E40012ED6D900DC3121BBF90000112178DFE56
:10B9F400C3EF9EFE121677FD6027EED39D4009909B
:10BA04000DC3121BBFE48016EFFD900DC3121BBFC4
:10BA1400900001E48DF012181C121677C39E1216C2
:0BBA2400F0900DC3121BBF121677FF3D
:01BA2F0022F4
:10040000000403E800B0103F000F0D0D0001054689
:10041000000201F400BF0BB800000014000000004F
:100420000064005A000042480000C120000042A0C1
:100430000000428C00003CF5C28F004342000000E7
:1004400000000041A0000043340000BD4CCCCD3C76
:10045000F5C28F3F00000041A000000000000043F3
:100460003F4CCD43440CCD40A0000241B333340097
:1004700000000043D48000C1A0000041A000004360
:1004800005D238441C78D7B73A5B1432A90F8C4296
:10049000AA0000430A662A441EB816B765BE1F327A
:1004A0007BF48542AA00000000000000000000422A
:1004B0006E976C3DA1AB423C16F76AB99A975842C9
:1004C0003400003D354B163AC478403994334244E9
:1004D0007A00004341E6663C2E1DAABA03CCFFB861
:1004E00027C5AC381F62303A378034B851B717345B
:1004F000D6BF9534D6BF953F800000003F800000F6
:1005000040400000001442480000C47A00003B0351
:10051000126F4602340003E83B449BA63951B717DB
:10052000177038D1B717437A000038D1B717437A1C
:1005300000003B03126FC37A00000043AF00003D90
:10054000CCCCCD3F800000431600004775A6003D8F
:100550001F70F13ECCCCCD42480000437A00000031
:100560000000003D8F5C29437A0000000000003D40
:100570008F5C293F970A3D00000000C0100000403A
:100580001000004660740000000000C628EB3346EF
:10059000CCCC0046CCCC003D4CCCCD00000000BF04
:1005A000C000003FC0000038FBA8823DCCCCCD3C51
:1005B000A3D70A00000000BFC000003FC000003900
:1005C00051B7173DCCCCCD3C23D70A3F99999A3FE0
:1005D000C000003F0000003F99999A41A00000B977
:1005E00051B717BA83126F000000003D8F5C29B726
:1005F000FBA8823DCCCCCDB951B717B851B7170085
:100600000000003D8F5C29B7A7C5AC3DCCCCCD3CEC
:1006100023D70A3F99999A40000000000000003F4C
:1006200099999A42700000B951B717BA83126F00B6
:100630000000003D8F5C29B7FBA8823DCCCCCDB932
:1006400051B717B851B717000000003D8F5C29B7AC
:10065000A7C5AC3DCCCCCD3C23D70A3F99999A4055
:10066000000000000000003F99999A427000003B92
:10067000C49BA63C23D70ABF8000003F8000003403
:1006800056BF953DCCCCCD3B449BA63D4CCCCDBF7D
:100690008000003F80000033D6BF953DCCCCCD3BE1
:1006A00003126F3F99999A3DCCCCCD3D4CCCCD3FB8
:1006B00099999A41A00000B951B7170000000000B5
:1006C0000000003D8F5C29B727C5AC3DCCCCCDB830
:1006D000D1B71700000000000000003D8F5C29B773
:1006E00027C5AC3DCCCCCD3F0000003F99999A4046
:1006F0000000003DCCCCCD3F99999A427000000A91
:1007000000C900C6009E0061002600030007002FFC
:10071000006C00A7000004B3079B079B04B3000014
:10072000FB4DF865F865FB4D07FF06780279FD87FC
:10073000F988F801F988FD870279067800B332223A
:100740008585FFFF013AC49BA63C23D70A3E4CCCCB
:10075000CD3E4CCCCD0000000043D48000C2480008
:100760000042C8000041F00000428C0000C2480076
:1007700000430C0000C2480000430C0000033E4C44
:10078000CCCD45D4800043A28000010000000000D1
:10079000000000000000003F800000B8D1B7173B08
:1007A00003126F4475616C207549544C41205454B8
:1007B00058330000000000000000000000000000AE
:1007C0000000005043423A20363232323534205253
:1007D00065762041000000000000000000000000DD
:1007E00000000000004357207549544C414E454FCE
:1007F0000000005454583139393537353930304ECE
:100800004830004352544D2D3030302D3030303090
:10081000300030312D4155472D32303134004857AA
:1008200020332E302E30004153204331004F5420CE
:10083000312E302E3000485720332E302E300041DC
:1008400053204331004F5420312E302E3000000110
:100850003F8000003F800000424800003E99999A86
:07474E00440CF5000186A0F8
:104755004406DE000186A04206DC00004106C700D3
:10901D00900E1FEFF09006AD121B4400000000E40F
:10902D00900700F09006B1F0A3F09006E6121B44F5
:10903D00000000009006EA121B440000000090079B
:10904D00E4E493FB30E00C9006A9121B4445E87E46
:10905D00BC8017EB9006A930E409121B4446048B23
:10906D007D8007121B4445C6D1639007E4E493301D
:10907D00E1159006A9121A7BE4FBFAF97840121259
:10908D00379006A9121B38900E1FE0701D9006DC5C
:10909D00F0A3F0FE7F12FD7B017A0679EE121E150C
:0B90AD009006F6747FF0A374FFF02221
:102FD5009006DCE0FEA3E0FF4E602CEF64014E702E
:102FE5001CFD7F071281D8E4FD7F031281D890066E
:102FF500C77401F0900BECF0A280B392809006DCD0
:1030050074FFF5F01217369006AD121A7BEF548057
:10301500FFE4FEFDFCFBFAF9F8C31219B6600302E2
:1030250030F5FF12E1EFC004C005C006C0079005EA
:103035005F121A87900AF6121B38900563121A87D9
:10304500900AFA121B38D007D006D005D00412C159
:10305500B59009EE121B389009EE121A7B90055BAC
:10306500121AA31212377BF37A43794A784D12125A
:1030750037128A701214999006FCEEF0A3EFF090C7
:1030850006E6121A979006FCE0FEA3E0FFE4FCFDBD
:103095001218499006E6121B389006E6121A7BC0F4
:1030A50006C0079006B1E025E024B3F582E43406B6
:1030B500F583E0FEA3E0FBAA06E4F9F8D007D00605
:1030C5001218569006E6121B389006FCE0FEA3E0A7
:1030D500FF9006B1E025E024B3F582E43406F583DC
:1030E500EEF0A3EFF09006B1E004F0B40A02E4F0CC
:1030F5009006AD121A7BEF5408FFE4FEFDFCFBFAC7
:10310500F9F8C31219B660030231DF7F0112E1EF4E
:10311500C004C005C006C00790056B121A87900A47
:10312500F6121B3890056F121A87900AFA121B388F
:10313500D007D006D005D00412C1B59009EE121BF8
:10314500389009EE121A7B900567121AA3121237EE
:103155007BF37A43794A784D121237128A7012142A
:10316500999006F4EEF0A3EFF09006EA121A979004
:1031750006F4E0FEA3E0FFE4FCFD1218499006EA20
:10318500121B389006EA121A7BC006C0079006B2D9
:10319500E025E024C8F582E43406F583E0FEA3E0EB
:1031A500FBAA06E4F9F8D007D0061218569006EAED
:1031B500121B389006F4E0FEA3E0FF9006B2E0256E
:1031C500E024C8F582E43406F583EEF0A3EFF09031
:1031D50006B2E004F0B40A02E4F09006AD121A7BE0
:1031E500EF5410FFE4FEFDFCFBFAF9F8C31219B623
:1031F50070697F0412E1EFC004C005C006C00790E6
:10320500057B121A87900AF6121B3890057F121A51
:1032150087900AFA121B38D007D006D005D00412C1
:10322500C1B512144A9009EA121B38900583121A87
:1032350087121499AD07AC06EC1214609009EA12D6
:103245001A971212377B007AFE79FF7846121146DB
:103255001214999006F6EEF0A3EFF07F0212E1EF5B
:103265009009F2121B389006AD121A7BEF5402FF3B
:10327500E4FEFDFCFBFAF9F8C31219B6600302334C
:103285004990053A93605190055F121A87900AF6A6
:10329500121B38900563121A87900AFA121B389090
:1032A50009F2121A7B12C1B59009EE121B3890096A
:1032B500EE121A7B90055B121AA31212377BF37A72
:1032C50043794A784D121237128A70121499AD0754
:1032D500AC06E4121460803E7F0212E21DC004C0F9
:1032E50005C006C007900577121AA39009F2121AB5
:1032F5007B121142D003D002D001D00012114290AE
:103305000573121AA3121340128A707B007ACC79C6
:103315004C78461212379009F6121B38900AF612AD
:103325001B4400000000900AFA121B44477FFF006F
:103335009009F6121A7B12C1B51214999006F0EE97
:10334500F0A3EFF07F0312E1EF7B007A2479747824
:10335500491212371214999009FA121B389009FA7A
:10336500121A7BEC12145BC004C005C006C007909E
:103375000AF6121B44000000007F007EFF7D7F7C63
:10338500479006A9121A97121237900AFA121B389B
:10339500D007D006D005D00412C1B51214999009F2
:1033A500FA121B389009FA121A7BEC12145B7B6F28
:1033B5007A127983783A1213DD50339009FA121A8A
:1033C50097C000C001C002C0037F007E247D747CCD
:1033D50049900587121AA3121237121499D003D0F7
:1033E50002D001D0001218499009FA121B38900634
:1033F500AD121A7BEF5420FFE4FEFDFCFBFAF9F851
:10340500C31219B6701E9009FA121A7BEC12145BDE
:103415009006A9121A971213401214999006F8EE05
:10342500F0A3EFF09006AD121A7BEF5401FFE4FE16
:10343500FDFCFBFAF9F8C31219B6701A9007E4936C
:103445009006EE30E40974D4F0A3747AF080077422
:10345500B8F0A37451F09006AD121A7BEF5440FFFB
:10346500E4FEFDFCFBFAF9F8C31219B6701A9007D1
:10347500E4939006FA30E409742BF0A37485F08088
:10348500077447F0A374AEF09006AD121A7BEF54A3
:1034950004FFE4FEFDFCFBFAF9F8C31219B6700A45
:0A34A5009006F2743BF0A37430F0BF
:0134AF0022FA
:07EB3B007B017A0679EE224E
:10DF2400900E20EFF0AF057B017A0679EEE075F0F4
:0DDF340002A4F58285F083EC8FF002181C2A
:10E206007B017A0679EE75F002EFA4F58285F0833C
:07E2160012178DFFAEF0228C
:1081D800900E21EFF0ED9006ADB4011F121A97C072
:1081E80000C001E47F01FEFDFC900E21E0F9F812C9
:1081F80019DAD001D00012198E8020121A97C00007
:10820800C001E47F01FEFDFC900E21E0F9F812198F
:10821800DA12199BD001D0001219819006AD121BF9
:10822800389006E2121B44000000009006E2121A81
:1082380097C000C001E47F01FEFDFC900E21E0F92B
:10824800F81219DAD001D00012198E9006E2121B2A
:10825800389006E2121A7BEE4408FEEC9006E21211
:108268001B389006E2121B44000000009006E21240
:108278001A97C000C001E47F01FEFDFC900E21E0CA
:108288002419F9F81219DAD001D00012198E9006C3
:04829800E2021B38AB
:10DAA100AB07E47F01FEFDFCA8031219DA9006AD75
:10DAB100121A97121981EC4D4E4F60037F01227F9C
:02DAC100002241
:10D0440012E666900E22EFF012EAE3EF14700E126D
:10D05400E8B3900E22E0FF12E20602EDF612EDC5EF
:0FD06400AC06AD07900E22E0FF12DF2412E8B3F6
:01D07300229A
:10D1600012E666900E23EFF012EAE3EF14700E124F
:10D17000E8B3900E23E0FF12DAA102E6CA12E666D7
:0DD18000AD07900E23E0FF1281D812E8B336
:01D18D00227F
:07476500440397000186A048
:10DE3300AB07900387121B4400000000EB700DFE3C
:0FDE43007F50FD7B017A03799B121E15028B180D
:108B1800E4FBFA7980784B90053B121A87121340D0
:108B2800900522121AA3121340900526121AA312B6
:108B3800134090038B121B38900522121AA3E4FFEE
:108B4800FE7D807CBF121340E4FBFA79C87841129D
:108B580011469003EB121B38E4FBFA7980784B90AE
:108B6800053B121A8712134090052A121AA31213F2
:108B78004090052E121AA312134090038F121B382F
:108B880090052A121AA3E4FFFE7D807CBF121340D1
:108B9800E4FBFA79C878411211469003EF121B38AA
:108BA800900532121A87900393121B3890053612DB
:088BB8001A879003F3021B3839
:101EE10012EC14900A93121BDF900387121A7BEFF6
:101EF1005401FFE4FEFDFCFBFAF9F8C31219B670B8
:101F010020FF12E52BE412145B90038B121A971237
:101F110012379003EB121A9712114690039B121B72
:101F210038900387121A7BEF5402FFE4FEFDFCFB9D
:101F3100FAF9F8C31219B670217F0112E52BE412E8
:101F4100145B90038F121A971212379003EF121A33
:101F51009712114690039F121B38900387121A7B28
:101F6100EF5404FFE4FEFDFCFBFAF9F8C31219B6C5
:101F710060030220569007E493900A9330E56912BA
:101F81001BBF90000812178DFDACF0E41214607BAA
:101F9100007AF0799B7845121237C004C005C0065B
:101FA100C007900A93121BBF90000812178DAEF064
:101FB100FBE4C39BFFE49EFE74019400FDE49400E6
:101FC100FC12145BA804A905AA06AB07D007D0062A
:101FD100D005D004121340900A87121B38900A874B
:101FE100121A7B12A3628067121BBF90000812179E
:101FF1008DFDACF0E41214607B007AEC79427847F5
:10200100121237C004C005C006C007900A93121B04
:10201100BF90000812178DAEF0FBE4C39BFFE49E56
:10202100FE74019400FDE49400FC12145BA804A961
:1020310005AA06AB07D007D006D005D0041213407D
:10204100900A87121B38900A87121A7B12A3DB9021
:1020510003A3121B38900387121A7BEF5408FFE485
:10206100FEFDFCFBFAF9F8C31219B6703890053A77
:10207100936027900A93121BBF90000A12178DFDDF
:10208100ACF0E4121460900393121A971212379075
:1020910003F3121A9712114680057F0212E1EF90A5
:1020A10003A7121B38900387121A7BEF5420FFE419
:1020B100FEFDFCFBFAF9F8C31219B6702F900A93D2
:1020C100121BBF90001812178DFDACF0E4121460C2
:1020D1007BE67A6A79B478391212377BD77AA37999
:1020E1002078C11211469003AF121B38900387125A
:1020F1001A7BEF5410FFE4FEFDFCFBFAF9F8C31262
:1021010019B67033900A93121BBF90000E12178DEF
:10211100FDACF0E4121460A804A905AA06AB07906F
:10212100054B121A8712114290054F121AA312126F
:10213100379003AB121B387F0312E1EF9003DB12E0
:102141001B387B017A0A798B900AA7121BDF7A0A66
:102151007987129866E4FFFE7D207C419003DB12B3
:102161001A97121146C004C005C006C00790054762
:10217100121A87900543121AA3121237D003D00204
:10218100D001D000121340900A8F121B38900387A0
:10219100121A7BEF5480FFE4FEFDFCFBFAF9F8C351
:1021A1001219B67015900A87121A7B900A8F121AAB
:1021B100971212379003B7121B38900387121A7BBC
:1021C100E4FFEE5401FEE4FDFCFBFAF9F8C3121939
:1021D100B67015900A8B121A7B900A8F121A9712F9
:1021E10012379003BB121B38900387121A7BE4FF4E
:1021F100FEED5402FDE4FCFBFAF9F8C31219B670C6
:1022010019900A93121BBF90000C12178DFDACF0B0
:10221100E41214609003DF121B38900387121A7BBB
:10222100E4FFFEED5404FDE4FCFBFAF9F8C31219D6
:10223100B6703A900A93121BBF90001412178DFDCD
:10224100ACF0E41214607B9A7A9979917840121279
:10225100377B007AFF797F78471213407BAE7A474C
:10226100791178C01211469003E3121B389003874D
:10227100121A7BE4FFFEED5408FDE4FCFBFAF9F8C9
:10228100C31219B67042900A93121BBF9000161226
:10229100178DFDACF0E4121460E4FBFA792078406C
:1022A1001212377B007AFF797F7847121340E4FBE3
:1022B100FA79A078BF121146E4FBFA7980783E12D0
:1022C10013409003E7121B38900387121A7BEF54D7
:1022D10040FFE4FEFDFCFBFAF9F8C31219B6706B7E
:1022E100900A93121BBF90001212178DFDACF0E4FF
:1022F100121460A804A905AA06AB07E4FFFE7D80BD
:102301007C47121142C004C005C006C007900A9361
:10231100121BBF90001212178DFDACF0E412146075
:102321007B007AD079CF7845121237D003D002D012
:1023310001D000121340900A87121B38900A8712AD
:102341001A7B12A4549003B3121B3890053F121A42
:10235100A3E4FFFE7D807C3F1211429003BF121A5D
:1023610097121237C004C005C006C00790039B1224
:102371001A7B90053F121AA3121237D003D002D054
:1023810001D0001211469003BF121B3890053F1275
:102391001AA3E4FFFE7D807C3F1211429003C31219
:1023A1001A97121237C004C005C006C00790039FD8
:1023B100121A7B90053F121AA3121237D003D002D2
:1023C100D001D0001211469003C3121B3890053F73
:1023D100121AA3E4FFFE7D807C3F1211429003C7D5
:1023E100121A97121237C004C005C006C007900325
:1023F100A3121A7B90053F121AA3121237D003D0F1
:1024010002D001D0001211469003C7121B3890056B
:102411003F121AA3E4FFFE7D807C3F12114290031C
:10242100CB121A97121237C004C005C006C007901C
:1024310003A7121A7B90053F121AA3121237D00379
:10244100D002D001D0001211469003CB121B38905C
:10245100053F121AA3E4FFFE7D807C3F12114290DA
:1024610003CF121A97121237C004C005C006C00765
:102471009003AB121A7B90053F121AA3121237D0A8
:1024810003D002D001D0001211469003CF121B38A5
:1024910090053F121AA3E4FFFE7D807C3F1211429A
:1024A1009003D3121A97121237C004C005C006C098
:1024B100079003B7121A7B90053F121AA312123725
:1024C100D003D002D001D0001211469003D3121BC9
:1024D1003890053F121AA3E4FFFE7D807C3F121164
:1024E100429003D7121A97121237C004C005C006D2
:1024F100C0079003BB121A7B90053F121AA3121258
:1025010037D003D002D001D0001211469003D70278
:022511001B3875
:10A3620012430A900CF9121B387F5D7E757D567C74
:10A3720034900CF9121A97121237900CF9121A979C
:10A38200121237900CF9121A97121237C004C00534
:10A39200C006C0077F2C7E647D837C39900CF91245
:10A3A2001A971212377B7B7AA87969783A1211468A
:10A3B200D003D002D001D000121146A804A905AAE8
:10A3C20006AB07E4FFFE7D807C3F1213407B337AAD
:08A3D20093798878C31211464B
:01A3DA002260
:10DF4100EF75F004A47B01249BF9740335F0FAC248
:0CDF5100AE900C68121A7B121A3DD2AE82
:01DF5D0022A1
:10E21D00EF75F004A47B01249BF9740335F0FAC269
:06E22D00AE1219EDD2AEA5
:01E2330022C8
:07EB42007B017A03799B229D
:10BB2500900E24EFF0ED900387601F121A97C00066
:10BB3500C001E47F01FEFDFC900E24E0F9F8121926
:10BB4500DAD001D00012198E8020121A97C000C0D9
:10BB550001E47F01FEFDFC900E24E0F9F81219DAEC
:10BB650012199BD001D000121981900387121B383E
:01BB750022AD
:10DAC300AB07E47F01FEFDFCA8031219DA9003877C
:10DAD300121A97121981EC4D4E4F60037F01227F7A
:02DAE30000221F
:10A3DB0012430A900CFD121B387F3B7E867D587C06
:10A3EB0033900CFD121A97121237900CFD121A971C
:10A3FB00121237900CFD121A97121237C004C005B7
:10A40B00C006C0077FA37E3A7D4C7C39900CFD12B1
:10A41B001A971212377B1D7AA07987783A12114658
:10A42B00D003D002D001D000121146A804A905AA6E
:10A43B0006AB07E4FFFE7D807C3F1213407B337A33
:08A44B0093798878C3121146D1
:01A4530022E6
:10A4540012430A900D01121B387F9C7E4F7D547C61
:10A4640034900D01121A97121237900D01121A9797
:10A47400121237900D01121A97121237C004C00538
:10A48400C006C0077F2C7E647D837C39900D011249
:10A494001A971212377B7B7AA87969783A12114697
:10A4A400D003D002D001D000121146A804A905AAF5
:10A4B40006AB07E4FFFE7D807C3F1213407B337ABA
:08A4C40093798878C312114658
:01A4CC00226D
:10CEB80012E666900E25EFF012EAE3EF14700E12F8
:10CEC800E8B3900E25E0FF12E21D02E64412E5D811
:10CED800900C68121B38900E25E0FF12DF4112E813
:01CEE800B396
:01CEE9002226
:10D18E0012E666900E26EFF012EAE3EF14700E121E
:10D19E00E8B3900E26E0FF12DAC302E6CA12E66684
:0DD1AE00AD07900E26E0FF12BB2512E8B37E
:01D1BB002251
:10A88400900B28121BDFE4900E27F0900B2B121B69
:10A89400BFC003C002C001900B28121BBF9000264A
:10A8A400121C93900B28121BBF90002974011217DD
:10A8B4000290002A7401121702C003C002C0019062
:10A8C4000B2B121BBF900AD0121BDF900B2B121BF9
:10A8D400BFE92430F9E43AFA900AD3121BDF900B53
:10A8E4002E121A7B900AD6121B38D001D002D00344
:03A8F400028E4889
:108DAA00900BBE121B38900BBB121BDF90002A12CD
:108DBA001690601C900BBB121BBF900BBE121A7B45
:108DCA001296AF900BBB121BBF90002AE412170237
:108DDA00900BBB121BBF900029121690703B90009B
:108DEA002B121AD3900BBE121A7B12114212E8826E
:108DFA00900BBB121BBF900026121C6390004412FA
:108E0A001AD31213DD5012900E27E004F0900BBB18
:108E1A00121BBF900008021A0D900BBE121A7B900B
:108E2A000BBB121BBF90002B121A5712BDE8900BF6
:0E8E3A00BB121BBF900BBE121A7B1240E5222A
:04EDA90012EDCD2278
:10DF5E00900DC6121BDF900DC6121BBF12EDFC906A
:0DDF6E000DC6121BBF90002A74010217029D
:03EDED0002ED2B09
:04EDAD0012EBEA2259
:1096AF00900BC5121B38900BC2121BDF12EDCD9021
:1096BF000BC5121A9712114212E882900BC2121B9D
:1096CF00BF900026121C6390003C121AD31213DDB8
:1096DF005028900BC2121BBF7D0112C805900BC200
:1096EF00121BBF121AB3900BC5121A7B12114290A4
:1096FF000BC2121BBF90000C800F900BC5121A7B70
:10970F00900BC2121BBF90002B121A57900BC21254
:10971F001BBF900026121C63900034121A0D90008C
:10972F0030121AD3121237900BC2121BBF900014B3
:03973F00021A57B4
:10D1BC00900DC9121BDF900DC9121BBF127DF2EF2F
:10D1CC006019900DC9121BBF900029121690700B9C
:0ED1DC0090002A12169070037F01227F00221D
:04EDB10012EBF1224E
:04EDB50012EBF82243
:04EDB90012EBFF2238
:10E56700900029740112170290002A7401121702F1
:03E5770002ED3181
:06BDE800900BC9121BDFE5
:10BDEE00900029121690603D900BC9121BBF900057
:10BDFE000C121A0D12E882900BCC121B38900BC944
:10BE0E00121BBF900026121C63900038121A0D9060
:10BE1E000BCC121A971213DD500B900BC9121BBFCD
:05BE2E00E4FD12C8054F
:01BE330022EC
:10C80500900DCC121BDF900029ED121702ED900D53
:10C81500CC7012121BBF900026121C63E92418F974
:10C82500E43AFA8009121BBF900026121C63900C93
:0EC835004F121BDF900DCC121BBF12DE5222E1
:08EAD300900029121690FF22A9
:07476C0044070E000186A0C6
:10D8D10090073E7401F0900716F0900731F0E49044
:10D8E1000717F012EB26900743121BDF12EB2D9066
:05D8F1000746021BDFE9
:10A07700900E28EFF0706E900701121B440000004D
:10A0870000900720121B440000000090072D121BB0
:10A097004400000000900712121B4400000000E477
:10A0A700900724F0900709F0900743121BBF12EDA9
:10A0B700A9900736121B38900746121BBF12EDA94D
:10A0C70090073A121B387F0412E21D90073F121BBC
:10A0D7003890071C121B4400000000900749121B10
:0EA0E7004400000000900E28E090073EF0229A
:06EC6B0090073EE0FF22CD
:0FE71A00900716E06F6007EFF07003A304F02282
:06EC7100900716E0FF22EF
:06EC7700900731EFF022CE
:06EC7D00900731E0FF22C8
:07EB4900900712121A7B2253
:07EB500090072D121A7B2231
:10E6AA0090072D121A7B90072D121A9712123722F1
:03EDF0007F01227E
:07477300440D05000186A0C2
:10E2BD0012EAE3EF700912E8B312EC6B02E6CA1230
:05E2CD00E66612A077D7
:01E2D2002229
:10E2D30012EAE3EF700912E8B312EC7102E6CA1214
:05E2E300E66612E71AD7
:01E2E8002213
:10E2E90012EAE3EF700912E8B312EC7D02E6CA12F2
:05E2F900E66612EC775F
:01E2FE0022FD
:09E97D0012E8B312EB5002E6446B
:09E9860012E8B312E6AA02E6440D
:09E98F0012E8B312EDF002EDF301
:09E9980012E8B312EB4902E64457
:07477A00440D09000186A0B7
:10D68D00A2AF9200AEF5C2AFC2AFC3EC948040061C
:10D69D0053F5CFEF42F58C088D098D828C83E49381
:07D6AD00FF8EF5A20092AF11
:01D6B4002253
:10CA2B00900BD1ECF0A3EDF0A907900BD574FFF5AB
:10CA3B00F012174C45F06022AF01900BD1E475F06A
:10CA4B000112174CADF0FC12D68D0BEBAC02700142
:0BCA5B000A14F5828C83EFF080D022DB
:0BA72200900C6CEFF0A3ECF0A3EDF046
:10A72D00A2AF9201A3E5F5F012ED5B900C70EFF086
:10A73D006005E4FF12EE06C2AFC2AF43B602900C45
:10A74D006DE0FEA3E0AC068C0AF50BC3EE948040E1
:10A75D000953F5CF900C6CE042F5758F02438F01D4
:10A76D0075B7A575B7F1850B82850A83E4F0F58F72
:10A77D0053B6FD900C6FE0F5F5A20192AFA20192D8
:0AA78D00AFA3E060057F0112EE06A5
:01A79700229F
:109DE900EF7F0025E0FEE4FCFD900C72121B38E4C5
:109DF900FF7E80FDFC900C72121A97C31219B6509F
:109E090007E4900C71F0804DE4FFFE7D01FC900C9D
:109E190072121A97C31219B65008900C717410F087
:109E290080337F007E807D017C00900C72121A972E
:109E3900C31219B65019900C72121A7BEE4480FEA7
:109E4900EC900C72121B38900C717420F080069003
:109E59000C717430F0900C71E0FF900C74E0FCA36D
:059E6900E0FD02A7224C
:0B932100900AFEEFF0900B01121BDF22
:10932C00A2AF9202900B06E5F5F0C2AFC2AF43B606
:10933C0002AF05AE048E0C8F0DC3EE948040095322
:10934C00F5CF900AFEE042F5E4900B07F0A3F09005
:10935C000B04E0FEA3E0FF900B07E0FCA3E0FDC3D1
:10936C009FEC9E5039900B01121BBF8D828C831287
:10937C001690FFF46014758F0175B7A575B7F1855C
:10938C000D82850C83EFF0E4F58F050DE50D700271
:10939C00050C900B07E475F00112173680B153B62B
:0D93AC00FD900B06E0F5F5A20292AF7F01E7
:0193B9002291
:069BC300900C28121B3873
:109BC900E4FF7E80FDFC900C28121A97C31219B687
:109BD9005007E4900C2DF0804DE4FFFE7D01FC90D0
:109BE9000C28121A97C31219B65008900C2D74102C
:109BF900F080337F007E807D017C00900C28121A52
:109C090097C31219B65019900C28121A7BEE44808A
:109C1900FEEC900C28121B38900C2D7420F0800655
:109C2900900C2D7430F0900C2DE0FF900C2AE0FC84
:109C3900A3E0FD7B017A0C792C900B04E4F0A304DA
:049C4900F002932171
:06A0F500900C76121B38EE
:10A0FB00E4FF7E80FDFC900C76121A97C31219B602
:10A10B005007E4900C7AF0804DE4FFFE7D01FC904B
:10A11B000C76121A97C31219B65008900C7A741059
:10A12B00F080337F007E807D017C00900C76121ACC
:10A13B0097C31219B65019900C76121A7BEE448005
:10A14B00FEEC900C76121B38900C7A7420F0800683
:10A15B00900C7A7430F0900C7AE0FF900C78E0FC65
:06A16B00A3E0FD12D68DF9
:01A1710022CB
:09E9A100E4F5A7F58F75B610220C
:07478100440AC1000186A0FB
:10D9F300E4900AC5F0900AC004F0900ACCF0FF123C
:10DA0300DF07900AC6121BDF7F0212DF07900AC9E5
:03DA1300021BDF14
:0AE94300900AC0EFF0900ACCF02219
:0969F200900AC0E06003026B0D85
:1069FB00900AC6121BBF12EDA9900A36121B3890D3
:106A0B000AC9121BBF12EDA9900A3A121B38E49067
:106A1B000A46F012752A900A36121A9712114290F2
:106A2B000A3E121B38127619900A3A121A97121153
:106A3B0042900A42121B38900518121A87900A3E90
:106A4B00121A971213DD600A4008900518121A8764
:106A5B00801D900518121A8712144A900A3E121ABA
:106A6B00971213DD5011900518121A8712144A90C1
:106A7B000A3E121B388006900A467401F0900518E6
:106A8B00121A87900A42121A971213DD600A4008F5
:106A9B00900518121A87801D900518121A87121468
:106AAB004A900A42121A971213DD501190051812D0
:106ABB001A8712144A900A42121B388015900A4604
:106ACB00E0600F900AC07401F0900ACCF0E4900AD9
:106ADB00C5F0900A3E121A7B900A36121A971211C1
:106AEB0046900AC6121BBF12DF5E900A42121A7B37
:106AFB00900A3A121A97121146900AC9121BBF122A
:026B0B00DF5E4B
:016B0D002265
:06EC8300900ACCE0FF2224
:06EC8900900AC5EFF02225
:06EC8F00900AC5E0FF221F
:0F47880044084C000186A041084300410850003E
:10A96A00900E29EFF0AFEFEF900848F0A3E4F090D3
:10A97A0007E49330E4137F297E5C7D0F7C3F9007C8
:10A98A0086121AA312123780087F007E007D347C5B
:10A99A0043128D08E490086EF0900E29E0700E9034
:10A9AA00086FF090086DF090083EF0A3F0E490086C
:10A9BA006CF090086804F0A374F4F0A37401F0FB3F
:10A9CA007A0879407D0A12DFB5E4900851F0A3F0C5
:01A9DA00225A
:10251300900849E0540F9007F3F090086FE0540FD0
:102523009007F5F090086DE0540F9007F6F012EC69
:10253300149007F8121BDF90086AE070117B017A90
:102543000879407D0212DFB590086A7401F07B01BF
:102553007A08794012B9DEEF6003022AEDE49007AE
:10256300F4F090086AF07F0B12E21D9007CF121B64
:10257300387F0912E21D9007D3121B387F0A12E23B
:102583001D9007D7121B387F1012E21D9007DB1234
:102593001B381254FC9007F7EFF090075D121A876F
:1025A3009007CF121A971213DD4013900761121A86
:1025B300879007CF121A971213DD6012401090070D
:1025C300F3E04401F0A37401F0A3E04422F0900788
:1025D3006D121A879007D3121A971213DD401390C6
:1025E3000771121A879007D3121A971213DD60121C
:1025F30040109007F3E04402F0A37401F0A3E04419
:1026030022F0900775121A879007D7121A971213A0
:10261300DD4013900779121A879007D7121A971281
:1026230013DD601240109007F3E04404F0A374013B
:10263300F0A3E04422F0900868E07002A3E0600C8D
:1026430090086874FFF5F012173680329007651210
:102653001A879007CF121A971213DD401390076958
:10266300121A879007CF121A971213DD6010400ECB
:102673009007F3E04420F09007F6E04422F090083E
:1026830057121A7B9007DB121A971213DD60104062
:102693000E9007F3E04480F09007F6E04488F09052
:1026A3000853121A7B9007DB121A971213DD600D81
:1026B300400B9007F47401F0A3E04488F090083EC7
:1026C300E07002A3E0600A90083E74FFF5F0021781
:1026D3003612EDD99007E3121B3812EDDD9007E7B0
:1026E300121B389007F7E0D3940750030227FF7FAC
:1026F3000412E21D9007DF121B3890085B121A9731
:102703009007E3121A7B1213409007E7121A9712ED
:1027130013DD401C90085B121A7B9007E3121A9793
:102723001212379007E7121A971213DD602A402816
:1027330090084BE07015900843E070169007F7E09F
:10274300FFC3940B400CEF640D60079007F5E04462
:1027530011F09007F47401F090085F121A97900734
:10276300E3121A7B1213409007E7121A971213DD34
:10277300402F90085F121A7B9007E3121A971212E8
:10278300379007E7121A971213DD60025013900770
:1027930082121A879007DF121A971213DD603840EE
:1027A300369007F3E04410F090084BE07015900862
:1027B30043E070169007F7E0FFC3940B400CEF64FF
:1027C3000D60079007F6E04411F0900843E0604085
:1027D300E4900850F08039900843E060339008504B
:1027E300E004F0C394324028E4900843F09008508A
:1027F300F090083E04F0A374F4F080149007F3E023
:102803004410F090084BE060079007F6E04411F0A5
:102813009007F7E0FFC3940750030228A8EF640D65
:0528230070030228A86B
:102828007F0312E21D9007FB121B38E4FFFE7DA018
:102838007C409007CF121A971211469007FB121A84
:10284800971213DD4014E4FFFE7D9E7C429007FB47
:10285800121A971213DD600940079007F6E04455F5
:10286800F09007CF121A7B9007FB121A971213DD0C
:102878004014E4FFFE7DA07C429007FB121A9712D9
:1028880013DD60174015900852E004F0E0C394038C
:10289800400E9007F5E04455F08005E4900852F0AA
:1028A8009007F7E0FFD394075003022A69EF640CFE
:1028B8007003022A697F0E12E21DC004C005C0061B
:1028C800C00712EBC7A804A905AA06AB07D007D012
:1028D80006D005D00412114212E88290077E121A1F
:1028E800A31213DD50319007F3E04440F090084BF9
:1028F800E07015900843E070169007F7E0FFC39466
:102908000B400CEF640D60079007F6E04444F0902C
:1029180008637401F08015900863E0600F90083E2A
:102928007401F0A374F4F0E4900863F07F0112DFFF
:102938000712EDADC004C005C006C0077F0112DF55
:102948000712EDA9D003D002D001D000121146A879
:1029580004A905AA06AB079007D3121A7B121142E5
:102968009007EB121B387F0212DF0712EDADC0048F
:10297800C005C006C0077F0212DF0712EDA9D00309
:10298800D002D001D000121146A804A905AA06ABAE
:10299800079007D7121A7B1211429007EF121B38C3
:1029A8009007EB121A7B12E882E4FBFA7980783FF1
:1029B8001213DD406A9007EF121A7B12E882E4FBDB
:1029C800FA7980783F1213DD40559007EF121A9775
:1029D8009007EB121A7B12114212E8827BCD7ACC57
:1029E80079CC783E1213DD4036E4FFFE7D807C40D2
:1029F8009007CF121A971211469007D3121A9712FE
:102A080013DD401BE4FFFE7D807C409007CF121A47
:102A1800971211469007D7121A971213DD503B9060
:102A28000851E004F0E0C39403404A9007F3E044FF
:102A380008F0A37401F090084BE07014900843E08C
:102A480070339007F7E0FF940B402AEF640D602580
:102A58009007F5E04444F0A38017E4900851F08013
:102A6800149007F3E04440F090084BE060079007AB
:102A7800F6E04444F0900848E0FEA3E0540FFF90CD
:102A880007F3E0FDEF4DFF900848EEF0A3EFF0905C
:102A9800086BE06004E4F080109007F5E090086FA0
:102AA800F09007F6E090086DF09007F4E0602A9047
:102AB800086EE02410F090077DE493C454F0FF9072
:102AC800086EE0FE54F0B5071CEE540FF090084A6B
:102AD800E0701290086C04F02290086EE0540FF039
:052AE800E490086CF011
:012AED0022C6
:04EDBD00E4FEFF224F
:0EE7290012EDBDAD07900849E054F0F0AF05C9
:01E7370022BF
:10E57A00EF700590084AF022E490086CF090084A7F
:03E58A0004F02278
:06EC950090084AE0FF2296
:06EC9B0090086DE0FF226D
:10E44900EF540FFF90086DE0FE6FFFEE5FF090084C
:05E459006B7401F022CC
:06ECA10090086FE0FF2265
:10E45E00EF540FFF90086FE0FE6FFFEE5FF0900835
:05E46E006B7401F022B7
:05BE3400900C7BEFF013
:10BE3900AE04AF05E41214607B6F7A127983783A05
:10BE490012123712E08F900C7C121B38A2AFE43328
:10BE5900FBC2AFC2AF900C7C121A7B900C7BE02521
:10BE6900E025E0245BF582E43408F583121B38AF42
:06BE790003EF24FF92AF6D
:01BE7F0022A0
:10D21800EF25E025E0245BF582E43408F583121A53
:10D228007B12E7EC7B6F7A127903783A121146E4A5
:0DD23800FBFA797A78441212371214992209
:10DA1600D3ED9464EC94004004E4FE8013EF25E01B
:10DA26002464F582E43408F583ECF0A3EDF07E017E
:02DA3600AF0639
:01DA380022CB
:10E5C600EF25E02464F582E43408F583E0FEA3E059
:02E5D600FF2222
:108D0800900D0D121B38900D0D121A7B900844120D
:108D18001B38900D0D121A97900786121A87121198
:108D280042C004C005C006C007900864E0FCA3E088
:108D3800FDE4121460D003D002D001D00012123723
:108D48007B0A7AD77923783C121237900D0D121AC4
:108D580097121146900853121B38900D0D121A974E
:108D6800900786121A87121142C004C005C006C0B7
:108D780007900866E0FCA3E0FDE4121460D003D07D
:108D880002D001D0001212377B0A7AD77923783CB7
:108D9800121237900D0D121A9712114690085702A9
:028DA8001B3876
:07EB5700900844121A7B2212
:109CD7007F1012E21D900844121A97121142E4FBFA
:109CE700FA79C87842121237C004C005C006C00707
:109CF700900844121A97900786121A87121142A8E1
:109D070004A905AA06AB07D007D006D005D00412D0
:109D17001340900D11121B38E4FFFEFDFC900D114E
:109D2700121A971213DD500C900D11121B440000EC
:109D37000000801EE4FFFE7DC87C42900D11121AC0
:109D4700971213DD600C400A900D11121B4442C894
:089D57000000900D11121A7BAF
:019D5F0022E1
:06ECA70090084BEFF02283
:0DE8410090084BE060047F0180027F002200
:06ECAD0090086CE0FF225C
:0BE8BF0090086FEFF090086DEDF02264
:10E2FF0090086FE01216F090086DE0FF900C31124D
:06E30F001BBFEF0216F037
:09E9AA0090083EE4F0A3EFF02216
:0BE8CA00900843EFF0E4900850F022AB
:06ECB300900843E0FF227F
:06ECB900900863E0FF2259
:10E15C0012EAE3EF700912E8B312EC9502E6CA1268
:09E16C00EDC112E57A12E8B322BC
:0FE7380012EAE3EF700302E8B3E4FF12E85B229A
:0FE7470012EAE3EF700302E8B3E4FF12E85B228B
:0FE7560012EAE3EF700302E8B3E4FF12E85B227C
:10CB5200EC8DF01217FD900BDDE014F0900BDDE090
:10CB6200FF14F0EF601B900BDCE0FF7E002DFAEE6D
:10CB72003C8D828C83F0A3CAF0EF2DFDEE3CFC804D
:0ACB8200DB8D828C83E4F0A3F02227
:10DBD30012176245F07003FEFF22121762AEF0FDCA
:10DBE300F5828E83E0FFA3E0CF8FF01217FDAF0520
:01DBF300220F
:10E31500121762FF8D828C83E5F0F0A3EFF0AF0555
:06E32500EC8FF00217FD71
:07479700440D15000186A08E
:10668000FFD074FFD520FFD549FFD572FFC6C6FFE6
:10669000D59BFFD7EFFFD815FFC7C6FFE8D5FFE8AA
:1066A000E0FFCA66FFEB5EFF9619FFDF7BFFE8EBBA
:1066B000FFA26CFFEB5EFFEB5EFFE175FF4AF6FFAA
:1066C000E8F6FFEB5EFFEB5EFFEB5EFFEB5EFFEBE2
:1066D0005EFFEB5EFFEB5EFFEB5EFFEB5EFFEB5EF4
:1066E000FFBE80FFBECCFFC3A9FFB201FFEB65FF79
:1066F000EB6CFFDBF4FFDC14FFD29EFFD2CAFFD2AB
:10670000F6FFEB5EFFEB5EFFEB5EFFEB5EFFEB5E2B
:10671000FF7346FF9D60FF6C26FFA4CDFFBC15FFF5
:10672000804DFF8360FFEB5EFFEB5EFFEB5EFFEBF8
:106730005EFFEB5EFFEB5EFFEB5EFFEB5EFFEB5E93
:10674000FFA2E7FF8913FFE32BFFE473FFEB5EFF7C
:10675000EB5EFFEB5EFFEB5EFFEB5EFFEB5EFFEBE6
:106760005EFFEB5EFFEB5EFFEB5EFFEB5EFFE84E76
:10677000FFE234FF0CE6FFE88FFFC3EFFFE765FFA2
:10678000C046FFEB73FFBF18FFB315FFEB7AFFEBBB
:1067900081FFEB88FFEB8FFFEB5EFFEB5EFFCC73BF
:0967A000FFC9B4FFE9C5FFB4DB39
:10479E0044042E000186A04104560041041D004130
:1047AE0004160041045700420410000041041C008E
:0847BE004104380041046600CB
:06ECBF00E4900456F0226F
:10E0080090043D121A7B900452121B387E007F0345
:0BE018007D007B017A04790D021E15CB
:10E6BA00900463E04410F07B017A04794202D91B8A
:100AC100900D19121BDF900D1CEDF0900D19121BEA
:100AD100BF12176254F0FFE4C4F854F0C8EFC454D5
:100AE1000F48FF12DE90900D19121BBF121762E51D
:100AF100F05410C4540FFF12ECC5900D19121BBF16
:100B010090000212178DFDACF0E4FF12BE34900D7F
:100B110019121BBF90000412178DFDACF07F01125A
:100B2100BE34900D19121BBF90000612178DFF9055
:100B31000409E5F0F0A3EFF090000812178DFF9083
:100B41000434E5F0F0A3EFF090000A12178DFF9046
:100B5100043BE5F0F0A3EFF090001212178DFF9027
:100B6100045CE5F0F0A3EFF090001612178DFDACD8
:100B7100F0E41214607B007A40791C78461213402D
:100B8100C004C005C006C007900D19121BBF90001C
:100B91001412178DFDACF0E4121460D003D002D012
:100BA10001D000121146900405121B38900D191244
:100BB1001BBF90000C12178DFF900439E5F0F0A3D4
:100BC100EFF090000E12178DFDACF0EC1214607B6B
:100BD1006F7A127983783A12123712E08F12ECD7BA
:100BE100900D1CE06012900D19121BBF9000241291
:100BF100178DFFAEF012B533900D19121BBF900087
:100C01001012178D7E0054047802CEC313CE13D870
:100C1100F94E70047F0180027F0012E57A900D1970
:100C2100121BBF90001012178D5402FFE4C313EF83
:100C310013FF12ECA790045F121A87900BA0121BEE
:100C410038900405121A7B12B016EFF4704912EBBA
:100C51009D1219ED900405121B38900405121A7BA0
:100C6100121499900464EEF0A3EFF0FDAC06E412C7
:100C71001460A804A905AA06AB07900405121A7B03
:100C81001211427B007A40791C78461212371214F5
:100C91009990040BEE8022900D19121BBF90001445
:100CA10012178DFF900464E5F0F0A3EFF0900016A9
:100CB10012178DFF90040BE5F0F0A3EFF0900D19E2
:100CC100121BBF90002012178DFDACF0E4FF12DA69
:100CD10016900D19121BBF90002212178DFDACF05A
:050CE1007F0102DA169C
:10490F00900D1D121B38900D1D121A7BE4FFFEE453
:10491F00FCFBFA7901F81218EF900441EFF0900DBB
:10492F001D121A7BE4FFFEFDEC5401FCE4FBFAF9C7
:10493F0078011218EF900417EFF0900D1D121A7BEB
:10494F00E4FC90043D121B38900D1D121A7B90044D
:10495F0032EEF0A3EFF0E4900416F07B017A0D79BC
:10496F001D12D3A6E4FCFDFEC004C005C006C0079F
:10497F00900D1D121A7BE4FFFEFDEC54F0FCE4FBDE
:10498F00FAF978101218EFA804A905AA06AB07D0F8
:10499F0007D006D005D004C31219B6602690043D87
:1049AF00121A7BEC4408FC90043D121B38900463F0
:1049BF00E04440F09004167408F03081037F002229
:1049CF007F0122900D1D121A7BE4FFFEFDEC5408AF
:1049DF00FCE4FBFAF978081218EFEC4D4E4F600F1C
:1049EF00900452121A7B90043D121B38024AD69043
:1049FF000441E0FFD39462501375F003EF9066808B
:104A0F00121BB3121BE8121D26024AD6900441E076
:104A1F00B4860612B370024AD6900441E0B48806F9
:104A2F0012B07B024AD6900441E0B4890612E774B3
:104A3F00024AD6900441E0B4900612AC71024AD6F5
:104A4F00900441E0B4910512C706807B900441E0C9
:104A5F00B4920512B797806F900441E0B49305129A
:104A6F00A1728063900441E0B4940512C746805749
:104A7F00900441E0B4230512E809804B900441E013
:104A8F00B4F00512C4FC803F900441E0B4F105126C
:104A9F00E9018033900441E0B4F205128BC0802706
:104AAF00900441E0B4F305127156801B900441E06D
:104ABF00B4FB0512C93A800F900441E0B4FF051210
:104ACF00CAA1800312EB5E90043D121A7B90045230
:104ADF00121B38900416E090041DF06007900463D9
:074AEF00E04480F07F01228A
:1090B800900416E0602390043D121A7BE4FFFEEC56
:1090C80054FCFC90043D121B3890043D121A7BECB2
:1090D8004401FC90043D121B3890043D121A7BECAD
:1090E800540FFC90043D121B3830811090043D123F
:1090F8001A7BEC4404FC90043D121B3890043D128A
:109108001A97C000C001C002C0037B017A04793DF0
:1091180012D3A6E4FCFDFEFBFAF97810121864E4F9
:10912800FFFEFDEC54F0FCD003D002D001D00012B9
:10913800198E90043D121B3890043D121A7B90043E
:0B91480052121B3890043D121A7B22CB
:1045170012ECA1900C80E4F0A3EFF012EC9B900C4E
:1045270082E4F0A3EFF01254FC900C84EFF012ED4C
:1045370079EF7023900C84E0D39407403E12ED7F0F
:10454700EF703890045EE0A320E03012ECB3EF7018
:104557002A12ECB9EF7024900456E054FAF0900C4C
:1045670084E0C3940B4014900456E054F7F012EC27
:104577008FEF7007900456E054EFF0900C80A3E0A3
:10458700FD54F0FFE4C4F854F0C8EFC4540F485486
:104597000FFEED540FFDEDFF900C80EEF0FCA3EF46
:1045A700F0A3A3E0FB54F0FFE4C4F854F0C8EFC451
:1045B700540F48540FFEEB540FFBEBFF900C82EEA9
:1045C700F0A3EFF090040AE0540FFFED540FFDED58
:1045D7005F702B900409E0FCA3E0FDEC540FFF9003
:1045E7000C83E0540FFBEF5B7014900462E05410EF
:1045F700FEA3E054F0FFEC5EFEED5F4E600E90040C
:1046070062E04480F0A3E0F0C2A18009900462E078
:10461700547FF0D2A1900434E0FEA3E0FF540FFDD5
:10462700900C81E0540FFBEB5D701EEE540FFF9072
:104637000C83E0540FFDEF5D700F900463E054208E
:10464700FF900434A3E05F602E900462E04420F002
:10465700A3E0F012ECADEF602A12E938900457742A
:1046670001F0FF12D4A27F0112E553900462E044E7
:1046770010F0A3E0F0800C900462E054DFF0E490C7
:104687000457F090095BE06027309124C2AFC2AFB6
:104697007B017A04790D12B9DEEF7010FF12D4A2F4
:1046A700E490095BF0900462E054EFF0D2AFD2AF30
:1046B700900C80E0540FFF90043BE0FCA3E0540F04
:1046C700FBEF5B700FEC540FFD900C82E0540FFF73
:1046D700EF5D600C900462E04440F0A3E0F08007D7
:1046E700900462E054BFF0900462E0FAA3E0FB900C
:1046F7000C80E04AFFA3E04B900460CFF0A3EFF0FB
:10470700900C82E04AFFA3E04B90045ECFF0A3EF4A
:01471700F0B1
:01471800227E
:09E9B30090045EE0FEA3E0FF22E7
:09E9BC00900460E0FEA3E0FF22DC
:10D3A600900001121690FF121677540F6FFF90002F
:10D3B600021216906FFF9000031216906FFF54F042
:09D3C600C4540FFEEF540F6EFF7A
:01D3CF00223B
:10AA4B00900ADDEDF0900417E0705D900ADE121AAB
:10AA5B007B121A3D900AE2121A7B900004121A57CD
:10AA6B00900008121B8F00000000900ADDE025E02B
:10AA7B00540E444190000C75F00012181C900441C8
:10AA8B00E0FFE4FCFDFEFBFA7901F8121864E4FB2D
:10AA9B00FAEDF97402F8900AE2121A7BE4FDFC124B
:0FAAAB00198E90043D021B389004167402F0229D
:10D91B00900004121B8F00000000121B750000000A
:10D92B0000900008121B8F0000000090000CE4F523
:04D93B00F002181CC2
:0679BC00900C34121BDFE9
:1079C200900C34121BBF90000C12178DFFE5F0547F
:1079D20001FEEF54807807CEC313CE13D8F9900C72
:1079E20037F01219EDA907AA06AB05121762FF902C
:1079F2000C38E5F0F0A3EFF0900C34121BBFC0037B
:107A0200C002C001121AB3900C37E0FFE4FCFDFE85
:107A1200121849D001D002D003121A3D900C341230
:107A22001BBFE92408F9E43AFAC003C002C00112FC
:107A32001AB3900C37E0FFE4FCFDFE121849D001A6
:107A4200D002D003121A3D900C34121BBF900004D6
:107A5200121A0D900008121AD3D31219B6400A90C6
:107A62000C38E0F8E4F0E8A3F0900C34121BBF905D
:107A72000004121A0D900008121AD3C31219B6404C
:107A820009900C34121BBF12D91B900C38E0FEA3D4
:027A9200E0FF13
:017A940022CF
:08B6EB00900439E0FEA3E0FF2A
:10B6F300900E01EEF0A3EFF090045CE0FCA3E0FDFC
:10B70300EC1214607B007A40791C7846121340C017
:10B7130004C005C006C007900E02E024FFFD900E92
:10B7230001E034FFFCE4121460D003D002D001D056
:0EB7330000121237900405121A9712114622C6
:10C60400900E03EEF0A3EFF0900417E0702C90046A
:10C6140041E0FFE4FCFDFEFBFA7901F8121864E442
:10C62400FBFAEDF9E4F8900E03E0FEA3E0FFE4FC6E
:10C63400FD12198E90043D021B389004167402F00A
:01C6440022D3
:105DBF00900DCF121BDF12ECCBEF7F00C45410FEFF
:105DCF00C007C00612ED97EF75F010A454F0FDD088
:105DDF00E0FED0E04D4404FF900DCF121BBFEE8FBD
:105DEF00F01217FDE4FF12D218900DCF121BBF90C7
:105DFF000002EE8FF012181C7F0112D218900DCFF7
:105E0F00121BBF900004EE8FF012181C900409E0D3
:105E1F00FFA3E0900006CF8FF012181C900434E01F
:105E2F00FFA3E0900008CF8FF012181C90043BE006
:105E3F00FFA3E090000ACF8FF012181C900439E0F6
:105E4F00FFA3E090000CCF8FF012181C12EDD912A7
:105E5F00C8BF900DCF121BBF90000EEE8FF012181F
:105E6F001C12EC95EF70047F0180027F00EF75F03C
:105E7F0004A47E005404FFC007C00612E841EF756A
:105E8F00F002A45402FDD0E0FED0E04DFF900DCF04
:105E9F00121BBF900010EE8FF012181C90045CE0E4
:105EAF00FFA3E0900012CF8FF012181C900464E053
:105EBF00FFA3E0900014CF8FF012181C90040BE09A
:105ECF00FFA3E0900016CF8FF012181CE4FF12E52D
:105EDF00C6900DCF121BBF900020EE8FF012181C32
:105EEF007F0112E5C6900DCF121BBF900022EE8FDF
:105EFF00F012181C12EDD5900DCF121BBF9000247D
:065F0F00EE8FF002181CE9
:07EB5E009004167401F0227F
:10D07400900456E0FE90041DE0540FFDEDFFE4FC27
:10D08400FD90043D121B38900BECE0B401119004A8
:10D094003D121A7BEF4410FFEC90043D121B382222
:10D520007BFF7A0779E5AF01AE027DFF7C00900AB0
:10D53000DE121B38900AE2121B44000000087B0137
:09D540007A04791EE4FD02AA4BF5
:10D549007BFF7A0779EDAF01AE027DFF7C00900A7F
:10D55900DE121B38900AE2121B44000000067B0110
:09D569007A04791EE4FD02AA4BCC
:10D572007BFF7A0779F3AF01AE027DFF7C00900A50
:10D58200DE121B38900AE2121B44000000107B01DD
:09D592007A04791EE4FD02AA4BA3
:10C6C6007BFF7A08790312E4B2EE3395E0FDFC9025
:10C6D6000D21121B387BFF7A087903AF01AE027D6C
:10C6E600FF7C00900ADE121B38900D21121A7B90F7
:10C6F6000AE2121B387B017A04791EE4FD02AA4B7A
:10D59B007BFF7A087912AF01AE027DFF7C00900A07
:10D5AB00DE121B38900AE2121B440000000C7B01B8
:09D5BB007A04791EE4FD02AA4B7A
:10D7EF00121078AF01AE02AD037C00900ADE121B5F
:10D7FF00387B017A04791E900AE2121B4400000064
:06D80F002AE4FD02AA4B11
:10D8150012107FAF01AE02AD037C00900ADE121B31
:10D82500387B017A04791E900AE2121B440000003D
:06D835002AE4FD02AA4BEB
:10C7C600900417E0700B90043D121B440008000013
:10C7D6002212ED79EF6021900432E05480A3C41355
:08C7E6001313540164017016E5
:0FC7EE00A2AF9203C2AFC2AF12BD9CA20392AF23
:08C7FD00229004167409F022D9
:0BE8D50090042AE0FEA3E0FF02C6044E
:0BE8E000900420E0FEA3E0FF02C6044D
:10CA6600900417E0702E900422121A7B900426126E
:10CA76001A97C31219B650157B017A04791E1279DA
:10CA8600BCE4FC740BFDE490043D021B38900416D4
:0BCA96007406F0229004167402F022D7
:10961900900417E0703A12ED97EF75F010A47E00F0
:1096290054F0FFE4FC740DFDE4C004C005C006C09D
:109639000712ECCBEF7F00C45410FEE4FCFDD0030D
:10964900D002D001D00012198EEF4404FFEC8049FA
:10965900900433E054F0FFE4C4F854F0C8EFC45464
:0D9669000F48FF900DD2F012DE90EF60323E
:10967600900432E0FCA3E054F04404FF900DD3ECD8
:10968600F0A3EFF0EC5410C4540FFF12ECC5900D8C
:10969600D3E0FEA3E0FFE4FC740DFDE490043D027C
:0296A6001B386F
:0696A8009004167403F0AB
:0196AE002299
:10DF7B00900442121A7B78101219C7EF543FFF74AA
:0DDF8B0057FE90044EEEF0A3EFF002C60426
:0BE8EB00900444E0FEA3E0FF02C6041E
:10A26C009004167406F0A3E07070900446121A7BEA
:0CA27C00900442121A97C31219B6505EEB
:10A28800900442121B0312A0F5900E05EFF0900403
:10A2980042121B0312A0F5900E06EFF07F007EFC21
:10A2A8007DFF7CFF900442121A97C31219B6400929
:10A2B8007B017A04794212D91B900E06E0FFE4FC78
:10A2C800FE7410FDA804A905AA06AB07900E05E0C8
:0EA2D8007F00FEE4FD12198E90043D121B382B
:01A2E6002255
:10E17500900417E0700C900452121A7B90043D0233
:09E185001B389004167402F0220C
:104AF600E4900C85F0900417E0700B90043D121BB7
:104B0600440014010022900433E0FF900456E06054
:104B1600079004167404F022EFF4045FB50703EF60
:054B26007003024CB415
:104B2B00900432E054F0C4540F900C86F012EB1842
:104B3B00900C87121BDF900433E020E003024C1A29
:104B4B0012ED97900C87121BBF900037EF121702D4
:104B5B00900462E0FFA3E0900038CF8FF012181C96
:104B6B0090045EE0FFA3E090003ACF8FF012181C88
:104B7B00900460E0FFA3E090003CCF8FF012181C74
:104B8B00900439E0FFA3E0900024CF8FF012181CA3
:104B9B0012EDD912C8BF900C87121BBF900026EEE6
:104BAB008FF012181C900C86E024FD602B146050C3
:104BBB002403705412ED79EF7017900C87121BBF02
:104BCB00900005E41217027F0112E7DD7F0102ED71
:104BDB003D9004167409F022900C87121BBF9000B5
:104BEB000574011217027F0112E7DD7F0112ED3D03
:104BFB00E4FDFF12D37AE4FF12DB29E4FF02EE0699
:104C0B00900437E054FEF0229004167403F02290C7
:104C1B000432E0FCA3E0FD5402FFE4C313FEEF13E8
:104C2B004E6003024CBA7E00ED54047802CEC313DF
:104C3B00CE13D8F94E60028070900432E0FAA3E0F4
:104C4B00FB7E0054087803CEC313CE13D8F94E6005
:104C5B002E900442121B4400000000900446121BCD
:104C6B0044FFFFFC0090044A121B4400000000901C
:104C7B00043D121A7BEC4402FC90043D021B38EB02
:104C8B005410FFE4C4F854F0C868FEEFC4540F4846
:104C9B004E600280147E00900433E054207805CEE1
:0F4CAB00C313CE13D8F94E60069004167405F0AB
:014CBA0022D7
:0BE8F600900436E0FEA3E0FF02C60421
:10BE8000900417E07014900460E0FEA3E0FFE4FC6F
:10BE90007420FDE490043D021B38900432E4F090DD
:10BEA0000462E0FEA3E0FF900432E0FCA3E0FDEEBC
:10BEB0006CFCEF6DFDEE5CFEEF5DFF900462EEF05A
:0CBEC000A3EFF0900433E0FF12E45E22D8
:10BECC00900417E0701490045EE0FEA3E0FFE4FC25
:10BEDC007421FDE490043D021B38900432E4F09090
:10BEEC000462E0FEA3E0FF900432E0FCA3E0FDEE70
:10BEFC006CFCEF6DFDEE5CFEEF5DFF900462EEF00E
:0CBF0C00A3EFF0900433E0FF12E44922A0
:10C3A900900417E07010FF12D218E4FC7422FDE427
:10C3B90090043D021B387F0112D218900432E0FC30
:10C3C900A3E0FD4C6019D3ED94E8EC94035010C33D
:10C3D900ED9FEC9E4009900432A3E4FF02BE349025
:05C3E90004167403F0CE
:01C3EE00222C
:10B20100900417E070117F0112D218E4FC7423FD41
:10B21100E490043D021B38E4FF12D218900432E09E
:10B22100FCA3E0FD4C6018D3ED94E8EC9403500FBF
:10B23100900432A3E09FEC9E50057F0102BE349042
:10B2410004167403F07423FFFEFD7C0090043D128C
:0BB251001A97C31219B6700312E9D758
:01B25C0022CF
:07EB65007F647E0002C6047C
:07EB6C007F197E0002C604C0
:10DBF400E4FFFE7D487CC2900761121AA31211460D
:10DC0400E4FBFA79C8784212123712149902C60456
:10DC1400E4FFFE7D487CC2900769121AA3121146E4
:10DC2400E4FBFA79C8784212123712149902C60436
:10D29E00900417E0B40111900432E0541FFFA3E094
:10D2AE00900409CFF0A3EFF0900409E0FEA3E0FF95
:0CD2BE00E4FC7428FDE490043D021B38E1
:10D2CA00900417E0B40111900432E0540FFFA3E078
:10D2DA00542FA3CFF0A3EFF0900434E0FEA3E0FFB5
:0CD2EA00E4FC7429FDE490043D021B38B4
:10D2F600900417E0B40113900432E0540FFFA3E04A
:10D30600540F90043BCFF0A3EFF090043BE0FEA354
:0CD31600E0FFE4FC742AFDE4A3021B38D5
:10734600900417E060030273DB12ED79EF7072129E
:10735600E0AA900405121A971213DD6011400FE49B
:10736600900439F0A3F09004167405F0805312E0EF
:10737600AA900405121A97121142C004C005C0064D
:10738600C00790045CE0FCA3E0FDEC121460A804C6
:10739600A905AA06AB077F007E407D1C7C4612131A
:1073A60040D003D002D001D000121237E4FBFA79A4
:1073B600C0783F121146121499900439EEF0A3EFEB
:1073C600F0900439E0FEA3E0FFE4FC7430FDE490A5
:0573D600043D021B381C
:1073DB00900432E0FEA3E0FF4E7002804B90043924
:1073EB00E06E7003A3E06F604590043212B6EE902E
:1073FB000D25121B38900D25121A7B128647EF7044
:10740B0027900432E0FFA3E0900439CFF0A3EFF014
:10741B0012ED79EF7018900456E04409F090043D9A
:0E742B00121B4403300100229004167403F07B
:017439002230
:109D600012EDDD900BE1121B38900417E0701A120F
:109D7000EDD912C8BF900BDFEEF0A3EFF0E4FC7456
:109D800031FDE490043D021B381254FC900BDEEFD1
:109D9000F012EDD912C8BF900BDFEEF0A3EFF090F8
:109DA0000432E0FCA3E0FDE41214607B6F7A1279C8
:109DB00083783A12123712E08F12B2B9BFFF0790C0
:109DC00004167403F02212ED79EF7017900456E038
:109DD0004405F090043D121A7BEC4403FC90043DD2
:089DE000121B387F0112E8CAD2
:019DE8002258
:106C2600E4900C8AF0A3F0900433E05401900C8CAD
:106C3600F0900432A3E0FD5402FFE4C313EF139077
:106C46000C8DF07E00ED54087803CEC313CE13D816
:106C5600F9900C8EF012ED79EF7005900C8B04F024
:106C6600900417E0702212ED79EF70047F01800224
:106C76007F00EF75F008A47E005408FFE4FC743230
:106C8600FDE490043D021B38900C8CE06003026D1D
:106C960014900C8BE07046900C8EE06040900C8D4A
:106CA600E0704C900BECE064016002804212B6EB9F
:106CB600128647EF702530917AFF12D4A2E4FF12B4
:106CC600E553900462E054EFF0900456E04409F076
:106CD60090043D121B4403320108228012900C8B53
:106CE600E06013900C8EE0600D900C8DE0600790D4
:106CF60004167408F022900C8BE0600C900C8EE069
:106D06006006900C8DE0602B900C8DE060077D0195
:106D16007F0302E517900C8BE060187F0112D4A266
:106D26007F0112E553900456E054E6F0900462E0C9
:036D360054EFF027
:016D39002237
:10D3D00012B6EB128647EF702030911DFF12D4A2D7
:10D3E000E4FF12E553900462E054EFF012ED7FEF9A
:0AD3F0006007900456E04401F022AB
:10D70500900462E04EFEA3E04FFF900462EEF0A3AA
:10D71500EFF0900460E04EF0A3E04FF090045EE07F
:07D725004EF0A3E04FF022DB
:0DE7FB0012C786EF60077F307E0012D70541
:01E8080022ED
:10A4CD00900417E06401702CFE900433E05404787E
:10A4DD0002CEC313CE13D8F94E70047F0180027FD4
:10A4ED000012E57A900433E05402FFE4C313EF1336
:10A4FD00FF12ECA712EC95EF70047F0180027F0034
:10A50D00EF75F004A47E005404FFE4FC7433FDE405
:10A51D00C004C005C006C00712E841EF75F002A4E3
:10A52D007E005402FFE4FCFDD003D002D001D00028
:09A53D0012198E90043D021B3836
:10CDED009007FDE493FF900800E493FE9007E4E4C0
:10CDFD0093FD30E2037F0022ED20E312EF644660E5
:10CE0D000DEFB4300CEE64486004EEB44E037F01B8
:03CE1D00227F0071
:01CE200022EF
:0687B000900A96121B382E
:1087B60090044B121A87900A9E121B3890045F127F
:1087C6001A87900A96121A97121142900A9E121A46
:1087D60097121340900A9A121B38E4FFFEFDFC9094
:1087E6000A9A121A971213DD5016900A9A121A7BD9
:1087F600E4FBFA798078BF121237900A9A121B3876
:10880600900A9A121A7B121499900AA2EEF0A3EF1C
:10881600F0900A9A121A7BC004C005C006C00790E1
:108826000AA2E0FCA3E0FDE4121460A804A905AACC
:1088360006AB07D007D006D005D004121142900A25
:108846009A121B387F177EB77DD17C38900A9A1210
:0C8856001A971213DD50037F01227F00EF
:0188620022F3
:10BC1500900417E0701490045CE0FEA3E0FFE4FCE0
:10BC25007434FDE490043D021B3812CDEDEF60073E
:10BC35009004167402F02212ED79EF601B90043225
:10BC4500E0FEA3E0FF4E600990045CEEF0A3EFF088
:0FBC5500229004167403F0229004167409F02252
:10804D00900417E07014900464E0FEA3E0FFE4FCDC
:10805D007435FDE490043D02810A12CDEDEF604FC1
:10806D0090040BE0FCA3E0FDE41214607B007A4069
:10807D00791C7846121340C004C005C006C0079095
:10808D000432E0FCA3E0FDE4121460D003D002D072
:10809D0001D000121146900D29121B38900D291296
:0F80AD001A7B1287B0EF70079004167403F0224D
:1080BC0012ED79EF604B900432E0FFA3E090046482
:1080CC00CFF0A3EFF090040BE0FCA3E0FDE412145E
:1080DC00607B007A40791C7846121340C004C005BE
:1080EC00C006C007900464E0FCA3E0FDE412146039
:1080FC00D003D002D001D000121146900405021B0F
:08810C00389004167409F022FA
:10836000900417E0701490040BE0FEA3E0FFE4FC1F
:108370007436FDE490043D02841612CDEDEF604F9B
:10838000900432E0FCA3E0FDE41214607B007A402C
:10839000791C7846121340C004C005C006C007907F
:1083A0000464E0FCA3E0FDE4121460D003D002D02A
:1083B00001D000121146900D2D121B38900D2D1278
:0F83C0001A7B1287B0EF70079004167403F02237
:1083CF0012ED79EF6044900432E0FCA3E0FD9004DD
:1083DF000BECF0A3EDF0E41214607B007A40791CF3
:1083EF007846121340C004C005C006C0079004644D
:1083FF00E0FCA3E0FDE4121460D003D002D001D062
:10840F0000121146900405021B389004167409F0EF
:01841F00223A
:10A2E70012B6EB900D31121B38900D31121A97C030
:10A2F70000C001C002C00312EDD5AC06AD07EC12D9
:10A3070014607B007A2479747849121340D003D003
:10A3170002D001D000121146900D31121B38900D5A
:10A3270031121A7B7B177AB7795178381211469018
:10A337000D31121B38E4FFFEFDFC900D31121A9708
:10A347001213DD500A900D31121B440000000090DB
:0BA357000D31121A7B12149902C6048B
:1089130012B6EB900D35121B38900D35121A97C015
:1089230000C001C002C00312EDD5AC06AD07EC12C6
:1089330014607B007A2479747849121340D003D0F1
:1089430002D001D000121146900D35121B38900D44
:1089530035121A7B7B177AB7795178381211469002
:108963000D35121B38E4FFFEFDFC900D35121A97EE
:108973001213DD900D355009121B440000000080D6
:1089830030121A7B121499AD07AC06E4121460A8D6
:1089930004A905AA06AB07900D35121A7B121142E2
:1089A3007B007A40791C7846121237900D35121BE2
:0D89B30038900D35121A7B12149902C6047B
:10E32B0012ED79EF60077FA87EE412C60412EDDDD3
:06E33B0012C8BF02C60477
:10E473007F0212E21DE4FBFA79C8784212123712C6
:05E48300149902C6041B
:0DE84E00900520E493FE740193FF02C604C0
:10E2340012EBAB1219ED7B0A7AD779A3783B121152
:07E244004612C8BF02C60428
:100CE60012EBAB900004121A0D7B0A7AD779A3781F
:0A0CF6003B12114612C8BF02C604EB
:0CE88F0012EB9D1219ED12149902C60440
:10C3EF0012EB9D1219ED121499AD07AC06EC121455
:10C3FF0060C004C005C006C00712EB9D1219EDD036
:10C40F0003D002D001D0001211427B007A40791C78
:10C41F007846121237E4FBFAF9783F1211461214DC
:04C42F009902C604A4
:0FE7650012EB9D900004121A0D12149902C604B3
:10C0460012EB9D900004121A0D121499AD07AC065E
:10C05600EC121460C004C005C006C00712EB9D9028
:10C066000004121A0DD003D002D001D000121142E2
:10C076007B007A40791C7846121237E4FBFAF9788D
:0AC086003F12114612149902C6047D
:07EB73007F017E0002C604D1
:10BF180012C2469003F7EEF0A3EFF07F1012E21D75
:10BF2800E4FBFA792078411212371214999003F938
