:0747CF00440AA3000186A0CB
:10DDAF00EF700690078A938001E4900AA2F0900723
:10DDBF008B121A87900AA7121B3890078F121A8797
:10DDCF00900AAB121B38900793121A87900AAF0272
:02DDDF001B38EF
:07FB3D00900AA7121A7B22B7
:06FC8D00900AA7021B38DB
:07FB4400900AAB121A7B22AC
:06FC9300900AAB021B38D1
:07FB4B00900AAF121A7B22A1
:06FC9900900AAF021B38C7
:10E81400900AA2EFF0BF011C12FB607F007E007D16
:10E82400007C0012FE2712FB677F007E007D007CC7
:05E834000012FE272286
:06FC9F00900AA2E0FF2222
:108C3900900AA2E064017003028D007F0612F20718
:108C49009009D9121B38E4FFFE7D207CC29009D916
:108C5900121A97121146900AA7121A9712123790F0
:108C690009E9121B38E4FFFE7D207CC29009D91264
:108C79001A97121146900AAB121A971212379009D5
:108C8900ED121B387F0212F2079009DD121B38E43E
:108C9900FFFE7D487CC29009DD121A971211469099
:108CA9000AAF121A971212379009E9121A9712117C
:108CB900469009E1121B38E4FFFE7D487CC2900909
:108CC900DD121A97121146900AAF121A971212372B
:108CD9009009ED121A971211469009E5121B3812E4
:108CE900FB609009E1121A7B12FE2712FB679009BB
:078CF900E5121A7B12FE27B1
:018D00002250
:0747D600440D76000186A0EE
:10F2BF0012FB1DEF700912F8E412FC9F02F6E11227
:05F2CF00F67D12E814B9
:01F2D4002217
:10F0C90012FB1DEF700912F8E412FB3D02F65B1208
:09F0D900F5EF12FC8D12F8E4229F
:10F0E20012FB1DEF700912F8E412FB4402F65B12E8
:09F0F200F5EF12FC9312F8E42280
:10F0FB0012FB1DEF700912F8E412FB4B02F65B12C8
:09F10B00F5EF12FC9912F8E42260
:0747DD00440D7A000186A0E3
:056E5700900BEBEFF0D1
:106E5C00E4900BF0F0A3F0EF7009E5EF540360033E
:106E6C007F0022900BF2E4F0A3743AF0900BEBE06D
:106E7C006011900BF2E0FFA3E0900800CFF0A3EFBD
:106E8C00F08035900C64E4F0A3743EF07B007A083B
:106E9C007D007C807F2012D8EA7A0B7BEF900C640B
:106EAC00E4F0A304F07DFF7C817F2012D8EA900BE4
:106EBC00EFE0F460037F0022900800E0FEA3E0FF07
:106ECC00900BF2E06E7003A3E06F60037F00227BF7
:106EDC00017A087904900BEC121BDFEF1FAC0670E3
:106EEC00011E4C6019900BECE475F001121BC812DA
:106EFC001677FD900BF0E48DF012173680DD900BB9
:106F0C00F0E0FEA3E0F4FFEEF4900BF0F0A3EFF052
:106F1C00900BEBE06032900BF0E0FFA3E0900802E6
:106F2C00CFF0A3EFF07D017C807F2012B4547B0165
:106F3C007A087900900B81E4F0A3743EF07D007C1C
:106F4C00807F2012A0A28033900802E0FEA3E0FF15
:106F5C00900BF0E0B50624A3E0B5071F900BEF747F
:106F6C0001F0FB7A0B79EF900B81E4F0A304F07D38
:0D6F7C00FF7C817F2012A0A27F01227F00F8
:016F890022E5
:10B94800E4FF126E57EF700590080404F0900804A5
:10B95800E06401704CA304F0900426121A87900842
:10B9680008121B3890048F121A8790080C121B3883
:10B978009004A3121A87900810121B3890044712DB
:10B988001A8790082C121B3812F9A5EF54F0FFE41F
:10B99800C4F854F0C8EFC4540F48FF900837F0803B
:0DB9A80005900837E0FF12F2A812FB3522CF
:10CA940012FBEC90082C121B387F0312F1D990087A
:10CAA40028121B3812FA1A900834EEF0A3EFF07D26
:10CAB40001E4FF12C9A17D017F0112C9A1900818E8
:10CAC400121A7B900CF5121B38E4FF12EE9E9008AC
:0FCAD4001C121A7B900CF5121B387F0102EE9E8C
:10B3DE00C2AFC2AF9008207449F090DD12E4939092
:10B3EE000821F090DD13E493900822F090DD14E430
:10B3FE0093900823F012FDD1900837EFF0E49008F7
:10B40E0004F07F01126E57900C647404F0A3E4F004
:10B41E00FB7A04FD7C807F3012D8EA7D017C00E44B
:10B42E00FF12B4547D017C02E4FF12B4547B017A06
:10B43E00047900900B817404F0A3E4F0FDFCFF127C
:06B44E00A0A275EF16221A
:07FB52007B017A0879002213
:0747E400440B95000186A0C3
:10F11400E4900B91F0A3F0900B99F0A3F012FA5045
:09F12400900B93EEF0A3EFF02232
:10D1D800900B93E0FEA3E0FF12E883C3EF9414EEF4
:10D1E8009400400B12FA50900B93EEF0A3EFF090DE
:10D1F8000B99E475F001121736D3900B9AE09463FB
:10D20800900B99E09400400DE4F0A3F0900B917519
:06D21800F001121736229E
:09F99C00900B91E0FEA3E0FF22B4
:0747EB0044056C000186A0EB
:1045C100E490087AF07B017A0579709008AD121BAE
:1045D100DF7A08797F9008AA121BDFE4900878F04F
:1045E100900878E0FFC3940240030246D0EF25E033
:1045F100FEE42400FFEE348290087DF0A3EFF0E4A6
:10460100900879F0900879E0FFC3940B40030246CB
:10461100C7EF75F02BA4FF90087EE02FFD90087D79
:10462100E035F0FC9008AA121BBFAB01900C64E4CA
:10463100F0A3742BF07F2012D8EA9008AA121BBFB6
:10464100121762FFAEF0F47002EEF460799008ADDB
:10465100121BBF121762FDD3EF9DEE95F0405E90E5
:1046610008AA121BBF900002121690642B704E9084
:104671000878E0FF9008AD121BBF900003EF1217FE
:10468100029008AA121BBF121762FF9008AD121BFD
:10469100BFE5F08FF01217FD900879E0FF9008ADAB
:1046A100121BBF900002EF12170278787C057D0182
:1046B1007B017A08797F7E007F2B12165190087951
:1046C100E004F0024605900878E004F00245E1902C
:1046D10008AD121BBF900003121690701D900002CE
:1046E10012169070157A057B78900C64F0A3742BE8
:1046F100F07D007C827F2012D8EA74FFFFFE7B01EF
:104701007A05797D900BA0E4F0A37426F0129EED5A
:1047110090057BE06E7003A3E06F6031787D7C05CE
:104721007D017BFF7A0479007E007F261216517B82
:10473100017A05797D900BA0E4F07426129EE79032
:10474100057BEEF0A3EFF090087A7401F090087AFF
:10475100E0700A900578E07002A3E0602CE4900517
:1047610078F0A3F0A3742BF07D017C827F2012B43A
:10477100547A0579787B01900B81E4F0A3742BF0D6
:104781007D007C827F2012A0A27A087B7B900C6442
:10479100E4F0A37402F07D007C847F2012D8EA90BB
:1047A100087BE0F47003A3E0F460097D017C847F61
:1047B1002012B4547E007F047D009008AD121BBF0F
:0E47C100121E3B7B017A05797D7D01020AC143
:10D8AF007A057B78900C64E4F0A37405F07D007C1E
:10D8BF00827F2012D8EA900578E0B4FF14A3E0B479
:10D8CF00FF0FA3E0B4FF0AA3E0F47003A3E0F4603A
:0BD8DF00097D017C827F2012B45422DE
:1037C200E4900840F07B017A087946900872121B57
:1037D200DF7A057974900875121BDFE490083EF0D9
:1037E20090083EE0FFC3940440030238D1EF25E085
:1037F200FEE42400FFEE3486900844F0A3EFF0E4E8
:1038020090083FF090083FE0FFC3940B400302385A
:10381200C8EF75F02CA4FF900845E02FFD900844F6
:10382200E035F0FC900872121BBFAB01900C64E40F
:10383200F0A3742CF07F2012D8EA900872121BBFFA
:10384200121762FFAEF0F47002EEF4607990087520
:10385200121BBF121762FDD3EF9DEE95F0405E90F2
:103862000872121BBF900002121690642C704E90C8
:10387200083EE0FF900875121BBF900003EF12177D
:1038820002900872121BBF121762FF900875121B7A
:10389200BFE5F08FF01217FD90083FE0FF9008752A
:1038A200121BBF900002EF12170278407C057D01C7
:1038B2007B017A0879467E007F2C12165190083FD0
:1038C200E004F002380690083EE004F00237E2908D
:1038D2000875121BBF900003121690701D90000213
:1038E20012169070157A057B40900C64F0A3742C2C
:1038F200F07D007C867F2012D8EA74FFFFFE7B01F8
:103902007A057945900BA0E4F0A37427F0129EED9E
:10391200900543E06E7003A3E06F601D78457C055F
:103922007D017B017A05797D7E007F26121651E4A6
:1039320090056BF090084004F012C078900843EFB5
:10394200F064086013E0FF6409600DEF640460082E
:1039520090056BE05406601D7B017A057945E4FD14
:10396200120AC190056BE06025900843E0B4041E82
:1039720012E337801978457C057D017B017A057950
:103982007D7E007F261216519008407401F090054A
:103992006BE0FF5406600AEF54F9F090084074019E
:1039A200F0900840E0700A900540E07002A3E060E9
:1039B20032E4900540F0A3129ED5900543EEF0A3A9
:1039C200EFF07D017C867F2012B4547B017A057969
:1039D20040900B81E4F0A3742CF07D007C867F2064
:1039E20012A0A290083E7401F090083EE0FFC3943A
:1039F200045046EF25E0FEE42400FDEE3486FC7A16
:103A0200087B41900C64E4F0A37402F07F2012D88A
:103A1200EA900841E0F47003A3E0F4601490083ED9
:103A2200E025E0FEE42401FDEE3486FC7F2012B4A2
:103A32005490083EE004F080B07E007F047D009048
:083A42000875121BBF021E3BB8
:105B4700E4900C3CF0A3F07B017A057970900C404F
:105B5700121BDFE4F5CF7A05797D1266AF7B017AF8
:105B670005797D900BA0E4F0A37426129EE89005BA
:105B77007BEEF0A3EFF0900C40121BBF12176245AB
:105B8700F070157A0C7B3C900C64F0A37402F07DE6
:105B9700007C827F2012D8EA900C3CE0F47003A3CB
:105BA700E0F4602D900C40121BBF900002740112AC
:105BB70016BDE475F0011217C5900C40121BBF12F9
:105BC7001762FFAEF0BEFF09BFFF06E4F5F012173C
:105BD700FD900C40121BBF121762FF900578E5F08D
:105BE700F0A3EFF0900002121690C3940B5003023B
:105BF7005C76900C40121BBF900002E412170290D3
:105C07000003121690900C406009121BBF9000030E
:105C1700E48008121BBF9000037401121702900C56
:105C270040121BBF90000312169025E0FEE42400EB
:105C3700FFEE3482FE900C3EF0FCA3EFF0FD7A0CF1
:105C47007B3C900C64E4F0A37402F07F2012D8EA46
:105C5700900C3CE0F47003A3E0F46013900C3FE079
:105C67002401FD900C3EE03400FC7F2012B45490D8
:105C77000C40121BBF90000312169025E0FEE4248F
:105C870000FFEE3482900C3EF0A3EFF0900002127A
:105C9700169075F02BA4FF900C3EE5F08FF01217CD
:105CA70036900C3EE0FCA3E0FD7B017A0579789005
:0D5CB7000B81E4F0A3742BF07F2002A0A26B
:10611800E4900C45F0A3F07B017A057974A3121B77
:10612800DFE4F5CF7A0579451266AF900C47121B6C
:10613800BF12176245F070157A0C7B45900C64F01D
:10614800A37402F07D007C867F2012D8EA900C456B
:10615800E0F47003A3E0F4602D900C47121BBF908D
:10616800000274011216BDE475F0011217C5900CF7
:1061780047121BBF121762FFAEF0BEFF09BFFF0632
:10618800E4F5F01217FD900C47121BBF90000212A5
:106198001690C3940B4078900002E4121702900006
:1061A8000374011216BD900003121690C3940440A4
:1061B8000D900C47121BBF900003E4121702900CBD
:1061C80047121BBF90000312169025E0FEE424003E
:1061D800FFEE3486FE900C43F0FCA3EFF0FD7A0C42
:1061E8007B45900C64E4F0A37402F07F2012D8EA97
:1061F800900C45E0F47003A3E0F46013900C44E0C5
:106208002401FD900C43E03400FC7F2012B454902C
:106218000C47121BBF121762FF900540E5F0F0A370
:10622800EF129ED5900543EEF0A3EFF0900C4712C5
:106238001BBF90000312169025E0FEE42400FFEE39
:106248003486900C43F0A3EFF0900002121690757C
:10625800F02CA4FF900C43E5F08FF0121736900C49
:1062680043E0FCA3E0FD7B017A057940900B81E4D3
:0A627800F0A3742CF07F2002A0A216
:0559C900900BF4EFF06B
:1059CE00E4A3F0A3F07B017A057974900BF9121B16
:1059DE00DF12176245F070157A0B7BF5900C64F0B0
:1059EE00A37402F07D007C867F2012D8EA900BF51E
:1059FE00E0F47003A3E0F4602D900BF9121BBF903E
:105A0E00000274011216BDE475F0011217C5900B59
:105A1E00F9121BBF121762FFAEF0BEFF09BFFF06E1
:105A2E00E4F5F01217FD900BF9121BBF121762FF6F
:105A3E00900540E5F0F0A3EFF0A3742CF090000277
:105A4E00121690C3940B5003025AD7900BF9121BE7
:105A5E00BF900002E412170290000374011216BDEB
:105A6E00900003121690C39404400D900BF9121B74
:105A7E00BF900003E4121702900BF9121BBF9000A7
:105A8E000312169025E0FEE42400FFEE3486FE900D
:105A9E000BF7F0FCA3EFF0FD7A0B7BF5900C64E4B2
:105AAE00F0A37402F07F2012D8EA900BF5E0F470A8
:105ABE0003A3E0F46013900BF8E02401FD900BF7C4
:105ACE00E03400FC7F2012B454125838EFC3940B0C
:105ADE004007900BF4E04401F0900BF4E090056B5E
:105AEE00129ED9900543EEF0A3EFF0900BF9121B26
:105AFE00BF90000312169025E0FEE42400FFEE3462
:105B0E0086900BF7F0A3EFF090000212169075F04E
:105B1E002CA4FF900BF7E5F08FF0121736900BF7D1
:105B2E00E0FCA3E0FD7B017A057940900B81E4F067
:095B3E00A3742CF07F2002A0A248
:09F9A50090057DE0FEA3E0FF22C5
:109ED500F0A3742CF07B017A057945900BA0E4F092
:089EE5007427A3F074FFFFFED7
:069EED00900B9D121BDF2B
:109EF300900BA2EEF0A3EFF0900BA074FFF5F0121D
:109F0300174C45F0605DE4F5CF900B9D75F00112A1
:109F13001BC8121677FE900BA2E06EF0A3E0F0E4EC
:109F2300A3F0900BA4E0C3940850CD900BA2E0FEE5
:109F3300A3E0FFEE30E717EF25E0FFEE336410FEFA
:109F4300EF6421FF900BA2EEF0A3EFF0800D900BD6
:109F5300A3E025E0F0900BA2E033F0900BA4E00423
:0B9F6300F080BF900BA2E0FEA3E0FF27
:019F6E0022D0
:0B47F200440004000186A041011900F2
:108233009007FFEFF07BFF7A057997900BBC121B39
:10824300DF900426121A87900BBF121B387B017A2A
:1082530000790812B7147BFF7A0579DF900BBC1203
:108263001BDF90048F121A87900BBF121B387B0100
:108273007A00793712B7147BFF7A067927900BBC03
:10828300121BDF9004A3121A87900BBF121B387BBB
:10829300017A00796612B7147BFF7A0679B7900BDF
:1082A300BC121BDF900432121A87900BBF121B38CB
:1082B3007B017A00799512B7147BFF7A06796F9068
:1082C3000BBC121BDF900436121A87900BBF121BD4
:1082D300387B017A0079C412B7149007FFE0701459
:1082E300FE7F18FD7B017A0079FB121E3BE4FF122F
:1082F300E6E0800612E66B12654F12FB60900113F5
:10830300121BDF12FB67900116121BDF9007FFE0C1
:0D831300700A900000121B440000FFFF22C2
:106BE40012FB7C900D7E121BDF12FD89900D81EF4C
:106BF400F09006D2E0600F900000121B44000000E9
:106C040000E49006D2F0900000121A7BEF5401FFCA
:106C1400E4FEFDFCFBFAF9F8C31219B67018900DE6
:106C24007E121BBF1219ED7B017A007937129C6228
:106C34009000FB121B38900000121A7BEF5402FFE5
:106C4400E4FEFDFCFBFAF9F8C31219B6701B900DB3
:106C54007E121BBF900004121A0D7B017A00796624
:106C6400129C629000FF121B38900000121A7BEFF6
:106C74005410FFE4FEFDFCFBFAF9F8C31219B670D8
:106C84001B900D7E121BBF900008121A0D7B017A17
:106C9400007908129C6290010B121B3890000012BC
:106CA4001A7BEF5404FFE4FEFDFCFBFAF9F8C3126F
:106CB40019B67066900D81E0702490053A936017C0
:106CC400900D7E121BBF90000C121A0D7B017A00EE
:106CD4007995129C62803D7F0312EDC98036900144
:106CE40003121A7BC004C005C006C007900D7E12B3
:106CF4001BBF90001C121A0D7B017A0079C4129CF0
:106D040062A804A905AA06AB07D007D006D005D00F
:0A6D140004121142900103121B3813
:016D1E002252
:10EE9E00EF75F004A47B0124FBF9740035F0FAC27F
:0CEEAE00AE900CF5121A7B121A3DD2AE89
:01EEBA002235
:10F1D900EF75F004A47B0124FBF9740035F0FAC241
:06F1E900AE1219EDD2AEDA
:01F1EF0022FD
:07FB59007B017A0079FB2219
:10C9A100900EC3EFF0ED900000601F121A97C000C7
:10C9B100C001E47F01FEFDFC900EC3E0F9F81219FD
:10C9C100DAD001D00012198E8020121A97C000C04F
:10C9D10001E47F01FEFDFC900EC3E0F9F81219DAC3
:10C9E10012199BD001D000121981900000121B383E
:01C9F1002223
:10EA5400AB07E47F01FEFDFCA8031219DA90000065
:10EA6400121A97121981EC4D4E4F60037F01227FD9
:02EA740000227E
:10EEBB00EFC394055010EF75F02FA42408F97400DC
:0DEECB0035F0FA7B01227B007A00790022ED
:07FB60007B017A00793722D6
:07FB67007B017A00796622A0
:05947500900EA7EFF0CE
:10947A00E4A3F0EFC394004009900EA7E0FE940520
:10948A0040037F0022EE14601D14602A1460371412
:10949A006044240470557F0412EA54EF70047F017B
:1094AA0080427F00803EE4FF12EA54EF70047F019D
:1094BA0080027F00802E7F0112EA54EF70047F0140
:1094CA0080027F00801E7F0212EA54EF70047F013F
:1094DA0080027F00800E7F0212EA54EF70047F013F
:1094EA0080027F00900EA8EFF08005E4900EA8F0AD
:1094FA00900EA8E06026900EA7E0FEC394054003F4
:10950A007F0022EEB4030A90053AE49370037F01C8
:0E951A0022900EA7E0FF12EEBB02E1A77F0039
:019528002220
:10EDC900EFC394004005EF9405400D900119E0440C
:0FEDD90002F0E4FFFEFDFC2212EEBB12FDE3226E
:10C80700900CF9EFF0C394004006E0FD9405400852
:10C81700900119E04402F022ED702790042A121AC1
:10C8270087900B73121B3890042E121A87900B7780
:10C83700121B38900CFA121A7B12CFE2900CFA12E4
:10C847001B38900CF9E0FF12EEBBA3121A7B12EF14
:02C857002F228E
:10DFD000900E4A121BDF900000121A7B9000041270
:10DFE0001A57900E4A121BBFE92408F9E43AA80117
:10DFF000FCAD037B017A0079FB7E007F180216518D
:10E66B0012F9E4AA06A9077B01900000121B4400D3
:10E67B00000003E92408F9E43AFA78FB7C007D01F9
:07E68B007E007F180216510A
:06680500900BA5121BDF41
:10680B00E4900BA8F0900BA5121BBFE92420F9E430
:10681B003AFA900BA8E075F026A429F9EA35F0FABC
:10682B00A3121BDF900BA8E075F02FA42408F974BA
:10683B000035F0FA7B01900BAC121BDF1219ED90B7
:10684B000BA9121BBF121A3D900BAC121BBF900071
:10685B0004121A0D900BA9121BBF900004121A57A9
:10686B00900BAC121BBF900008121A0D900BA912C3
:10687B001BBF900008121A57900BAC121BBF900055
:10688B000C121A0D900BA9121BBF90000C121A5769
:10689B00900BAC121BBF900010121A0D900BA9128B
:1068AB001BBF900010121A57900BAC121BBF90001D
:1068BB0014121A0D900BA9121BBF900014121A5729
:1068CB00900BAC121BBF900018121A0D900BA91253
:1068DB001BBF900018121A57900BAC121BBF9000E5
:1068EB001C121A0D900BA9121BBF90001C121A57E9
:1068FB00900BAC121BBF900029121690FF900BA9A6
:10690B00121BBF900020EF121702900BAC121BBF93
:10691B0090002A121690FF900BA9121BBF9000211A
:10692B00EF121702900BAC121BBF90002B121A0D1B
:10693B00900BA9121BBF900022121A57900BA8E0C4
:0A694B0004F0E06405600302681028
:01695500221F
:10654F0012F9E4AA06A9077B01900BB6121BDFE430
:10655F00900BAFF0900BB6121BBFE92420F9E43A71
:10656F00FA900BAFE075F026A429F9EA35F0FAA3FB
:10657F00121BDF900BAFE075F02FA42408F9740005
:10658F0035F0FA7B01900BB3121BDF900BB0121B8F
:10659F00BF1219ED900BB3121BBF121A3D900BB027
:1065AF00121BBF900004121A0D900BB3121BBF9059
:1065BF000004121A57900BB0121BBF900008121A4A
:1065CF000D900BB3121BBF900008121A57900BB00F
:1065DF00121BBF90000C121A0D900BB3121BBF9021
:1065EF00000C121A57900BB0121BBF900010121A0A
:1065FF000D900BB3121BBF900010121A57900BB0D7
:10660F00121BBF900014121A0D900BB3121BBF90E8
:10661F000014121A57900BB0121BBF900018121AC9
:10662F000D900BB3121BBF900018121A57900BB09E
:10663F00121BBF90001C121A0D900BB3121BBF90B0
:10664F00001C121A57900BB0121BBF90002012168D
:10665F0090FF900BB3121BBF900029EF12170290FF
:10666F000BB0121BBF900021121690FF900BB312AC
:10667F001BBF90002AEF121702900BB0121BBF9096
:10668F000022121A0D900BB3121BBF90002B121A7F
:0F669F0057900BAFE004F0E06405600302656301
:0166AE0022C9
:0747FD00440D86000186A0B7
:10DDE10012F67D900EC4EFF012FB1DEF14700E12AF
:10DDF100F8E4900EC4E0FF12F1D902F65B12F5EFE0
:10DE0100900CF5121B38900EC4E0FF12EE9E12F832
:01DE1100E42C
:01DE120022ED
:10E11D0012F67D900EC5EFF012FB1DEF14700E126E
:10E12D00F8E4900EC5E0FF12EA5402F6E112F67D16
:0DE13D00AD07900EC5E0FF12C9A112F8E475
:01E14A0022B2
:10E8390012FB1DEFC394015005E4FF02F87F12FD9E
:10E84900FB900EC6EFF012F8E4900EC6E0FF1294AA
:04E859007512FE2D09
:01E85D002298
:10D7BC0012FDFB900CFEEFF012FB1DEFD394014019
:10D7CC001D12F5EF900CFF121B38900CFF121A7BF8
:10D7DC00900CFA121B38900CFEE0FF02C80712F8EE
:0CD7EC00E4900CFEE0FF12EDC912F65BA9
:01D7F800220E
:10CEBE0012FB6E900E4D121BDF900E4D121BBFE932
:10CECE004A4B70057F0102F87F12FB1DEFD39401D0
:10CEDE00400C12F5EF900E4D121BBF02FE2712F8FA
:10CEEE00E4900E4D121BBF12FDE712F65B7F007E23
:08CEFE00007D007C0012F65BD0
:01CF06002208
:10E5530012FB6E900E50121BDF900E50121BBFE980
:10E563004A4B7004FF02F87F12F8E4900E50121B1E
:07E57300BF12FDEB12F65B85
:01E57A00227E
:10E57B0012FB6E900E53121BDF900E53121BBFE952
:10E58B004A4B7004FF02F87F12F8E4900E53121BF3
:07E59B00BF12FDEF12F65B59
:01E5A2002256
:10E5A30012FB6E900E56121BDF900E56121BBFE924
:10E5B3004A4B7004FF02F87F12F8E4900E56121BC8
:07E5C300BF12FB0D12FE2D3B
:01E5CA00222E
:10E5CB0012FB6E900E59121BDF900E59121BBFE9F6
:10E5DB004A4B7004FF02F87F12F8E4900E59121B9D
:07E5EB00BF12FDF312F65B05
:01E5F2002206
:07FB6E0012FDFB12EEBB22A9
:10BC9E0012FB1D900D84E4F0A3EFF012FB1DEF14C8
:10BCAE0014702812FDFB900D83EFF012F8E4900D46
:10BCBE0083E0B4030E12FD89EF70047F0380097FC9
:10BCCE00048005900D83E0FF02FE2D12FDFB900D0A
:10BCDE0082EFF012FDFB900D83EFF012F8E4900D61
:10BCEE0083E0B40310900D82E0B40304E4FF8002FD
:05BCFE007F0112E6E0E9
:01BD0300221D
:10D02B00E490021FF07B017A0279327C027D36900C
:10D03B000C6B7406F0A37410F012DA117B017A02F8
:10D04B0079347C027D96900C6B7404F0A37410F011
:10D05B0012DA117B017A0279207C027D22900C6B13
:08D06B007404F0A3F002DA11D5
:10EFBE007B017A02792012EBA88F828E83E4F0A374
:0AEFCE00F08F828E83A3A3F0A3F05E
:01EFD8002216
:08AA3500900D8AEEF0A3EFF092
:10AA3D00F5828E83E0FEA3E0FF4E600312D5C99030
:10AA4D000D8AE0FEA3E0FFF5828E83A3A3E0FCA3B5
:10AA5D00E04C60468F828E83A3A3E0FCA3E0FD90C3
:10AA6D000D8CECF0FAA3EDF0FB2404F582E43CF53B
:10AA7D0083E0FDA3E08F828E83A3A3CDF0A3EDF041
:10AA8D008B828A8312D5C27B017A027932900D8C2A
:10AA9D00E0FCA3E0FD12F32D80A57B017A02792065
:0BAAAD00900D8AE0FCA3E0FD02F32DF9
:10D2A800900CACEEF0A3EFF0900CB0EAF0A3EBF02A
:08D2B800900CAEECF0A3EDF0C8
:10D2C000900CACE0FEA3E0FF12E25DEF4E70119017
:10D2D0000CACE0FEA3E0FFA3E0FCA3E0FD12925340
:0BD2E000900CB0E0FCA3E0FD02A009F0
:08695600900BFCEEF0A3EFF042
:10695E00900BFCE0FEA3E0FFF5828E83A3A3E0FD87
:10696E00A3E0900BFECDF0A3EDF08F828E83E0FEC0
:10697E00A3E0FF4E604B8F828E83E0FEA3E0AA065B
:10698E00F9121D4C900BFCE0FEA3E0FFF5828E8306
:10699E00E0FCA3E0FD900C02ECF0A3EDF0F5828C90
:1069AE0083A3A3E0FDA3E08F828E83CDF0A3EDF051
:1069BE007B017A027934900C02E0FCA3E0FD02F335
:1069CE002D900BFEE0FEA3E0FF4E7003026A9C8F3B
:1069DE00828E83A3A3E0FEA3E04E7008900BFEE030
:1069EE00FEA38050900BFEE0FEA3E0F5828E83E0C6
:1069FE00FEA3E0AA06F9121D4CEF64017072900B13
:106A0E00FEE0FEA3E0F5828E83A3A3E0FEA3E0FFEB
:106A1E00900BFCE0FCA3E0FDF5828C83EEF0A3EF7F
:106A2E00F08D828C83E0FEA3E04E7032900BFEE080
:106A3E00FEA3E0FFA3EEF0FCA3EFF0FD2404F5822D
:106A4E00E43EF583E0FFA3E0900BFECFF0A3EFF062
:106A5E00900BFCE0FEA3E0FF128E900269CF900B2C
:106A6E00FEE0FEA3E0F5828E83A3A3E4F0A3F02262
:106A7E00900BFEE0FEA3E02404F582E43EF583E0F5
:0E6A8E00FFA3E0900BFECFF0A3EFF00269CF64
:016A9C0022D7
:04E25D008F828E839B
:10E26100A3A3801CEF4E601F8F828E83E0FAA3E090
:10E271006D7002EA6C6010EF2404F582E43EF583D0
:07E28100E0FEA3E0FF80DDD9
:01E288002273
:10925300900CB4ECF0A3EDF0900CB2EEF0A3EFF0B1
:10926300E4FDFC8F828E83A3A3E0FFA3E0900CB602
:10927300CFF0A3EFF07B017A02793212EBA8AC06B0
:10928300AD07ED4C700990021F04F0E4FEFF22EDE0
:109293002404F582E43CF583E4F0A3F08D828C830F
:1092A300A3A3F0A3F0900CB4E0FFA3E08D828C8322
:1092B300CFF0A3EFF0900CB6E07002A3E0700F9034
:1092C3000CB2E0FEA3E0F5828E83A3A38030900C62
:1092D300B6E0FEA3E02404F582E43EF583E0FEA3BA
:1092E300E0FF4E600A900CB6EEF0A3EFF080DF9043
:1092F3000CB6E0FEA3E02404F582E43EF583ECF033
:07930300A3EDF0AE04AF057D
:01930A002240
:108E9000900D90ECF0A3EDF0900D8EEEF0A3EFF0BE
:108EA000F5828E83A3A3E0FEA3E0FF900D90E0B5D2
:108EB0000627A3E0B50722EF2404F582E43EF583FC
:108EC000E0FEA3E0FF900D8EE0FCA3E0F5828C8332
:108ED000A3A3EEF0A3EFF0805CEF4E6058EF240404
:108EE000F582E43EF583E0FCA3E0FD900D90E0FA0E
:108EF000A3E0FBEDB5032EECB5022AEF2404F582C6
:108F0000E43EF583E0FCA3E02404F582E43CF58331
:108F1000E0FCA3E0FDEF2404F582E43EF583ECF0F1
:108F2000A3EDF08010EF2404F582E43EF583E0FE2B
:108F3000A3E0FF80A4900D90E0FEA3E0F5828E8375
:108F400012D5C27B017A027932900D90E0FCA3E049
:048F5000FD02F32DFE
:0EA00900900CB8EEF0A3EFF0A3ECF0A3EDF096
:10A01700E4FFFE7B017A02793412EBA8EF4E700958
:10A0270090021F04F0E4FEFF228F828E83A3A3E435
:10A03700F0A3F0900CBAE0FDA3E08F828E83CDF001
:10A04700A3EDF0900CB8E0FCA3E0FD4C604C8D82D2
:10A057008C83A3A3E0FCA3E0FD900CBCECF0A3ED84
:10A06700F04C7005900CB88022900CBCE0FCA3E08B
:10A07700F5828C83A3A3E0FCA3E0FD4C600A900C5F
:10A08700BCECF0A3EDF080E1900CBCE0FCA3E0F5A4
:0AA09700828C83A3A3EEF0A3EFF088
:01A0A100229C
:07D5C200A3A3E0FEA3E0FFBC
:08D5C900900D92EEF0A3EFF0CB
:10D5D100900D92E0FEA3E0FF4E6025A3EEF0FCA3C8
:10D5E100EFF0FDF5828E83A3A3E0FFA3E0900D92FF
:10D5F100CFF0A3EFF07B017A02793412F32D80D0C2
:01D601002206
:10EF8600900E5C121BDFED1216F012FDA7900E5CC0
:0CEF9600121BBF900001E48FF002181C59
:06C85900900E5F121BDFD0
:10C85F0012FDA7900E5F121BBF90000112178DFEE5
:10C86F00C3EF9EFE121677FD6027EED39D40099011
:10C87F000E5F121BBFE48016EFFD900E5F121BBF01
:10C88F00900001E48DF012181C121677C39E121639
:0BC89F00F0900E5F121BBF121677FF17
:01C8AA00226B
:10040000000403E800B0103F000F0D0D0001054689
:10041000000201F400BF0BB800000014000000004F
:100420000064005A000042480000C120000042A0C1
:100430000000428C00003CF5C28F004342000000E7
:1004400000000041A0000043340000BD4CCCCD3C76
:10045000F5C28F3F00000041A000000000000043F3
:100460003F4CCD43440CCD40A0000241B333340097
:1004700000000043D48000C1A0000041A000004360
:1004800005D238441C78D7B73A5B1432A90F8C4296
:10049000AA0000430A662A441EB816B765BE1F327A
:1004A0007BF48542AA00000000000000000000422A
:1004B0006E976C3DA1AB423C16F76AB99A975842C9
:1004C0003400003D354B163AC478403994334244E9
:1004D0007A00004341E6663C2E1DAABA03CCFFB861
:1004E00027C5AC381F62303A378034B851B717345B
:1004F000D6BF9534D6BF953F800000003F800000F6
:1005000040400000001442480000C47A00003B0351
:10051000126F4602340003E83B449BA63951B717DB
:10052000177038D1B717437A000038D1B717437A1C
:1005300000003B03126FC37A00000043AF00003D90
:10054000CCCCCD3F800000431600004775A6003D8F
:100550001F70F13ECCCCCD42480000437A00000031
:100560000000003D8F5C29437A0000000000003D40
:100570008F5C293F970A3D00000000C0100000403A
:100580001000004660740000000000C628EB3346EF
:10059000CCCC0046CCCC003D4CCCCD00000000BF04
:1005A000C000003FC0000038FBA8823DCCCCCD3C51
:1005B000A3D70A00000000BFC000003FC000003900
:1005C00051B7173DCCCCCD3C23D70A3F99999A3FE0
:1005D000C000003F0000003F99999A41A00000B977
:1005E00051B717BA83126F000000003D8F5C29B726
:1005F000FBA8823DCCCCCDB951B717B851B7170085
:100600000000003D8F5C29B7A7C5AC3DCCCCCD3CEC
:1006100023D70A3F99999A40000000000000003F4C
:1006200099999A42700000B951B717BA83126F00B6
:100630000000003D8F5C29B7FBA8823DCCCCCDB932
:1006400051B717B851B717000000003D8F5C29B7AC
:10065000A7C5AC3DCCCCCD3C23D70A3F99999A4055
:10066000000000000000003F99999A427000003B92
:10067000C49BA63C23D70ABF8000003F8000003403
:1006800056BF953DCCCCCD3B449BA63D4CCCCDBF7D
:100690008000003F80000033D6BF953DCCCCCD3BE1
:1006A00003126F3F99999A3DCCCCCD3D4CCCCD3FB8
:1006B00099999A41A00000B951B7170000000000B5
:1006C0000000003D8F5C29B727C5AC3DCCCCCDB830
:1006D000D1B71700000000000000003D8F5C29B773
:1006E00027C5AC3DCCCCCD3F0000003F99999A4046
:1006F0000000003DCCCCCD3F99999A427000000A91
:1007000000C900C6009E0061002600030007002FFC
:10071000006C00A7000004B3079B079B04B3000014
:10072000FB4DF865F865FB4D07FF06780279FD87FC
:10073000F988F801F988FD870279067800B332223A
:100740008585FFFF013AC49BA63C23D70A3E4CCCCB
:10075000CD3E4CCCCD0000000043D48000C2480008
:100760000042C8000041F00000428C0000C2480076
:1007700000430C0000C2480000430C0000033E4C44
:10078000CCCD45D4800043A28000010000000000D1
:10079000000000000000003F800000B8D1B7173B08
:1007A00003126F4475616C207549544C41205454B8
:1007B00058330000000000000000000000000000AE
:1007C0000000005043423A20363232323534205253
:1007D00065762041000000000000000000000000DD
:1007E00000000000004357207549544C414E454FCE
:1007F0000000005454583139393537353930304ECE
:100800004830004352544D2D3030302D3030303090
:10081000300030312D4155472D32303134004857AA
:1008200020332E302E30004153204331004F5420CE
:10083000312E302E3000485720332E302E300041DC
:1008400053204331004F5420312E302E3000000110
:100850003F8000003F800000424800003E99999A86
:07480400440D96000186A09F
:10480B004406E9000186A04206E700004106D200FB
:109BC300900EC7EFF09006B8121B4400000000E4AB
:109BD30090070BF09006BCF0A3F09006F1121B4423
:109BE300000000009006F5121B44000000009007DF
:109BF300E4E493FB30E00C9006B4121B4445E87E8A
:109C0300BC8017EB9006B430E409121B4446048B66
:109C13007D8007121B4445C6D1639007E4E493306B
:109C2300E1159006B4121A7BE4FBFAF9784012129C
:109C3300379006B4121B38900EC7E0701E9006E7EB
:109C4300F0A3F0FE7F12FD7B017A0679F9121E3B29
:0F9C5300900701747FF0A374FFF0221297E522AF
:103004009006E7E0FEA3E0FF4E602CEF64014E70F3
:103014001CFD7F07128F54E4FD7F03128F5490062A
:10302400D27401F0900C82F0A280B392809006E7F3
:1030340074FFF5F01217369006B8121A7BEF54801D
:10304400FFE4FEFDFCFBFAF9F8C31219B6600302B3
:103054003124FF12F1D9C004C005C006C007900591
:103064005F121A87900B73121B38900563121A872C
:10307400900B77121B38D007D006D005D00412CF9E
:10308400E2900A6B121B38900A6B121A7B90055B54
:10309400121AA31212377BF37A43794A784D12122B
:1030A4003712973D121499900707EEF0A3EFF090B2
:1030B40006F1121A97900707E0FEA3E0FFE4FCFD77
:1030C4001218499006F1121B389006F1121A7BC0AF
:1030D40006C0079006BCE025E024BEF582E4340671
:1030E400F583E0FEA3E0FBAA06E4F9F8D007D006D6
:1030F4001218569006F1121B38900707E0FEA3E061
:10310400FF9006BCE025E024BEF582E43406F58396
:10311400EEF0A3EFF09006BCE004F0B40A02E4F091
:103124009006B8121A7BEF5408FFE4FEFDFCFBFA8C
:10313400F9F8C31219B6600302320E7F0112F1D9F5
:10314400C004C005C006C00790056B121A87900B17
:1031540073121B3890056F121A87900B77121B3865
:10316400D007D006D005D00412CFE2900A6B121B10
:1031740038900A6B121A7B900567121AA312123741
:103184007BF37A43794A784D12123712973D121421
:10319400999006FFEEF0A3EFF09006F5121A9790BF
:1031A40006FFE0FEA3E0FFE4FCFD1218499006F5DB
:1031B400121B389006F5121A7BC006C0079006BD94
:1031C400E025E024D3F582E43406F583E0FEA3E0B1
:1031D400FBAA06E4F9F8D007D0061218569006F5B3
:1031E400121B389006FFE0FEA3E0FF9006BDE02529
:1031F400E024D3F582E43406F583EEF0A3EFF090F7
:1032040006BDE004F0B40A02E4F09006B8121A7B9A
:10321400EF5410FFE4FEFDFCFBFAF9F8C31219B6F3
:1032240070697F0412F1D9C004C005C006C00790BC
:10323400057B121A87900B73121B3890057F121AA4
:1032440087900B77121B38D007D006D005D0041214
:10325400CFE212144A900A67121B38900583121A9F
:1032640087121499AD07AC06EC121460900A671229
:103274001A971212377B007AFE79FF7846121146AC
:10328400121499900701EEF0A3EFF07F0212F1D926
:10329400900A6F121B389006B8121A7BEF5402FF83
:1032A400E4FEFDFCFBFAF9F8C31219B6600302331D
:1032B4007890053A93605190055F121A87900B73CA
:1032C400121B38900563121A87900B77121B3890E3
:1032D4000A6F121A7B12CFE2900A6B121B38900A03
:1032E4006B121A7B90055B121AA31212377BF37AC6
:1032F40043794A784D12123712973D121499AD074B
:10330400AC06E4121460803E7F0212F207C004C0CF
:1033140005C006C007900577121AA3900A6F121A07
:103324007B121142D003D002D001D000121142907E
:103334000573121AA312134012973D7B007ACC79BD
:103344004C7846121237900A73121B38900B731282
:103354001B4400000000900B77121B44477FFF00C2
:10336400900A73121A7B12CFE21214999006FBEEA4
:10337400F0A3EFF07F0312F1D97B007A24797478FB
:1033840049121237121499900A77121B38900A774F
:10339400121A7BEC12145BC004C005C006C007906F
:1033A4000B73121B44000000007F007EFF7D7F7CB6
:1033B400479006B4121A97121237900B77121B38E3
:1033C400D007D006D005D00412CFE2121499900A87
:1033D40077121B38900A77121A7BEC12145B7B6FFE
:1033E4007A127983783A1213DD5033900A77121ADD
:1033F40097C000C001C002C0037F007E247D747C9E
:1034040049900587121AA3121237121499D003D0C7
:1034140002D001D000121849900A77121B38900686
:10342400B8121A7BEF5420FFE4FEFDFCFBFAF9F816
:10343400C31219B6701E900A77121A7BEC12145B31
:103444009006B4121A97121340121499900703EEBF
:10345400F0A3EFF09006B8121A7BEF5401FFE4FEDC
:10346400FDFCFBFAF9F8C31219B6701A9007E4933D
:103474009006F930E40974D4F0A3747AF0800774E8
:10348400B8F0A37451F09006B8121A7BEF5440FFC1
:10349400E4FEFDFCFBFAF9F8C31219B6701A9007A2
:1034A400E49390070530E409742BF0A37485F0804D
:1034B400077447F0A374AEF09006B8121A7BEF5469
:1034C40004FFE4FEFDFCFBFAF9F8C31219B6700A16
:0A34D4009006FD743BF0A37430F085
:0134DE0022CB
:07FB75007B017A0679F922F9
:10EED800900EC8EFF0AF057B017A0679F9E075F07E
:0DEEE80002A4F58285F083EC8FF002181C67
:10F1F0007B017A0679F975F002EFA4F58285F08338
:07F2000012178DFFAEF02292
:108F5400900EC9EFF0ED9006B8B4011F121A97C035
:108F640000C001E47F01FEFDFC900EC9E0F9F81297
:108F740019DAD001D00012198E8020121A97C0007D
:108F8400C001E47F01FEFDFC900EC9E0F9F812195E
:108F9400DA12199BD001D0001219819006B8121B65
:108FA400389006ED121B44000000009006ED121AE2
:108FB40097C000C001E47F01FEFDFC900EC9E0F9FA
:108FC400F81219DAD001D00012198E9006ED121B96
:108FD400389006ED121A7BEE4408FEEC9006ED1272
:108FE4001B389006ED121B44000000009006ED12A1
:108FF4001A97C000C001E47F01FEFDFC900EC9E099
:109004002419F9F81219DAD001D00012198E900639
:04901400ED021B3816
:10EA7600AB07E47F01FEFDFCA8031219DA9006B885
:10EA8600121A97121981EC4D4E4F60037F01227FB7
:02EA960000225C
:10E8A800900E62121BDF900E62121BBFE924DEF984
:10E8B800E43AA801FCAD037B017A0679F97E007F72
:04E8C80012021651D1
:1097E50012F9E4AA06A9077B01E924DEF9E43AFAAD
:1097F50078F97C067D017E007F121216519006E7EE
:10980500E4F0A3740AF07F0712F1F0AC06AD0790FF
:10981500096AE0FF12B8007F0312F1F0AC06AD074C
:1098250090096BE0FF12B8007F0512F1F0AC06ADB0
:1098350007900983E0FF12B8007F0612F1F0AC062D
:10984500AD07900972E0FF12B800E4FF12F1F0AC29
:1098550006AD07900971E0FF12B8007F0112F1F023
:10986500AC06AD07900966E0FF12B8007F0212F161
:10987500F0AC06AD07900967E0FF12B8007D017FE7
:0B98850007128F547D017F03028F54F7
:10E0000012F67D900ECAEFF012FB1DEF14700E1287
:10E01000F8E4900ECAE0FF12F1F002FE3012FDFFAC
:0FE02000AC06AD07900ECAE0FF12EED812F8E47E
:01E02F0022CE
:10E14B0012F67D900ECBEFF012FB1DEF14700E123A
:10E15B00F8E4900ECBE0FF12EA7602F6E112F67DC0
:0DE16B00AD07900ECBE0FF128F5412F8E4C8
:01E178002284
:07481B00440409000186A01E
:10E8CC00AB079003F9121B4400000000EB700FFE25
:10E8DC007F50FD7B017A04790D121E3B800312EFF1
:04E8EC0012029890EC
:10989000E4FBFA7980784B90053B121A871213404B
:1098A000900522121AA3121340900526121AA31231
:1098B00013409003FD121B38900522121AA3E4FFF7
:1098C000FE7D807CBF121340E4FBFA79C878411218
:1098D000114690045D121B38E4FBFA7980784B90B6
:1098E000053B121A8712134090052A121AA312136D
:1098F0004090052E121AA3121340900401121B3837
:1099000090052A121AA3E4FFFE7D807CBF1213404B
:10991000E4FBFA79C87841121146900461121B38B1
:10992000900532121A87900405121B3890053612E2
:089930001A87900465021B3840
:101F070012FC4E900B10121BDF9003F9121A7BEF95
:101F17005401FFE4FEFDFCFBFAF9F8C31219B67091
:101F270020FF12F52FE412145B9003FD121A97128B
:101F3700123790045D121A9712114690040D121B66
:101F4700389003F9121A7BEF5402FFE4FEFDFCFB05
:101F5700FAF9F8C31219B670217F0112F52FE412AE
:101F6700145B900401121A97121237900461121A27
:101F770097121146900411121B389003F9121A7B1D
:101F8700EF5404FFE4FEFDFCFBFAF9F8C31219B69F
:101F9700600302207C9007E493900B1030E56912F0
:101FA7001BBF90000812178DFDACF0E41214607B84
:101FB700007AF0799B7845121237C004C005C00635
:101FC700C007900B10121BBF90000812178DAEF0C0
:101FD700FBE4C39BFFE49EFE74019400FDE49400C0
:101FE700FC12145BA804A905AA06AB07D007D00604
:101FF700D005D004121340900B04121B38900B0429
:10200700121A7B12B0948067121BBF900008121738
:102017008DFDACF0E41214607B007AEC79427847CE
:10202700121237C004C005C006C007900B10121B60
:10203700BF90000812178DAEF0FBE4C39BFFE49E30
:10204700FE74019400FDE49400FC12145BA804A93B
:1020570005AA06AB07D007D006D005D00412134057
:10206700900B04121B38900B04121A7B12B10D90BF
:102077000415121B389003F9121A7BEF5408FFE47A
:10208700FEFDFCFBFAF9F8C31219B6703890053A51
:10209700936027900B10121BBF90000A12178DFD3B
:1020A700ACF0E4121460900405121A9712123790DC
:1020B7000465121A9712114680057F0212F1D99012
:1020C7000419121B389003F9121A7BEF5420FFE40E
:1020D700FEFDFCFBFAF9F8C31219B6702F900B102E
:1020E700121BBF90001812178DFDACF0E41214609C
:1020F7007BE67A6A79B478391212377BD77AA37973
:102107002078C1121146900421121B389003F9124E
:102117001A7BEF5410FFE4FEFDFCFBFAF9F8C3123B
:1021270019B67033900B10121BBF90000E12178D4B
:10213700FDACF0E4121460A804A905AA06AB079049
:10214700054B121A8712114290054F121AA3121249
:102157003790041D121B387F0312F1D990044D12DA
:102167001B387B017A0B7908900B24121BDF7A0B43
:102177007904128AA5E4FFFE7D207C4190044D126C
:102187001A97121146C004C005C006C0079005473C
:10219700121A87900543121AA3121237D003D002DE
:1021A700D001D000121340900B0C121B389003F98A
:1021B700121A7BEF5480FFE4FEFDFCFBFAF9F8C32B
:1021C7001219B67015900B04121A7B900B0C121A89
:1021D70097121237900429121B389003F9121A7BB1
:1021E700E4FFEE5401FEE4FDFCFBFAF9F8C3121913
:1021F700B67015900B08121A7B900B0C121A9712D7
:10220700123790042D121B389003F9121A7BE4FF42
:10221700FEED5402FDE4FCFBFAF9F8C31219B6709F
:1022270019900B10121BBF90000C12178DFDACF00C
:10223700E4121460900451121B389003F9121A7BB0
:10224700E4FFFEED5404FDE4FCFBFAF9F8C31219B0
:10225700B67043900B10121BBF90001412178DFD20
:10226700ACF0E4121460E4FBFA79207840121237DC
:102277007B007AFF797F7847121340E4FBFA79A055
:1022870078BF1211467B667A667906783F1213404B
:10229700900455121B389003F9121A7BE4FFFEEDE8
:1022A7005408FDE4FCFBFAF9F8C31219B670429022
:1022B7000B10121BBF90001612178DFDACF0E41225
:1022C7001460E4FBFA792078401212377B007AFF1A
:1022D700797F7847121340E4FBFA79A078BF12118F
:1022E70046E4FBFA7980783E121340900459121B9A
:1022F700389003F9121A7BEF5440FFE4FEFDFCFB14
:10230700FAF9F8C31219B6706B900B10121BBF9035
:10231700001212178DFDACF0E4121460A804A90591
:10232700AA06AB07E4FFFE7D807C47121142C0047A
:10233700C005C006C007900B10121BBF90001212F9
:10234700178DFDACF0E41214607B007AD079CF785A
:1023570045121237D003D002D001D000121340909B
:102367000B04121B38900B04121A7B12B1869004CF
:1023770025121B3890053F121AA3E4FFFE7D807CCF
:102387003F121142900431121A97121237C004C03B
:1023970005C006C00790040D121A7B90053F121A5C
:1023A700A3121237D003D002D001D00012114690E9
:1023B7000431121B3890053F121AA3E4FFFE7D80FB
:1023C7007C3F121142900435121A97121237C0043B
:1023D700C005C006C007900411121A7B90053F1272
:1023E7001AA3121237D003D002D001D0001211461F
:1023F700900435121B3890053F121AA3E4FFFE7DA7
:10240700807C3F121142900439121A97121237C07A
:1024170004C005C006C007900415121A7B90053F3B
:10242700121AA3121237D003D002D001D000121112
:1024370046900439121B3890053F121AA3E4FFFE99
:102447007D807C3F12114290043D121A9712123779
:10245700C004C005C006C007900419121A7B900576
:102467003F121AA3121237D003D002D001D00012A4
:10247700114690043D121B3890053F121AA3E4FF42
:10248700FE7D807C3F121142900441121A9712126E
:1024970037C004C005C006C00790041D121A7B9000
:1024A700053F121AA3121237D003D002D001D00071
:1024B700121146900441121B3890053F121AA3E4EB
:1024C700FFFE7D807C3F121142900445121A97123D
:1024D7001237C004C005C006C007900429121A7B32
:1024E70090053F121AA3121237D003D002D001D0A1
:1024F70000121146900445121B3890053F121AA38B
:10250700E4FFFE7D807C3F121142900449121A9726
:10251700121237C004C005C006C00790042D121A56
:102527007B90053F121AA3121237D003D002D001B5
:0B253700D000121146900449021B382E
:10B094001249DC900D9A121B387F5D7E757D567CBB
:10B0A40034900D9A121A97121237900D9A121A9719
:10B0B400121237900D9A121A97121237C004C00553
:10B0C400C006C0077F2C7E647D837C39900D9A1264
:10B0D4001A971212377B7B7AA87969783A1211464B
:10B0E400D003D002D001D000121146A804A905AAA9
:10B0F40006AB07E4FFFE7D807C3F1213407B337A6E
:08B1040093798878C31211460B
:01B10C002220
:10EEF500EF75F004A47B01240DF9740435F0FAC212
:0CEF0500AE900D04121A7B121A3DD2AE21
:01EF110022DD
:10F20700EF75F004A47B01240DF9740435F0FAC2FC
:06F21700AE1219EDD2AEAB
:01F21D0022CE
:07FB7C007B017A04790D22E0
:10C9F200900ECCEFF0ED9003F9601F121A97C00071
:10CA0200C001E47F01FEFDFC900ECCE0F9F81219A2
:10CA1200DAD001D00012198E8020121A97C000C0FD
:10CA220001E47F01FEFDFC900ECCE0F9F81219DA68
:10CA320012199BD001D0001219819003F9121B38F0
:01CA420022D1
:10EA9800AB07E47F01FEFDFCA8031219DA9003F925
:10EAA800121A97121981EC4D4E4F60037F01227F95
:02EAB80000223A
:10B10D001249DC900D9E121B387F3B7E867D587C4C
:10B11D0033900D9E121A97121237900D9E121A9798
:10B12D00121237900D9E121A97121237C004C005D5
:10B13D00C006C0077FA37E3A7D4C7C39900D9E12D0
:10B14D001A971212377B1D7AA07987783A12114619
:10B15D00D003D002D001D000121146A804A905AA2F
:10B16D0006AB07E4FFFE7D807C3F1213407B337AF4
:08B17D0093798878C312114692
:01B1850022A7
:10B186001249DC900DA2121B387F9C7E4F7D547CA9
:10B1960034900DA2121A97121237900DA2121A9716
:10B1A600121237900DA2121A97121237C004C00558
:10B1B600C006C0077F2C7E647D837C39900DA21269
:10B1C6001A971212377B7B7AA87969783A12114658
:10B1D600D003D002D001D000121146A804A905AAB6
:10B1E60006AB07E4FFFE7D807C3F1213407B337A7B
:08B1F60093798878C312114619
:01B1FE00222E
:10E8F000900E65121BDF900E65121BBFE924F0F924
:10E90000E43AA801FCAD037B017A04790D7E007F17
:04E91000500216514A
:10EF120012F9E4AA06A9077B01E924F0F9E43AFA16
:0DEF2200780D7C047D017E007F50021651A9
:10DE130012F67D900ECDEFF012FB1DEF14700E1273
:10DE2300F8E4900ECDE0FF12F20702F65B12F5EF75
:10DE3300900D04121B38900ECDE0FF12EEF512F890
:01DE4300E4FA
:01DE440022BB
:10E1790012F67D900ECEEFF012FB1DEF14700E1209
:10E18900F8E4900ECEE0FF12EA9802F6E112F67D6D
:0DE19900AD07900ECEE0FF12C9F212F8E4BF
:01E1A6002256
:10B71400900BB9121BDFE4900ECFF0900BBC121B00
:10B72400BFC003C002C001900BB9121BBF9000261A
:10B73400121C93900BB9121BBF90002974011217AD
:10B744000290002A7401121702C003C002C00190C3
:10B754000BBC121BBF900B4D121BDF900BBC121BBA
:10B76400BFE92430F9E43AFA900B50121BDF900B36
:10B77400BF121A7B900B53121B38D001D002D00396
:03B78400029D9D86
:109C6200900C4D121B38900C4A121BDF90002A12E6
:109C72001690601C900C4A121BBF900C4D121A7B5E
:109C820012A39B900C4A121BBF90002AE4121702E7
:109C9200900C4A121BBF900029121690703B900044
:109CA2002B121AD3900C4D121A7B12114212F8B3D6
:109CB200900C4A121BBF900026121C6390004412A3
:109CC2001AD31213DD5012900ECFE004F0900C4A1A
:109CD200121BBF900008021A0D900C4D121A7B90B5
:109CE2000C4A121BBF90002B121A5712CBCC900CAD
:0E9CF2004A121BBF900C4D121A7B12439C228B
:04FDE30012FE0722E3
:10EF2F00900E68121BDF900E68121BBF12FE3690F8
:0DEF3F000E68121BBF90002A740102170219
:03FE270002FD6574
:04FDE70012FC2422C4
:10A39B00900C54121B38900C51121BDF12FE0790BD
:10A3AB000C54121A9712114212F8B3900C51121B43
:10A3BB00BF900026121C6390003C121AD31213DDBF
:10A3CB005028900C51121BBF7D0112D702900C51DB
:10A3DB00121BBF121AB3900C54121A7B121142901B
:10A3EB000C51121BBF90000C800F900C54121A7B57
:10A3FB00900C51121BBF90002B121A57900C51123C
:10A40B001BBF900026121C63900034121A0D900093
:10A41B0030121AD3121237900C51121BBF9000142A
:03A42B00021A57BB
:10E1A700900E6B121BDF900E6B121BBF128B6FEF63
:10E1B7006019900E6B121BBF900029121690700BFE
:0EE1C70090002A12169070037F01227F002222
:04FDEB0012FC2B22B9
:04FDEF0012FC3222AE
:04FDF30012FC3922A3
:10F56B00900029740112170290002A7401121702DD
:03F57B0002FD6B23
:06CBCC00900C58121BDF63
:10CBD200900029121690603D900C58121BBF9000D5
:10CBE2000C121A0D12F8B3900C5B121B38900C58F1
:10CBF200121BBF900026121C63900038121A0D906F
:10CC02000C5B121A971213DD500B900C58121BBFBB
:05CC1200E4FD12D70251
:01CC170022FA
:10D70200900E6E121BDF900029ED121702ED900EA3
:10D712006E7012121BBF900026121C63E92418F9C6
:10D72200E43AFA8009121BBF900026121C63900C87
:0ED73200E5121BDF900E6E121BBF12EDE822F7
:08FB0D00900029121690FF225E
:07482200440719000186A004
:10E85E009007497401F0900721F090073CF0E49086
:10E86E000722F012FB6090074E121BDF12FB67901F
:05E87E000751021BDF41
:10AC3900900ED0EFF0706E90070C121B44000000CC
:10AC49000090072B121B4400000000900738121BCC
:10AC5900440000000090071D121B4400000000E49E
:10AC690090072FF0900714F090074E121BBF12FDAA
:10AC7900E3900741121B38900751121BBF12FDE3E5
:10AC8900900745121B387F0412F20790074A121BDE
:10AC990038900727121B4400000000900754121B2C
:0EACA9004400000000900ED0E0900749F02219
:06FCA500900749E0FF2278
:0FF72100900721E06F6007EFF07003A304F02260
:06FCAB00900721E0FF229A
:06FCB10090073CEFF02279
:06FCB70090073CE0FF2273
:07FB830090071D121A7B22FE
:07FB8A00900738121A7B22DC
:10F6C100900738121A7B900738121A9712123722B4
:03FE2A007F012233
:10B1FF00E92440F9EA3401FA90073D121A7B121A3A
:10B20F003D90074A121A7B900004121A579007417B
:10B21F00121A7B900008121A57900745121A7B904A
:10B22F00000C121A57900730121A7B900010121A46
:10B23F0057900734121A7B900014121A5790072F49
:10B24F00E0900018121702900714E09000191217DF
:10B25F0002900727121A7B90001A121A5790075460
:09B26F00121A7B90001E021A570E
:10AAB80012F9E4AA06A9077B01E92440F9EA34015E
:10AAC800FA1219ED90073D121B38900004121A0D66
:10AAD80090074A121B38900008121A0D900741126D
:10AAE8001B3890000C121A0D900745121B38900065
:10AAF80010121A0D900730121B38900014121A0DFC
:10AB0800900734121B3890001812169090072FF0F7
:10AB1800900019121690900714F090001A121A0D4E
:10AB2800900727121B3890001E121A0D9007540226
:02AB38001B38C8
:07482900440DA6000186A06A
:10F2D50012FB1DEF700912F8E412FCA502F6E1120B
:05F2E500F67D12AC39BA
:01F2EA002201
:10F2EB0012FB1DEF700912F8E412FCAB02F6E112EF
:05F2FB00F67D12F72171
:01F3000022EA
:10F3010012FB1DEF700912F8E412FCB702F6E112CC
:05F31100F67D12FCB1C5
:01F3160022D4
:09F9AE0012F8E412FB8A02F65B78
:09F9B70012F8E412F6C102F65B3D
:09F9C00012F8E412FE2A02FE2DE9
:09F9C90012F8E412FB8302F65B64
:07483000440DAA000186A05F
:10E5F300A2AF9200AEF5C2AFC2AFC3EC94804006A7
:10E6030053F5CFEF42F58C088D098D828C83E4930B
:07E61300FF8EF5A20092AF9B
:01E61A0022DD
:10D8EA00900C60ECF0A3EDF0A907900C6474FFF5BE
:10D8FA00F012174C45F06022AF01900C60E475F00D
:10D90A000112174CADF0FC12E5F30BEBAC027001FF
:0BD91A000A14F5828C83EFF080D0220D
:0BB45400900D08EFF0A3ECF0A3EDF06A
:10B45F00A2AF9201A3E5F5F012FD95900D0CEFF060
:10B46F006005E4FF12F5B7C2AFC2AF43B602900D4D
:10B47F0009E0FEA3E0AC068C0AF50BC3EE94804006
:10B48F000953F5CF900D08E042F5758F02438F01F8
:10B49F0075B7A575B7F1850B82850A83E4F0F58F33
:10B4AF0053B6FD900D0BE0F5F5A20192AFA20192FC
:0AB4BF00AFA3E060057F0112F5B7AE
:01B4C9002260
:10A92B00EF7F0025E0FEE4FCFD900D0E121B38E4DA
:10A93B00FF7E80FDFC900D0E121A97C31219B650B4
:10A94B0007E4900D0DF0804DE4FFFE7D01FC900DB2
:10A95B000E121A97C31219B65008900D0D7410F001
:10A96B0080337F007E807D017C00900D0E121A9744
:10A97B00C31219B65019900D0E121A7BEE4480FEBD
:10A98B00EC900D0E121B38900D0D7420F08006907C
:10A99B000D0D7430F0900D0DE0FF900D10E0FCA349
:05A9AB00E0FD02B454C0
:0BA0A200900B7BEFF0900B7E121BDF99
:10A0AD00A2AF9202900B83E5F5F0C2AFC2AF43B6FB
:10A0BD0002AF05AE048E0C8F0DC3EE948040095394
:10A0CD00F5CF900B7BE042F5E4900B84F0A3F0907C
:10A0DD000B81E0FEA3E0FF900B84E0FCA3E0FDC349
:10A0ED009FEC9E5039900B7E121BBF8D828C83127C
:10A0FD001690FFF46014758F0175B7A575B7F185CE
:10A10D000D82850C83EFF0E4F58F050DE50D7002E2
:10A11D00050C900B84E475F00112173680B153B61F
:0DA12D00FD900B83E0F5F5A20292AF7F01DB
:01A13A002202
:06A78E00900CBE121B3806
:10A79400E4FF7E80FDFC900CBE121A97C31219B61A
:10A7A4005007E4900CC3F0804DE4FFFE7D01FC9063
:10A7B4000CBE121A97C31219B65008900CC3741029
:10A7C400F080337F007E807D017C00900CBE121AE5
:10A7D40097C31219B65019900CBE121A7BEE44801E
:10A7E400FEEC900CBE121B38900CC37420F0800653
:10A7F400900CC37430F0900CC3E0FF900CC0E0FCEC
:10A80400A3E0FD7B017A0C79C2900B81E4F0A304F0
:04A81400F002A0A20C
:06ACB700900D12121B3883
:10ACBD00E4FF7E80FDFC900D12121A97C31219B697
:10ACCD005007E4900D16F0804DE4FFFE7D01FC90E1
:10ACDD000D12121A97C31219B65008900D16741052
:10ACED00F080337F007E807D017C00900D12121A62
:10ACFD0097C31219B65019900D12121A7BEE44809B
:10AD0D00FEEC900D12121B38900D167420F080067B
:10AD1D00900D167430F0900D16E0FF900D14E0FCC0
:06AD2D00A3E0FD12E5F3B6
:01AD330022FD
:09F9D200E4F5A7F58F75B61022CB
:07483700440B3E000186A0C6
:10E9C800E4900B42F0900B3D04F0900B49F0FF12DD
:10E9D800EEBB900B43121BDF7F0212EEBB900B467F
:03E9E800021BDF30
:0AF97400900B3DEFF0900B49F022DC
:09742B00900B3DE0600302754680
:10743400900B43121BBF12FDE3900AB3121B38904A
:107444000B46121BBF12FDE3900AB7121B38E490DF
:107454000AC3F0127F66900AB3121A97121142906F
:107464000ABB121B38128055900AB7121A971211D0
:1074740042900ABF121B38900518121A87900ABB53
:10748400121A971213DD600A4008900518121A8721
:10749400801D900518121A8712144A900ABB121AFA
:1074A400971213DD5011900518121A8712144A907E
:1074B4000ABB121B388006900AC37401F0900518A9
:1074C400121A87900ABF121A971213DD600A400835
:1074D400900518121A87801D900518121A87121425
:1074E4004A900ABF121A971213DD50119005181210
:1074F4001A8712144A900ABF121B388015900AC3C7
:10750400E0600F900B3D7401F0900B49F0E4900B98
:1075140042F0900ABB121A7B900AB3121A97121106
:1075240046900B43121BBF12EF2F900ABF121A7B17
:10753400900AB7121A97121146900B46121BBF12EB
:02754400EF2F27
:017546002222
:06FCBD00900B49E0FF225C
:06FCC300900B42EFF0225D
:06FCC900900B42E0FF2257
:0F483E004408BE000186A04108B5004108C20031
:10AB3A00900ED1EFF0AFEFEF9008BAF0A3E4F090E7
:10AB4A0007E49330E4137F297E5C7D0F7C3F9007F6
:10AB5A0086121AA312123780087F007E007D347C89
:10AB6A0043129A80E49008E0F0900ED1E0701090C1
:10AB7A0008E1F09008DFF09008B0F0A3F0800D1221
:10AB8A00B4CA9008B07401F0A37490F0E49008DE9F
:10AB9A00F09008DA04F0A374F4F0A37401F0FB7ADD
:10ABAA000879B27D0A12EF86E49008C3F0A3F02276
:102542009008BBE0540F900906F09008E1E0540FA8
:10255200900908F09008DFE0540F900909F012FC8E
:102562004E90090B121BDF9008DCE070117B017AA0
:102572000879B27D0212EF869008DC7401F07B01CB
:102582007A0879B212C859EF6003022B1CE4900951
:1025920007F09008DCF07F0B12F2079008E2121BA2
:1025A200387F0912F2079008E6121B387F0A12F2EE
:1025B200079008EA121B387F1012F2079008EE12F9
:1025C2001B3812583890090AEFF090075D121A87EB
:1025D2009008E2121A971213DD4013900761121A43
:1025E200879008E2121A971213DD601240109009C8
:1025F20006E04401F0A37401F0A3E04422F0900746
:102602006D121A879008E6121A971213DD40139082
:102612000771121A879008E6121A971213DD6012D8
:102622004010900906E04402F0A37401F0A3E044D4
:1026320022F0900775121A879008EA121A9712135D
:10264200DD4013900779121A879008EA121A97123E
:1026520013DD60124010900906E04404F0A37401F7
:10266200F0A3E04422F09008DAE07002A3E0600CEC
:102672009008DA74FFF5F01217368032900765126F
:102682001A879008E2121A971213DD401390076915
:10269200121A879008E2121A971213DD6010400E88
:1026A200900906E04420F0900909E04422F09008E5
:1026B200C9121A7B9008EE121A971213DD601040AD
:1026C2000E900906E04480F0900909E04488F090F9
:1026D20008C5121A7B9008EE121A971213DD600DCC
:1026E200400B9009077401F0A3E04488F09008B011
:1026F200E07002A3E0600A9008B074FFF5F00217E0
:102702003612FE139008F6121B3812FE179008FAC2
:10271200121B3890090AE0D39407500302282E7F37
:102722000412F2079008F2121B389008CD121A9781
:102732009008F6121A7B1213409008FA121A971296
:1027420013DD401C9008CD121A7B9008F6121A97DE
:102752001212379008FA121A971213DD602A4028D3
:102762009008BDE070159008B5E0701690090AE077
:10277200FFC3940B400CEF640D6007900908E0441E
:1027820011F09009077401F09008D1121A9790087D
:10279200F6121A7B1213409008FA121A971213DDDE
:1027A200402F9008D1121A7B9008F6121A97121233
:1027B200379008FA121A971213DD6002501390072D
:1027C20082121A879008F2121A971213DD603840AB
:1027D20036900906E04410F09008BDE070159008AC
:1027E200B5E0701690090AE0FFC3940B400CEF6449
:1027F2000D6007900909E04411F09008B5E06040CF
:10280200E49008C2F080399008B5E060339008C2C5
:10281200E004F0C394324028E49008B5F09008C276
:10282200F09008B004F0A374F4F08014900906E06C
:102832004410F09008BDE06007900909E04411F0EF
:1028420090090AE0FFC3940750030228D7EF640DF2
:0528520070030228D70D
:102857007F0312F20790090E121B38E4FFFE7DA0DA
:102867007C409008E2121A9712114690090E121A2C
:10287700971213DD4014E4FFFE7D9E7C4290090E03
:10288700121A971213DD60094007900909E04455B1
:10289700F09008E2121A7B90090E121A971213DDB4
:1028A7004014E4FFFE7DA07C4290090E121A971295
:1028B70013DD601740159008C4E004F0E0C39403EB
:1028C700400E900908E04455F08005E49008C4F0F4
:1028D70090090AE0FFD394075003022A98EF640C8B
:1028E7007003022A987F0E12F207C004C005C006C3
:1028F700C00712FC01A804A905AA06AB07D007D098
:1029070006D005D00412114212F8B390077E121AAE
:10291700A31213DD5031900906E04440F09008BD42
:10292700E070159008B5E0701690090AE0FFC394AF
:102937000B400CEF640D6007900909E04444F090E8
:1029470008D57401F080159008D5E0600F9008B0A5
:102957007401F0A374F4F0E49008D5F07F0112EE4F
:10296700BB12FDE7C004C005C006C0077F0112EE19
:10297700BB12FDE3D003D002D001D000121146A84C
:1029870004A905AA06AB079008E6121A7B121142A2
:102997009008FE121B387F0212EEBB12FDE7C0043F
:1029A700C005C006C0077F0212EEBB12FDE3D003CD
:1029B700D002D001D000121146A804A905AA06AB7F
:1029C700079008EA121A7B121142900902121B386B
:1029D7009008FE121A7B12F8B3E4FBFA7980783F6D
:1029E7001213DD406A900902121A7B12F8B3E4FB56
:1029F700FA7980783F1213DD4055900902121A9731
:102A07009008FE121A7B12114212F8B37BCD7ACCD2
:102A170079CC783E1213DD4036E4FFFE7D807C40A2
:102A27009008E2121A971211469008E6121A9712A6
:102A370013DD401BE4FFFE7D807C409008E2121A04
:102A4700971211469008EA121A971213DD503B901D
:102A570008C3E004F0E0C39403404A900906E04449
:102A670008F0A37401F09008BDE070149008B5E079
:102A7700703390090AE0FF940B402AEF640D60253C
:102A8700900908E04444F0A38017E49008C3F0805D
:102A970014900906E04440F09008BDE060079009F3
:102AA70009E04444F09008BAE0FEA3E0540FFF9019
:102AB7000906E0FDEF4DFF9008BAEEF0A3EFF090A6
:102AC70008DDE06004E4F08010900908E09008E178
:102AD700F0900909E09008DFF0900907E0602A907C
:102AE70008E0E02410F090077DE493C454F0FF90D1
:102AF70008E0E0FE54F0B5071CEE540FF09008BC58
:102B0700E070129008DE04F0229008E0E0540FF025
:052B1700E49008DEF06F
:012B1C002296
:04FDF700E4FEFF2205
:0EF7300012FDF7AD079008BBE054F0F0AF05F6
:01F73E0022A8
:10F57E00EF70059008BCF022E49008DEF09008BC15
:03F58E0004F02264
:06FCCF009008BCE0FF22DA
:06FCD5009008DFE0FF22B1
:10F46100EF540FFF9008DFE0FE6FFFEE5FF09008B2
:05F47100DD7401F02232
:06FCDB009008E1E0FF22A9
:10F47600EF540FFF9008E1E0FE6FFFEE5FF090089B
:05F48600DD7401F0221D
:05CC1800900D17EFF084
:10CC1D00AE04AF05E41214607B6F7A127983783A13
:10CC2D0012123712F060900D18121B38A2AFE433B8
:10CC3D00FBC2AFC2AF900D18121A7B900D17E025F5
:10CC4D00E025E024CDF582E43408F583121B38AFDE
:06CC5D0003EF24FF92AF7B
:01CC630022AE
:10E20300EF25E025E024CDF582E43408F583121AE6
:10E213007B12F8027B6F7A127903783A121146E483
:0DE22300FBFA797A7844121237121499220E
:10E9EB00D3ED9464EC94004004E4FE8013EF25E037
:10E9FB0024D6F582E43408F583ECF0A3EDF07E0128
:02EA0B00AF0654
:01EA0D0022E6
:10F5DD00EF25E024D6F582E43408F583E0FEA3E0C0
:02F5ED00FF22FB
:109A8000900DAE121B38900DAE121A7B9008B612D4
:109A90001B38900DAE121A97900786121A87121172
:109AA00042C004C005C006C0079008D6E0FCA3E091
:109AB000FDE4121460D003D002D001D0001212379E
:109AC0007B0A7AD77923783C121237900DAE121A9E
:109AD000971211469008C5121B38900DAE121A97B6
:109AE000900786121A87121142C004C005C006C032
:109AF000079008D8E0FCA3E0FDE4121460D003D086
:109B000002D001D0001212377B0A7AD77923783C31
:109B1000121237900DAE121A971211469008C90210
:029B20001B38F0
:07FB91009008B6121A7B2256
:10A8A2007F1012F2079008B6121A97121142E4FBB7
:10A8B200FA79C87842121237C004C005C006C00730
:10A8C2009008B6121A97900786121A87121142A898
:10A8D20004A905AA06AB07D007D006D005D00412FA
:10A8E2001340900DB2121B38E4FFFEFDFC900DB236
:10A8F200121A971213DD500C900DB2121B44000075
:10A902000000801EE4FFFE7DC87C42900DB2121A48
:10A91200971213DD600C400A900DB2121B4442C81C
:08A922000000900DB2121A7B37
:01A92A00220A
:06FCE1009008BDEFF022C7
:0DF865009008BDE060047F0180027F00225A
:06FCE7009008DEE0FF22A0
:0BF8F0009008E1EFF09008DFEDF0223F
:10F317009008E1E01216F09008DFE0FF900CC712AA
:06F327001BBFEF0216F00F
:09F9DB009008B0E4F0A3EFF02263
:0BF8FB009008B5EFF0E49008C2F02286
:06FCED009008B5E0FF22C3
:06FCF3009008D5E0FF229D
:10F12D0012FB1DEF700912F8E412FCCF02F6E1128A
:09F13D00FDFB12F57E12F8E4223C
:0FF73F0012FB1DEF700302F8E4E4FF12F87F22C3
:0FF74E0012FB1DEF700302F8E4E4FF12F87F22B4
:0FF75D0012FB1DEF700302F8E4E4FF12F87F22A5
:10DA1100EC8DF01217FD900C6CE014F0900C6CE0A2
:10DA2100FF14F0EF601B900C6BE0FF7E002DFAEE0F
:10DA31003C8D828C83F0A3CAF0EF2DFDEE3CFC807F
:0ADA4100DB8D828C83E4F0A3F02259
:10EBA80012176245F07003FEFF22121762AEF0FDE5
:10EBB800F5828E83E0FFA3E0CF8FF01217FDAF053B
:01EBC800222A
:10F32D00121762FF8D828C83E5F0F0A3EFF0AF052D
:06F33D00EC8FF00217FD49
:0C484D00440C6D000186A0420C721B00A0
:10DD1600900C72E0FEA3E0F5828E83E0FF64016062
:10DD260008EF640260037F0022900C72E0FEA3E01D
:10DD3600FFF5828E83E0900C71F08F828E83E4F083
:03DD46007F012238
:107547009003D8E06003027661125838EFC3940BBA
:107557005003027661900C72E0FEA3E0AA06F97B65
:107567000112DFD0900C72E0FEA3E0AA06F97B01BE
:10757700126805900C72E0FEA3E0AA06F97B0112DF
:10758700E8A8900C72E0FEA3E0AA06F97B0112E8D6
:10759700F0900C72E0FEA3E0AA06F97B0112B1FF9E
:1075A700900C72E0FEA3E0AA06F97B0112C1E890F5
:1075B7000C72E0FEA3E0AA06F97B0112F82D900CED
:1075C70072E0FEA3E0AA06F97B0112DD49900C7276
:1075D700E0FEA3E0AA06F97B01128DC9900C72E0C8
:1075E700FEA3E0FF24BFFDEE3401FAA9057B01C02D
:1075F70002C001EF24BEFFEE3401FAA907900CC7C1
:10760700121BDFD001D00212F31712F9A5EF540FA6
:10761700FFC007C00612FDD1EF540FC4F8540FC8BE
:1076270068FDE4C454F048FCD0E04CFED0E04DFFC8
:10763700900C72E0FCA3E024C0F582EC3401F583E2
:10764700EEF0A3EFF0121139900C72E0FCA3E024E6
:0A765700C2F582EC3401F583EFF078
:017661002206
:10F21E00900C72E0FCA3E0FDF5828C83EFF08D8202
:07F22E008C83A37401F022A0
:10B4CA00900C72E0FCA3E0FD24BFF582EC3401F598
:10B4DA0083E0FFED24BEF582EC3401F583E0FD1232
:10B4EA00F8F0900C72E0FEA3E024C0F582EE34017D
:10B4FA00F583A3E054F0FFE4C4F854F0C8EFC45451
:10B50A000F48FF12FA08900C72E0FEA3E024C0F57F
:10B51A0082EE3401F583E05410A3C4540FFF12FCE9
:10B52A00FF900C72E0FEA3E024C2F582EE3401F52E
:06B53A0083E0FF02113363
:09F9E400900C72E0FEA3E0FF228A
:10F48B00900C72E0FEA3E0FFF5828E83E4F08F8296
:05F49B008E83A3F022A6
:1070B900FFE030FFE45DFFE486FFE4AFFFD602FFA7
:1070C900E4D8FFE77CFFE7A2FFD2EBFFF906FFF95F
:1070D90011FFD925FFFB98FF9D00FFEF4CFFF91C1D
:1070E900FFAEAAFFFB98FFFB98FFF146FF4FCCFFCD
:1070F900F927FFFB98FFFB98FFFB98FFFB98FFFB25
:1071090098FFFB98FFFB98FFFB98FFFB98FFFB9804
:10711900FFCC64FFCCB0FFCF07FFBF5CFFFB9FFF35
:10712900FBA6FFEBC9FFEBE9FFE090FFE0BFFFE043
:10713900EEFFFB98FFFB98FFFB98FFFB98FFFB987E
:10714900FF798DFFA676FF6A9DFFAE2EFFC8ABFFC4
:1071590089DBFF9018FFFB98FFFB98FFFB98FFFB6B
:1071690098FFFB98FFFB98FFFB98FFFB98FFFB98A4
:10717900FFAF25FF968CFFF343FFF4A0FFFB98FFB9
:10718900FB98FFFB98FFFB98FFFB98FFFB98FFFB21
:1071990098FFFB98FFFB98FFFB98FFFB98FFF8729D
:1071A900FFF235FF0CE6FFF8C0FFD264FFF76CFF72
:1071B900CE2AFFFBADFFCCFCFFC132FFFBB4FFFBC6
:1071C900BBFFFBC2FFFBC9FFFB98FFFB98FFD8730E
:0971D900FFD642FFF9FFFFC3528B
:104859004404A0000186A04104C80041048F00411E
:104869000488004104C900420482000041048E000A
:084879004104AA004104D8002B
:06FCF900E49004C8F022B3
:10EFD9009004AF121A7B9004C4121B387E007F0381
:0BEFE9007D007B017A04797F021E3B53
:10F6D1009004D5E04410F07B017A0479B402E91476
:100AC100900DB6121BDF900DB9EDF0900DB6121B13
:100AD100BF12176254F0FFE4C4F854F0C8EFC454D5
:100AE1000F48FF12EE26900DB6121BBF121762E5DA
:100AF100F05410C4540FFF12FCFF900DB6121BBF2F
:100B010090000212178DFDACF0E4FF12CC18900D8D
:100B1100B6121BBF90000412178DFDACF07F0112BD
:100B2100CC18900DB6121BBF90000612178DFF90C6
:100B3100047BE5F0F0A3EFF090000812178DFF9011
:100B410004A6E5F0F0A3EFF090000A12178DFF90D4
:100B510004ADE5F0F0A3EFF090001212178DFF90B5
:100B610004CEE5F0F0A3EFF090001612178DFDAC66
:100B7100F0E41214607B007A40791C78461213402D
:100B8100C004C005C006C007900DB6121BBF90007F
:100B91001412178DFDACF0E4121460D003D002D012
:100BA10001D000121146900477121B38900DB61235
:100BB1001BBF90000C12178DFF9004ABE5F0F0A362
:100BC100EFF090000E12178DFDACF0EC1214607B6B
:100BD1006F7A127983783A12123712F06012FD118E
:100BE100900DB9E06012900DB6121BBF9000241257
:100BF100178DFFAEF012C3AA900DB6121BBF900065
:100C01001012178D7E0054047802CEC313CE13D870
:100C1100F94E70047F0180027F0012F57E900DB6BF
:100C2100121BBF90001012178D5402FFE4C313EF83
:100C310013FF12FCE190045F121A87900C28121B1B
:100C410038900477121A7B12BDCFEFF4704912FB72
:100C5100D71219ED900477121B38900477121A7B82
:100C61001214999004D6EEF0A3EFF0FDAC06E41255
:100C71001460A804A905AA06AB07900477121A7B91
:100C81001211427B007A40791C78461212371214F5
:100C91009990047DEE8022900DB6121BBF90001436
:100CA10012178DFF9004D6E5F0F0A3EFF090001637
:100CB10012178DFF90047DE5F0F0A3EFF0900DB6D3
:100CC100121BBF90002012178DFDACF0E4FF12E95A
:100CD100EB900DB6121BBF90002212178DFDACF0E8
:050CE1007F0102E9EBB8
:104DEB00900DBA121B38900DBA121A7BE4FFFEE439
:104DFB00FCFBFA7901F81218EF9004B3EFF0900D69
:104E0B00BA121A7BE4FFFEFDEC5401FCE4FBFAF949
:104E1B0078011218EF900489EFF0900DBA121A7BFB
:104E2B00E4FC9004AF121B38900DBA121A7B90045D
:104E3B00A4EEF0A3EFF0E4900488F07B017A0D79F7
:104E4B00BA12E30DE4FCFDFEC004C005C006C007AA
:104E5B00900DBA121A7BE4FFFEFDEC54F0FCE4FB60
:104E6B00FAF978101218EFA804A905AA06AB07D017
:104E7B0007D006D005D004C31219B660209004AF3A
:104E8B00121A7BEC4408FC9004AF121B389004D52B
:104E9B00E04440F09004887408F07F0122900DBA32
:104EAB00121A7BE4FFFEFDEC5408FCE4FBFAF978E4
:104EBB00081218EFEC4D4E4F600F9004C4121A7B82
:104ECB009004AF121B38024FAC9004B3E0FFD394A5
:104EDB0062501375F003EF9070B9121BB3121BE8FD
:104EEB00121D4C024FAC9004B3E0B4860612C18D78
:104EFB00024FAC9004B3E0B4880612BE34024FAC40
:104F0B009004B3E0B4890612F77B024FAC9004B364
:104F1B00E0B4900612BA22024FAC9004B3E0B49105
:104F2B000512D682807B9004B3E0B4920512C6655D
:104F3B00806F9004B3E0B4930512AD34806390049A
:104F4B00B3E0B4940512D6C280579004B3E0B423F7
:104F5B000512F81F804B9004B3E0B4F00512D3B4E4
:104F6B00803F9004B3E0B4F10512F9328033900422
:104F7B00B3E0B4F20512993880279004B3E0B4F390
:104F8B0005127B92801B9004B3E0B4FB0512D7F99A
:104F9B00800F9004B3E0B4FF0512D960800312FBBD
:104FAB00989004AF121A7B9004C4121B389004889B
:104FBB00E090048FF060079004D5E04480F07F010F
:014FCB0022C3
:10A13B00900488E060239004AF121A7BE4FFFEECDE
:10A14B0054FCFC9004AF121B389004AF121A7BEC3A
:10A15B004401FC9004AF121B389004AF121A7BEC35
:10A16B00540FFC9004AF121B389004AF121A7BEC07
:10A17B004404FC9004AF121B389004AF121A97C022
:10A18B0000C001C002C0037B017A0479AF12E30D5A
:10A19B00E4FCFDFEFBFAF97810121864E4FFFEFDF7
:10A1AB00EC54F0FCD003D002D001D00012198E90E9
:10A1BB0004AF121B389004AF121A7B9004C4121B0D
:08A1CB00389004AF121A7B2248
:104BE90012FCDB900D1CE4F0A3EFF012FCD5900D44
:104BF9001EE4F0A3EFF0125838900D20EFF012FDEB
:104C0900B3EF7023900D20E0D39407403E12FDB915
:104C1900EF70389004D0E0A320E03012FCEDEF7083
:104C29002A12FCF3EF70249004C8E054FAF0900DB6
:104C390020E0C3940B40149004C8E054F7F012FC30
:104C4900C9EF70079004C8E054EFF0900D1CA3E081
:104C5900FD54F0FFE4C4F854F0C8EFC4540F4854AD
:104C69000FFEED540FFDEDFF900D1CEEF0FCA3EFD0
:104C7900F0A3A3E0FB54F0FFE4C4F854F0C8EFC478
:104C8900540F48540FFEEB540FFBEBFF900D1EEE33
:104C9900F0A3EFF090047CE0540FFFED540FFDED0D
:104CA9005F702B90047BE0FCA3E0FDEC540FFF90B8
:104CB9000D1FE0540FFBEF5B70149004D4E0541007
:104CC900FEA3E054F0FFEC5EFEED5F4E600E900433
:104CD900D4E04480F0A3E0F0C2A180099004D4E0BC
:104CE900547FF0D2A19004A6E0FEA3E0FF540FFD8B
:104CF900900D1DE0540FFBEB5D701EEE540FFF90FD
:104D09000D1FE0540FFDEF5D700F9004D5E05420A6
:104D1900FF9004A6A3E05F602E9004D4E04420F045
:104D2900A3E0F012FCE7EF602A12F9699004C97454
:104D390001F0FF12E3DF7F0112F5579004D4E0443C
:104D490010F0A3E0F0800C9004D4E054DFF0E4907C
:104D590004C9F09009D8E06027309124C2AFC2AFEE
:104D69007B017A04797F12C859EF7010FF12E3DFD3
:104D7900E49009D8F09004D4E054EFF0D2AFD2AF68
:104D8900900D1CE0540FFF9004ADE0FCA3E0540F1C
:104D9900FBEF5B700FEC540FFD900D1EE0540FFFFD
:104DA900EF5D600C9004D4E04440F0A3E0F080078C
:104DB9009004D4E054BFF09004D4E0FAA3E0FB904F
:104DC9000D1CE04AFFA3E04B9004D2CFF0A3EFF013
:104DD900900D1EE04AFFA3E04B9004D0CFF0A3EF63
:014DE900F0D9
:014DEA0022A6
:09F9ED009004D0E0FEA3E0FF222B
:09F9F6009004D2E0FEA3E0FF2220
:10E30D00900001121690FF121677540F6FFF9000B8
:10E31D00021216906FFF9000031216906FFF54F0CB
:09E32D00C4540FFEEF540F6EFF03
:01E3360022C4
:10B86A00900B5AEDF0900489E0705D900B5B121A10
:10B87A007B121A3D900B5F121A7B900004121A5722
:10B88A00900008121B8F00000000900B5AE025E080
:10B89A00540E444190000C75F00012181C9004B329
:10B8AA00E0FFE4FCFDFEFBFA7901F8121864E4FB00
:10B8BA00FAEDF97402F8900B5F121A7BE4FDFC12A0
:0FB8CA00198E9004AF021B389004887402F0228C
:10E91400900004121B8F00000000121B7500000001
:10E9240000900008121B8F0000000090000CE4F51A
:04E93400F002181CB9
:06840000900CCA121BDF04
:10840600900CCA121BBF90000C12178DFFE5F0549A
:1084160001FEEF54807807CEC313CE13D8F9900C23
:10842600CDF01219EDA907AA06AB05121762FF9047
:108436000CCEE5F0F0A3EFF0900CCA121BBFC00300
:10844600C002C001121AB3900CCDE0FFE4FCFDFEA1
:10845600121849D001D002D003121A3D900CCA124C
:108466001BBFE92408F9E43AFAC003C002C00112AE
:108476001AB3900CCDE0FFE4FCFDFE121849D001C2
:10848600D002D003121A3D900CCA121BBF900004F2
:10849600121A0D900008121AD3D31219B6400A9078
:1084A6000CCEE0F8E4F0E8A3F0900CCA121BBF90E3
:1084B6000004121A0D900008121AD3C31219B640FE
:1084C60009900CCA121BBF12E914900CCEE0FEA351
:0284D600E0FFC5
:0184D8002281
:08C5B9009004ABE0FEA3E0FFDB
:10C5C100900EA9EEF0A3EFF09004CEE0FCA3E0FD05
:10C5D100EC1214607B007A40791C7846121340C03B
:10C5E10004C005C006C007900EAAE024FFFD900E0E
:10C5F100A9E034FFFCE4121460D003D002D001D0D2
:0EC6010000121237900477121A971211462277
:10D54000900EABEEF0A3EFF0900489E0702C900405
:10D55000B3E0FFE4FCFDFEFBFA7901F8121864E485
:10D56000FBFAEDF9E4F8900EABE0FEA3E0FFE4FC7B
:10D57000FD12198E9004AF021B389004887402F0DB
:01D580002288
:1066AF00900E71121BDF12FD05EF7F00C45410FE18
:1066BF00C007C00612FDD1EF75F010A454F0FDD045
:1066CF00E0FED0E04D4404FF900E71121BBFEE8F21
:1066DF00F01217FDE4FF12E203900E71121BBF9030
:1066EF000002EE8FF012181C7F0112E203900E7160
:1066FF00121BBF900004EE8FF012181C90047BE069
:10670F00FFA3E0900006CF8FF012181C9004A6E0B4
:10671F00FFA3E0900008CF8FF012181C9004ADE09B
:10672F00FFA3E090000ACF8FF012181C9004ABE08B
:10673F00FFA3E090000CCF8FF012181C12FE131263
:10674F00D77E900E71121BBF90000EEE8FF01218B5
:10675F001C12FCCFEF70047F0180027F00EF75F0F9
:10676F0004A47E005404FFC007C00612F865EF753D
:10677F00F002A45402FDD0E0FED0E04DFF900E7168
:10678F00121BBF900010EE8FF012181C9004CEE079
:10679F00FFA3E0900012CF8FF012181C9004D6E0E8
:1067AF00FFA3E0900014CF8FF012181C90047DE02F
:1067BF00FFA3E0900016CF8FF012181CE4FF12F524
:1067CF00DD900E71121BBF900020EE8FF012181C7F
:1067DF007F0112F5DD900E71121BBF900022EE8F1C
:1067EF00F012181C12FE0F900E71121BBF90002496
:0667FF00EE8FF002181CF1
:07FB98009004887401F022C3
:10E030009004C8E0FE90048FE0540FFDEDFFE4FC77
:10E04000FD9004AF121B38900C82E0B401119004D3
:10E05000AF121A7BEF4410FFEC9004AF121B382272
:10E45D007BFF7A0779E5AF01AE027DFF7C00900B63
:10E46D005B121B38900B5F121B44000000087B01F0
:09E47D007A047990E4FD02B86A0A
:10E486007BFF7A0779EDAF01AE027DFF7C00900B32
:10E496005B121B38900B5F121B44000000067B01C9
:09E4A6007A047990E4FD02B86AE1
:10E4AF007BFF7A0779F3AF01AE027DFF7C00900B03
:10E4BF005B121B38900B5F121B44000000107B0196
:09E4CF007A047990E4FD02B86AB8
:10D602007BFF7A08790312F4CAEE3395E0FDFC90B1
:10D612000DBE121B387BFF7A087903AF01AE027D83
:10D62200FF7C00900B5B121B38900DBE121A7B9090
:10D632000B5F121B387B017A047990E4FD02B86A11
:10E4D8007BFF7A087912AF01AE027DFF7C00900BBA
:10E4E8005B121B38900B5F121B440000000C7B0171
:09E4F8007A047990E4FD02B86A8F
:10E77C00121078AF01AE02AD037C00900B5B121B44
:10E78C00387B017A047990900B5F121B44000000D7
:06E79C002AE4FD02B86A48
:10E7A20012107FAF01AE02AD037C00900B5B121B17
:10E7B200387B017A047990900B5F121B44000000B1
:06E7C2002AE4FD02B86A22
:10D2EB00900489E0700B9004AF121B4400080000FF
:10D2FB002212FDB3EF60259004A4E05480A3C41365
:08D30B00131354016401701AB0
:10D31300A2AF9203C2A5C2AFC2AF125B47A20392F0
:03D32300AFD2A5E1
:08D32600229004887409F02232
:0BF9060090049CE0FEA3E0FF02D5404F
:0BF91100900492E0FEA3E0FF02D5404E
:10D92500900489E0702E900494121A7B900498124A
:10D935001A97C31219B650157B017A04799012848F
:10D9450000E4FC740BFDE49004AF021B38900488DE
:0BD955007406F0229004887402F02297
:109D0000900489E0703E12FDD1EF75F010A47E0042
:109D100054F0FFE4FC740DFDE4C004C005C006C0AF
:109D20000712FD05EF7F00C45410FEE4FCFDD003D4
:109D3000D002D001D00012198EEF4404FFEC900441
:049D4000AF021B381B
:109D44009004A5E054F0FFE4C4F854F0C8EFC45400
:0D9D54000F48FF900E74F012EE26EF603500
:109D61009004A4E0FCA3E054F04404FF900E75ECD1
:109D7100F0A3EFF0EC5410C4540FFF12FCFF900E4F
:109D810075E0FEA3E0FFE4FC740DFDE49004AF1266
:059D91001B38026118FF
:069D96009004887403F044
:019D9C0022A4
:10EF4C009004B4121A7B78101219C7EF543FFF7457
:0DEF5C0057FE9004C0EEF0A3EFF002D54088
:0BF91C009004B6E0FEA3E0FF02D5401F
:10AEAA009004887406F0A3E070709004B8121A7BBC
:0CAEBA009004B4121A97C31219B6505E2F
:10AEC6009004B4121B0312ACB7900EADEFF09004D1
:10AED600B4121B0312ACB7900EAEEFF07F007EFCEF
:10AEE6007DFF7CFF9004B4121A97C31219B640096D
:10AEF6007B017A0479B412E914900EAEE0FFE4FC0B
:10AF0600FE7410FDA804A905AA06AB07900EADE0D5
:0EAF16007F00FEE4FD12198E9004AF121B386E
:01AF2400220A
:10F14600900489E0700C9004C4121A7B9004AF02FC
:09F156001B389004887402F022B9
:104FCC00E4900D21F0900489E0700B9004AF121B5B
:104FDC004400140100229004A5E0FF9004C8E06096
:104FEC00079004887404F022EFF4045FB50703EF14
:054FFC00700302518A60
