:07454600440A31000186A0C8
:10CD0600EF700690078A938001E4900A30F090074E
:10CD16008B121A87900A35121B3890078F121A87C2
:10CD2600900A39121B38900793121A87900A3D020F
:02CD36001B38A8
:07E98E00900A35121A7B22EA
:06EADE00900A35021B380E
:07E99500900A39121A7B22DF
:06EAE400900A39021B3804
:07E99C00900A3D121A7B22D4
:06EAEA00900A3D021B38FA
:10D71100900A30EFF0BF011C12E9B17F007E007D5D
:10D72100007C0012EC7812E9B87F007E007D007C5D
:05D731000012EC78225B
:06EAF000900A30E0FF2255
:107E1600900A30E064017003027EDD7F0612E0C046
:107E2600900967121B38E4FFFE7D207CC29009672B
:107E3600121A97121146900A35121A971212379093
:107E46000977121B38E4FFFE7D207CC29009671279
:107E56001A97121146900A39121A97121237900978
:107E66007B121B387F0212E0C090096B121B38E4AC
:107E7600FFFE7D487CC290096B121A97121146903C
:107E86000A3D121A97121237900977121A97121191
:107E96004690096F121B38E4FFFE7D487CC29009AC
:107EA6006B121A97121146900A3D121A9712123740
:107EB60090097B121A97121146900973121B3812F9
:107EC600E9B190096F121A7B12EC7812E9B89009A1
:077ED60073121A7B12EC7815
:017EDD002282
:07454D00440CDC000186A014
:10E14A0012E96EEF700912E73E12EAF002E5581280
:05E15A00E4F412D711EE
:01E15F00229D
:10DF820012E96EEF700912E73E12E98E02E4D21234
:09DF9200E46612EADE12E73E2209
:10DF9B0012E96EEF700912E73E12E99502E4D21214
:09DFAB00E46612EAE412E73E22EA
:10DFB40012E96EEF700912E73E12E99C02E4D212F4
:09DFC400E46612EAEA12E73E22CB
:07455400440CE0000186A009
:0562E400900B65EFF0D6
:1062E900E4900B6AF0A3F0EF7009E5EF5403600343
:1062F9007F0022900B6CE4F0A3743AF0900B65E0F8
:106309006011900B6CE0FFA3E0900800CFF0A3EFC1
:10631900F08035900BD7E4F0A3743EF07B007A0847
:106329007D007C807F2012C8A37A0B7B69900BD7F4
:10633900E4F0A304F07DFF7C817F2012C8A3900BB9
:1063490069E0F460037F0022900800E0FEA3E0FF0B
:10635900900B6CE06E7003A3E06F60037F00227BFB
:10636900017A087904900B66121BDFEF1FAC0670E7
:10637900011E4C6019900B66E475F001121BC812DE
:106389001677FD900B6AE48DF012173680DD900BBD
:106399006AE0FEA3E0F4FFEEF4900B6AF0A3EFF0DD
:1063A900900B65E06032900B6AE0FFA3E090080271
:1063B900CFF0A3EFF07D017C807F2012A5197B012E
:1063C9007A087900900B0FE4F0A3743EF07D007C0D
:1063D900807F2012912D8033900802E0FEA3E0FF18
:1063E900900B6AE0B50624A3E0B5071F900B69740A
:1063F90001F0FB7A0B7969900B0FE4F0A304F07DAF
:0D640900FF7C817F2012912D7F01227F00FA
:016416002263
:10AA0500E4FF1262E4EF700590080404F090080476
:10AA1500E06401704CA304F0900426121A87900894
:10AA250008121B3890048F121A8790080C121B38D5
:10AA35009004A3121A87900810121B38900447122D
:10AA45001A8790082C121B3812E7FFEF54F0FFE429
:10AA5500C4F854F0C8EFC4540F48FF900837F0808D
:0DAA650005900837E0FF12E13312E9862268
:10BA430012EA3D90082C121B387F0312E0929008F3
:10BA530028121B3812E86B900834EEF0A3EFF07D48
:10BA630001E4FF12B9507D017F0112B9509008180B
:10BA7300121A7B900C5B121B38E4FF12DD749008E2
:0FBA83001C121A7B900C5B121B387F0102DD74C2
:10A4A300C2AFC2AF9008207449F090CC9BE4939064
:10A4B3000821F090CC9CE493900822F090CC9DE48A
:10A4C30093900823F012EC22900837EFF0E4900801
:10A4D30004F07F011262E4900BD77404F0A3E4F05C
:10A4E300FB7A04FD7C807F3012C8A37D017C00E4ED
:10A4F300FF12A5197D017C02E4FF12A5197B017AE5
:10A50300047900900B0F7404F0A3E4F0FDFCFF1238
:06A51300912D75EF1622E8
:07E9A3007B017A08790022D4
:07455B00440B23000186A0C0
:10DFCD00E4900B1FF0A3F0900B27F0A3F012E8A143
:09DFDD00900B21EEF0A3EFF022FD
:10C19100900B21E0FEA3E0FF12D780C3EF9414EED1
:10C1A1009400400B12E8A1900B21EEF0A3EFF09068
:10C1B1000B27E475F001121736D3900B28E0946336
:10C1C100900B27E09400400DE4F0A3F0900B1F7555
:06C1D100F00112173622F6
:09E7F600900B1FE0FEA3E0FF22DE
:0745620044056C000186A076
:108E29007A057B78900BD7E4F0A3742BF07D007C56
:108E3900827F2012C8A374FFFFFE7B017A05797D2A
:108E4900900B2EE4F0A37426F012943A90057BE07F
:108E59006E7003A3E06F6058787D7C057D017BFF10
:108E69007A0479007E007F26121651E4900578F085
:108E7900A3F07B017A05797D900B2EF0742612946C
:108E89003490057BEEF0A3EFF090057A742BF07D1A
:108E9900017C827F2012A5197B017A057978900BD4
:108EA9000FE4F0A3742BF07D007C827F2012912DBA
:0B8EB9007B017A05797DE4FD020AC10F
:10C868007A057B78900BD7E4F0A37405F07D007C03
:10C87800827F2012C8A3900578E0B4FF14A3E0B427
:10C88800FF0FA3E0B4FF0AA3E0F47003A3E0F46091
:0BC89800097D017C827F2012A519227F
:10BBCA00E4F5CF7B017A05797D125DD490057A740C
:10BBDA002BF07B017A05797D900B2EE4F0A3742675
:10BBEA0012943590057BEEF0A3EFF07D017C827F05
:10BBFA002012A5197B017A057978900B0FE4F0A33E
:0CBC0A00742BF07D007C827F2002912DC5
:10599300E4900BB8F0A3F07B017A057974A3121B92
:1059A300DFE4F5CF7A057945125DD4900BBA121B6B
:1059B300BF12176245F070157A0B7BB8900BD7F0C6
:1059C300A37402F07D007C867F2012C8A3900BB8DD
:1059D300E0F47003A3E0F4602D900BBA121BBF90A8
:1059E300000274011216BDE475F0011217C5900B85
:1059F300BA121BBF121762FFAEF0BEFF09BFFF064C
:105A0300E4F5F01217FD900BBA121BBF90000212BF
:105A13001690C3940B4078900002E4121702900092
:105A23000374011216BD900003121690C394044030
:105A33000D900BBA121BBF900003E4121702900BD8
:105A4300BA121BBF90000312169025E0FEE4240057
:105A5300FFEE3486FE900BB6F0FCA3EFF0FD7A0B5D
:105A63007BB8900BD7E4F0A37402F07F2012C8A395
:105A7300900BB8E0F47003A3E0F46013900BB7E06D
:105A83002401FD900BB6E03400FC7F2012A5199091
:105A93000BBA121BBF121762FF900540E5F0F0A38B
:105AA300EFF0A3742C129426900543EEF0A3EFF0CD
:105AB300900BBA121BBF90000312169025E0FEE470
:105AC3002400FFEE3486900BB6F0A3EFF0900002B3
:105AD30012169075F02CA4FF900BB6E5F08FF01220
:105AE3001736900BB6E0FCA3E0FD7B017A05794005
:0E5AF300900B0FE4F0A3742CF07F2002912D95
:05552E00900B6EEFF090
:10553300E4A3F0A3F07B017A057974900B73121B3B
:10554300DF12176245F070157A0B7B6F900BD7F063
:10555300A37402F07D007C867F2012C8A3900B6F9A
:10556300E0F47003A3E0F4602D900B73121BBF9063
:10557300000274011216BDE475F0011217C5900BF9
:1055830073121BBF121762FFAEF0BEFF09BFFF0607
:10559300E4F5F01217FD900B73121BBF121762FF95
:1055A300900540E5F0F0A3EFF0A3742CF090000217
:1055B300121690C3940B500302563C900B73121BAC
:1055C300BF900002E412170290000374011216BD8B
:1055D300900003121690C39404400D900B73121B9A
:1055E300BF900003E4121702900B73121BBF9000CD
:1055F3000312169025E0FEE42400FFEE3486FE90AD
:105603000B71F0FCA3EFF0FD7A0B7B6F900BD7E4EB
:10561300F0A37402F07F2012C8A3900B6FE0F47024
:1056230003A3E0F46013900B72E02401FD900B716F
:10563300E03400FC7F2012A51912539DEFC3940B95
:105643004007900B6EE04401F0900B6EE090056B09
:10565300129426900543EEF0A3EFF0900B73121B08
:10566300BF90000312169025E0FEE42400FFEE3401
:1056730086900B71F0A3EFF090000212169075F074
:105683002CA4FF900B71E5F08FF0121736900B717D
:10569300E0FCA3E0FD7B017A057940900B0FE4F079
:0956A300A3742CF07F2002912D6C
:09E7FF0090057DE0FEA3E0FF227D
:10942600F07B017A057945900B2EE4F07427A3F0C2
:0494360074FFFFFEC2
:06943A00900B2B121BDF5A
:10944000900B30EEF0A3EFF0900B2E74FFF5F012BE
:10945000174C45F0605DE4F5CF900B2B75F00112D1
:109460001BC8121677FE900B30E06EF0A3E0F0E41C
:10947000A3F0900B32E0C3940850CD900B30E0FE87
:10948000A3E0FFEE30E717EF25E0FFEE336410FEB8
:10949000EF6421FF900B30EEF0A3EFF0800D900B06
:1094A00031E025E0F0900B30E033F0900B32E00437
:0B94B000F080BF900B30E0FEA3E0FF57
:0194BB00228E
:0B456900440004000186A0410119007D
:1075B6009007FFEFF07BFF7A057997900B36121B49
:1075C600DF900426121A87900B39121B387B017A3A
:1075D60000790812A6EF7BFF7A0579DF900B361249
:1075E6001BDF90048F121A87900B39121B387B0110
:1075F6007A00793712A6EF7BFF7A067927900B3649
:10760600121BDF9004A3121A87900B39121B387BCA
:10761600017A00796612A6EF7BFF7A0679B7900B9E
:1076260036121BDF900432121A87900B39121B3860
:107636007B017A00799512A6EF7BFF7A06796F9027
:107646000B36121BDF900436121A87900B39121B69
:10765600387B017A0079C412A6EF9007FFE070121A
:10766600FE7F18FD7B017A0079FB121E3BE4FF12B8
:10767600D5DD12E9B1900113121BDF12E9B89001B2
:1076860016121BDF9007FFE0700A900000121B44E1
:057696000000FFFF22CF
:1060710012E9CD900CE4121BDF12EBDA900CE7EF82
:10608100F09006D2E0600F900000121B4400000067
:1060910000E49006D2F0900000121A7BEF5401FF49
:1060A100E4FEFDFCFBFAF9F8C31219B67018900C66
:1060B100E4121BBF1219ED7B017A007937128C5162
:1060C1009000FB121B38900000121A7BEF5402FF64
:1060D100E4FEFDFCFBFAF9F8C31219B6701B900C33
:1060E100E4121BBF900004121A0D7B017A0079663D
:1060F100128C519000FF121B38900000121A7BEF96
:106101005410FFE4FEFDFCFBFAF9F8C31219B67056
:106111001B900CE4121BBF900008121A0D7B017A30
:10612100007908128C5190010B121B38900000125B
:106131001A7BEF5404FFE4FEFDFCFBFAF9F8C312ED
:1061410019B67066900CE7E0702490053A936017D9
:10615100900CE4121BBF90000C121A0D7B017A0007
:106161007995128C51803D7F0312DC9E803690011F
:1061710003121A7BC004C005C006C007900CE412CC
:106181001BBF90001C121A0D7B017A0079C4128C7E
:1061910051A804A905AA06AB07D007D006D005D09F
:0A61A10004121142900103121B3892
:0161AB0022D1
:10DD7400EF75F004A47B0124FBF9740035F0FAC2BA
:0CDD8400AE900C5B121A7B121A3DD2AE5E
:01DD90002270
:10E09200EF75F004A47B0124FBF9740035F0FAC299
:06E0A200AE1219EDD2AE32
:01E0A8002255
:07E9AA007B017A0079FB22DA
:10B95000900E21EFF0ED900000601F121A97C000CA
:10B96000C001E47F01FEFDFC900E21E0F9F8121900
:10B97000DAD001D00012198E8020121A97C000C0B0
:10B9800001E47F01FEFDFC900E21E0F9F81219DAC6
:10B9900012199BD001D000121981900000121B389F
:01B9A0002284
:10D90900AB07E47F01FEFDFCA8031219DA900000C1
:10D91900121A97121981EC4D4E4F60037F01227F35
:02D929000022DA
:10DD9100EFC394055010EF75F02FA42408F9740017
:0DDDA10035F0FA7B01227B007A0079002228
:07E9B1007B017A0079372297
:07E9B8007B017A0079662261
:05864F00900E05EFF0A4
:10865400E4A3F0EFC394004009900E05E0FE9405F6
:1086640040037F0022EE14601D14602A1460371446
:108674006044240470557F0412D909EF70047F010B
:1086840080427F00803EE4FF12D909EF70047F012D
:1086940080027F00802E7F0112D909EF70047F01D0
:1086A40080027F00801E7F0212D909EF70047F01CF
:1086B40080027F00800E7F0212D909EF70047F01CF
:1086C40080027F00900E06EFF08005E4900E06F025
:1086D400900E06E06026900E05E0FEC3940540036C
:1086E4007F0022EEB4030A90053AE49370037F01FD
:0E86F40022900E05E0FF12DD9102D0707F0093
:018702002254
:10DC9E00EFC394004005EF9405400D900119E04448
:0FDCAE0002F0E4FFFEFDFC2212DD9112EC3422A5
:10B80800900C5FEFF0C394004006E0FD94054008FB
:10B81800900119E04402F022ED702790042A121AD0
:10B8280087900B01121B3890042E121A87900B0573
:10B83800121B38900C60121A7B12BFE3900C601236
:10B848001B38900C5FE0FF12DD91A3121A7B12DD0A
:02B85800E822E4
:07457400440CEC000186A0DD
:10CD380012E4F4900E22EFF012E96EEF14700E1266
:10CD4800E73E900E22E0FF12E09202E4D212E4667F
:10CD5800900C5B121B38900E22E0FF12DD7412E774
:01CD68003E8C
:01CD690022A7
:10CFE60012E4F4900E23EFF012E96EEF14700E12B5
:10CFF600E73E900E23E0FF12D90902E55812E4F449
:0DD00600AD07900E23E0FF12B95012E73E77
:01D0130022FA
:10D7360012E96EEFC394015005E4FF02E6D912EC3C
:10D746004C900E24EFF012E73E900E24E0FF128676
:04D756004F12EC7E04
:01D75A0022AC
:10C7750012EC4C900C64EFF012E96EEFD39401408B
:10C785001D12E466900C65121B38900C65121A7B1D
:10C79500900C60121B38900C64E0FF02B80812E799
:0CC7A5003E900C64E0FF12DC9E12E4D217
:01C7B1002265
:10BF080012E9BF900DB4121BDF900DB4121BBFE9EC
:10BF18004A4B70057F0102E6D912E96EEFD394010E
:10BF2800400C12E466900DB4121BBF02EC7812E7C5
:10BF38003E900DB4121BBF12EC3812E4D27F007E83
:08BF4800007D007C0012E4D230
:01BF500022CE
:10D4770012E9BF900DB7121BDF900DB7121BBFE962
:10D487004A4B7004FF02E6D912E73E900DB7121B14
:07D49700BF12EC3C12E4D2CD
:01D49E00226B
:10D49F0012E9BF900DBA121BDF900DBA121BBFE934
:10D4AF004A4B7004FF02E6D912E73E900DBA121BE9
:07D4BF00BF12EC4012E4D2A1
:01D4C6002243
:10D4C70012E9BF900DBD121BDF900DBD121BBFE906
:10D4D7004A4B7004FF02E6D912E73E900DBD121BBE
:07D4E700BF12E95E12EC7EAA
:01D4EE00221B
:10D4EF0012E9BF900DC0121BDF900DC0121BBFE9D8
:10D4FF004A4B7004FF02E6D912E73E900DC0121B93
:07D50F00BF12EC4412E4D24C
:01D5160022F2
:07E9BF0012EC4C12DD912265
:10AD580012E96E900CEAE4F0A3EFF012E96EEF143A
:10AD680014702812EC4C900CE9EFF012E73E900CAE
:10AD7800E9E0B4030E12EBDAEF70047F0380097F79
:10AD8800048005900CE9E0FF02EC7E12EC4C900C7C
:10AD9800E8EFF012EC4C900CE9EFF012E73E900C63
:10ADA800E9E0B40310900CE8E0B40304E4FF800287
:05ADB8007F0112D5DD52
:01ADBD002273
:10C02C00E490021FF07B017A0279327C027D36901B
:10C03C000BDE7406F0A37410F012C9CA7B017A02ED
:10C04C0079347C027D96900BDE7404F0A37410F0AE
:10C05C0012C9CA7B017A0279207C027D22900BDE08
:08C06C007404F0A3F002C9CA3C
:10DE77007B017A02792012DA5D8F828E83E4F0A328
:0ADE8700F08F828E83A3A3F0A3F0B6
:01DE9100226E
:089C7B00900CF0EEF0A3EFF0F5
:109C8300F5828E83E0FEA3E0FF4E600312C582904F
:109C93000CF0E0FEA3E0FFF5828E83A3A3E0FCA318
:109CA300E04C60468F828E83A3A3E0FCA3E0FD908B
:109CB3000CF2ECF0FAA3EDF0FB2404F582E43CF59E
:109CC30083E0FDA3E08F828E83A3A3CDF0A3EDF009
:109CD3008B828A8312C57B7B017A027932900CF2E4
:109CE300E0FCA3E0FD12E1B880A57B017A027920B4
:0B9CF300900CF0E0FCA3E0FD02E1B8E3
:10C26100900C18EEF0A3EFF0900C1CEAF0A3EBF0A9
:08C27100900C1AECF0A3EDF0B3
:10C27900900C18E0FEA3E0FF12D126EF4E7011904A
:10C289000C18E0FEA3E0FFA3E0FCA3E0FD12842D5F
:0BC29900900C1CE0FCA3E0FD02909460
:085F2A00900B76EEF0A3EFF0FE
:105F3200900B76E0FEA3E0FFF5828E83A3A3E0FD43
:105F4200A3E0900B78CDF0A3EDF08F828E83E0FE7C
:105F5200A3E0FF4E604B8F828E83E0FEA3E0AA0691
:105F6200F9121D4C900B76E0FEA3E0FFF5828E83C2
:105F7200E0FCA3E0FD900B7CECF0A3EDF0F5828C4D
:105F820083A3A3E0FDA3E08F828E83CDF0A3EDF087
:105F92007B017A027934900B7CE0FCA3E0FD02E104
:105FA200B8900B78E0FEA3E0FF4E70030260708FA2
:105FB200828E83A3A3E0FEA3E04E7008900B78E0EC
:105FC200FEA38050900B78E0FEA3E0F5828E83E082
:105FD200FEA3E0AA06F9121D4CEF64017072900B49
:105FE20078E0FEA3E0F5828E83A3A3E0FEA3E0FFA8
:105FF200900B76E0FCA3E0FDF5828C83EEF0A3EF3C
:10600200F08D828C83E0FEA3E04E7032900B78E03C
:10601200FEA3E0FFA3EEF0FCA3EFF0FD2404F58263
:10602200E43EF583E0FFA3E0900B78CFF0A3EFF01E
:10603200900B76E0FEA3E0FF12806D025FA3900B4F
:1060420078E0FEA3E0F5828E83A3A3E4F0A3F0221E
:10605200900B78E0FEA3E02404F582E43EF583E0B1
:0E606200FFA3E0900B78CFF0A3EFF0025FA356
:01607000220D
:04D126008F828E83E3
:10D12A00A3A3801CEF4E601F8F828E83E0FAA3E0D8
:10D13A006D7002EA6C6010EF2404F582E43EF58318
:07D14A00E0FEA3E0FF80DD21
:01D1510022BB
:10842D00900C20ECF0A3EDF0900C1EEEF0A3EFF00D
:10843D00E4FDFC8F828E83A3A3E0FFA3E0900C22CA
:10844D00CFF0A3EFF07B017A02793212DA5DAC0640
:10845D00AD07ED4C700990021F04F0E4FEFF22ED14
:10846D002404F582E43CF583E4F0A3F08D828C8343
:10847D00A3A3F0A3F0900C20E0FFA3E08D828C83EA
:10848D00CFF0A3EFF0900C22E07002A3E0700F90FC
:10849D000C1EE0FEA3E0F5828E83A3A38030900C2A
:1084AD0022E0FEA3E02404F582E43EF583E0FEA382
:1084BD00E0FF4E600A900C22EEF0A3EFF080DF900B
:1084CD000C22E0FEA3E02404F582E43EF583ECF0FB
:0784DD00A3EDF0AE04AF05B2
:0184E4002275
:10806D00900CF6ECF0A3EDF0900CF4EEF0A3EFF025
:10807D00F5828E83A3A3E0FEA3E0FF900CF6E0B59E
:10808D000627A3E0B50722EF2404F582E43EF5832D
:10809D00E0FEA3E0FF900CF4E0FCA3E0F5828C83FE
:1080AD00A3A3EEF0A3EFF0805CEF4E6058EF240435
:1080BD00F582E43EF583E0FCA3E0FD900CF6E0FADA
:1080CD00A3E0FBEDB5032EECB5022AEF2404F582F7
:1080DD00E43EF583E0FCA3E02404F582E43CF58363
:1080ED00E0FCA3E0FDEF2404F582E43EF583ECF023
:1080FD00A3EDF08010EF2404F582E43EF583E0FE5D
:10810D00A3E0FF80A4900CF6E0FEA3E0F5828E8341
:10811D0012C57B7B017A027932900CF6E0FCA3E06C
:04812D00FD02E1B8B6
:0E909400900C24EEF0A3EFF0A3ECF0A3EDF0AF
:1090A200E4FFFE7B017A02793412DA5DEF4E700939
:1090B20090021F04F0E4FEFF228F828E83A3A3E4BA
:1090C200F0A3F0900C26E0FDA3E08F828E83CDF01A
:1090D200A3EDF0900C24E0FCA3E0FD4C604C8D82EB
:1090E2008C83A3A3E0FCA3E0FD900C28ECF0A3ED9D
:1090F200F04C7005900C248022900C28E0FCA3E038
:10910200F5828C83A3A3E0FCA3E0FD4C600A900CE3
:1091120028ECF0A3EDF080E1900C28E0FCA3E0F550
:0A912200828C83A3A3EEF0A3EFF00C
:01912C002220
:07C57B00A3A3E0FEA3E0FF13
:08C58200900CF8EEF0A3EFF0BD
:10C58A00900CF8E0FEA3E0FF4E6025A3EEF0FCA3BA
:10C59A00EFF0FDF5828E83A3A3E0FFA3E0900CF8F1
:10C5AA00CFF0A3EFF07B017A02793412E1B880D0A0
:01C5BA00225E
:10DE3F00900DC3121BDFED1216F012EBF8900DC30D
:0CDE4F00121BBF900001E48FF002181CB1
:06B85A00900DC6121BDF79
:10B8600012EBF8900DC6121BBF90000112178DFE4F
:10B87000C3EF9EFE121677FD6027EED39D40099020
:10B880000DC6121BBFE48016EFFD900DC6121BBF44
:10B89000900001E48DF012181C121677C39E121648
:0BB8A000F0900DC6121BBF121677FFC0
:01B8AB00227A
:10040000000403E800B0103F000F0D0D0001054689
:10041000000201F400BF0BB800000014000000004F
:100420000064005A000042480000C120000042A0C1
:100430000000428C00003CF5C28F004342000000E7
:1004400000000041A0000043340000BD4CCCCD3C76
:10045000F5C28F3F00000041A000000000000043F3
:100460003F4CCD43440CCD40A0000241B333340097
:1004700000000043D48000C1A0000041A000004360
:1004800005D238441C78D7B73A5B1432A90F8C4296
:10049000AA0000430A662A441EB816B765BE1F327A
:1004A0007BF48542AA00000000000000000000422A
:1004B0006E976C3DA1AB423C16F76AB99A975842C9
:1004C0003400003D354B163AC478403994334244E9
:1004D0007A00004341E6663C2E1DAABA03CCFFB861
:1004E00027C5AC381F62303A378034B851B717345B
:1004F000D6BF9534D6BF953F800000003F800000F6
:1005000040400000001442480000C47A00003B0351
:10051000126F4602340003E83B449BA63951B717DB
:10052000177038D1B717437A000038D1B717437A1C
:1005300000003B03126FC37A00000043AF00003D90
:10054000CCCCCD3F800000431600004775A6003D8F
:100550001F70F13ECCCCCD42480000437A00000031
:100560000000003D8F5C29437A0000000000003D40
:100570008F5C293F970A3D00000000C0100000403A
:100580001000004660740000000000C628EB3346EF
:10059000CCCC0046CCCC003D4CCCCD00000000BF04
:1005A000C000003FC0000038FBA8823DCCCCCD3C51
:1005B000A3D70A00000000BFC000003FC000003900
:1005C00051B7173DCCCCCD3C23D70A3F99999A3FE0
:1005D000C000003F0000003F99999A41A00000B977
:1005E00051B717BA83126F000000003D8F5C29B726
:1005F000FBA8823DCCCCCDB951B717B851B7170085
:100600000000003D8F5C29B7A7C5AC3DCCCCCD3CEC
:1006100023D70A3F99999A40000000000000003F4C
:1006200099999A42700000B951B717BA83126F00B6
:100630000000003D8F5C29B7FBA8823DCCCCCDB932
:1006400051B717B851B717000000003D8F5C29B7AC
:10065000A7C5AC3DCCCCCD3C23D70A3F99999A4055
:10066000000000000000003F99999A427000003B92
:10067000C49BA63C23D70ABF8000003F8000003403
:1006800056BF953DCCCCCD3B449BA63D4CCCCDBF7D
:100690008000003F80000033D6BF953DCCCCCD3BE1
:1006A00003126F3F99999A3DCCCCCD3D4CCCCD3FB8
:1006B00099999A41A00000B951B7170000000000B5
:1006C0000000003D8F5C29B727C5AC3DCCCCCDB830
:1006D000D1B71700000000000000003D8F5C29B773
:1006E00027C5AC3DCCCCCD3F0000003F99999A4046
:1006F0000000003DCCCCCD3F99999A427000000A91
:1007000000C900C6009E0061002600030007002FFC
:10071000006C00A7000004B3079B079B04B3000014
:10072000FB4DF865F865FB4D07FF06780279FD87FC
:10073000F988F801F988FD870279067800B332223A
:100740008585FFFF013AC49BA63C23D70A3E4CCCCB
:10075000CD3E4CCCCD0000000043D48000C2480008
:100760000042C8000041F00000428C0000C2480076
:1007700000430C0000C2480000430C0000033E4C44
:10078000CCCD45D4800043A28000010000000000D1
:10079000000000000000003F800000B8D1B7173B08
:1007A00003126F4475616C207549544C41205454B8
:1007B00058330000000000000000000000000000AE
:1007C0000000005043423A20363232323534205253
:1007D00065762041000000000000000000000000DD
:1007E00000000000004357207549544C414E454FCE
:1007F0000000005454583139393537353930304ECE
:100800004830004352544D2D3030302D3030303090
:10081000300030312D4155472D32303134004857AA
:1008200020332E302E30004153204331004F5420CE
:10083000312E302E3000485720332E302E300041DC
:1008400053204331004F5420312E302E3000000110
:100850003F8000003F800000424800003E99999A86
:07457B00440CFC000186A0C6
:104582004406E9000186A04206E700004106D20087
:108EC400900E25EFF09006B8121B4400000000E459
:108ED40090070BF09006BCF0A3F09006F1121B442F
:108EE400000000009006F5121B44000000009007EB
:108EF400E4E493FB30E00C9006B4121B4445E87E96
:108F0400BC8017EB9006B430E409121B4446048B72
:108F14007D8007121B4445C6D1639007E4E4933077
:108F2400E1159006B4121A7BE4FBFAF978401212A8
:108F3400379006B4121B38900E25E0701D9006E79A
:108F4400F0A3F0FE7F12FD7B017A0679F9121E3B35
:0B8F5400900701747FF0A374FFF0226F
:103004009006E7E0FEA3E0FF4E602CEF64014E70F3
:103014001CFD7F07128131E4FD7F0312813190068C
:10302400D27401F0900BEEF0A280B392809006E788
:1030340074FFF5F01217369006B8121A7BEF54801D
:10304400FFE4FEFDFCFBFAF9F8C31219B6600302B3
:103054003124FF12E092C004C005C006C0079005E9
:103064005F121A87900B01121B38900563121A879E
:10307400900B05121B38D007D006D005D00412BF20
:10308400E39009F9121B389009F9121A7B90055B39
:10309400121AA31212377BF37A43794A784D12122B
:1030A40037128917121499900707EEF0A3EFF090E6
:1030B40006F1121A97900707E0FEA3E0FFE4FCFD77
:1030C4001218499006F1121B389006F1121A7BC0AF
:1030D40006C0079006BCE025E024BEF582E4340671
:1030E400F583E0FEA3E0FBAA06E4F9F8D007D006D6
:1030F4001218569006F1121B38900707E0FEA3E061
:10310400FF9006BCE025E024BEF582E43406F58396
:10311400EEF0A3EFF09006BCE004F0B40A02E4F091
:103124009006B8121A7BEF5408FFE4FEFDFCFBFA8C
:10313400F9F8C31219B6600302320E7F0112E0924D
:10314400C004C005C006C00790056B121A87900B17
:1031540001121B3890056F121A87900B05121B3849
:10316400D007D006D005D00412BFE39009F9121B92
:10317400389009F9121A7B900567121AA3121237B4
:103184007BF37A43794A784D121237128917121455
:10319400999006FFEEF0A3EFF09006F5121A9790BF
:1031A40006FFE0FEA3E0FFE4FCFD1218499006F5DB
:1031B400121B389006F5121A7BC006C0079006BD94
:1031C400E025E024D3F582E43406F583E0FEA3E0B1
:1031D400FBAA06E4F9F8D007D0061218569006F5B3
:1031E400121B389006FFE0FEA3E0FF9006BDE02529
:1031F400E024D3F582E43406F583EEF0A3EFF090F7
:1032040006BDE004F0B40A02E4F09006B8121A7B9A
:10321400EF5410FFE4FEFDFCFBFAF9F8C31219B6F3
:1032240070697F0412E092C004C005C006C0079014
:10323400057B121A87900B01121B3890057F121A16
:1032440087900B05121B38D007D006D005D0041286
:10325400BFE312144A9009F5121B38900583121A21
:1032640087121499AD07AC06EC1214609009F5129C
:103274001A971212377B007AFE79FF7846121146AC
:10328400121499900701EEF0A3EFF07F0212E0927E
:103294009009FD121B389006B8121A7BEF5402FFF6
:1032A400E4FEFDFCFBFAF9F8C31219B6600302331D
:1032B4007890053A93605190055F121A87900B013C
:1032C400121B38900563121A87900B05121B389055
:1032D40009FD121A7B12BFE39009F9121B389009F9
:1032E400F9121A7B90055B121AA31212377BF37A38
:1032F40043794A784D121237128917121499AD077F
:10330400AC06E4121460803E7F0212E0C0C004C028
:1033140005C006C007900577121AA39009FD121A7A
:103324007B121142D003D002D001D000121142907E
:103334000573121AA31213401289177B007ACC79F1
:103344004C7846121237900A01121B38900B011266
:103354001B4400000000900B05121B44477FFF0034
:10336400900A01121A7B12BFE31214999006FBEE25
:10337400F0A3EFF07F0312E0927B007A2479747853
:1033840049121237121499900A05121B38900A0533
:10339400121A7BEC12145BC004C005C006C007906F
:1033A4000B01121B44000000007F007EFF7D7F7C28
:1033B400479006B4121A97121237900B05121B3855
:1033C400D007D006D005D00412BFE3121499900A96
:1033D40005121B38900A05121A7BEC12145B7B6FE2
:1033E4007A127983783A1213DD5033900A05121A4F
:1033F40097C000C001C002C0037F007E247D747C9E
:1034040049900587121AA3121237121499D003D0C7
:1034140002D001D000121849900A05121B389006F8
:10342400B8121A7BEF5420FFE4FEFDFCFBFAF9F816
:10343400C31219B6701E900A05121A7BEC12145BA3
:103444009006B4121A97121340121499900703EEBF
:10345400F0A3EFF09006B8121A7BEF5401FFE4FEDC
:10346400FDFCFBFAF9F8C31219B6701A9007E4933D
:103474009006F930E40974D4F0A3747AF0800774E8
:10348400B8F0A37451F09006B8121A7BEF5440FFC1
:10349400E4FEFDFCFBFAF9F8C31219B6701A9007A2
:1034A400E49390070530E409742BF0A37485F0804D
:1034B400077447F0A374AEF09006B8121A7BEF5469
:1034C40004FFE4FEFDFCFBFAF9F8C31219B6700A16
:0A34D4009006FD743BF0A37430F085
:0134DE0022CB
:07E9C6007B017A0679F922BA
:10DDAE00900E26EFF0AF057B017A0679F9E075F05B
:0DDDBE0002A4F58285F083EC8FF002181CA2
:10E0A9007B017A0679F975F002EFA4F58285F08390
:07E0B90012178DFFAEF022EB
:10813100900E27EFF0ED9006B8B4011F121A97C008
:1081410000C001E47F01FEFDFC900E27E0F9F8126A
:1081510019DAD001D00012198E8020121A97C000AE
:10816100C001E47F01FEFDFC900E27E0F9F8121931
:10817100DA12199BD001D0001219819006B8121B96
:10818100389006ED121B44000000009006ED121A13
:1081910097C000C001E47F01FEFDFC900E27E0F9CD
:1081A100F81219DAD001D00012198E9006ED121BC7
:1081B100389006ED121A7BEE4408FEEC9006ED12A3
:1081C1001B389006ED121B44000000009006ED12D2
:1081D1001A97C000C001E47F01FEFDFC900E27E06C
:1081E1002419F9F81219DAD001D00012198E90066B
:0481F100ED021B3848
:10D92B00AB07E47F01FEFDFCA8031219DA9006B8E1
:10D93B00121A97121981EC4D4E4F60037F01227F13
:02D94B000022B8
:10CF270012E4F4900E28EFF012E96EEF14700E126F
:10CF3700E73E900E28E0FF12E0A902EC8112EC50C8
:0FCF4700AC06AD07900E28E0FF12DDAE12E73EFC
:01CF560022B8
:10D0140012E4F4900E29EFF012E96EEF14700E1280
:10D02400E73E900E29E0FF12D92B02E55812E4F4F2
:0DD03400AD07900E29E0FF12813112E73E9A
:01D0410022CC
:07459200440409000186A0AA
:10DCBD00AB079003F9121B4400000000EB700DFE42
:0FDCCD007F50FD7B017A04790D121E3B0289BF47
:1089BF00E4FBFA7980784B90053B121A871213402B
:1089CF00900522121AA3121340900526121AA31211
:1089DF0013409003FD121B38900522121AA3E4FFD7
:1089EF00FE7D807CBF121340E4FBFA79C8784112F8
:1089FF00114690045D121B38E4FBFA7980784B9096
:108A0F00053B121A8712134090052A121AA312134C
:108A1F004090052E121AA3121340900401121B3816
:108A2F0090052A121AA3E4FFFE7D807CBF1213402B
:108A3F00E4FBFA79C87841121146900461121B3891
:108A4F00900532121A87900405121B3890053612C2
:088A5F001A87900465021B3820
:101F070012EA9F900A9E121BDF9003F9121A7BEFC9
:101F17005401FFE4FEFDFCFBFAF9F8C31219B67091
:101F270020FF12E3B9E412145B9003FD121A971213
:101F3700123790045D121A9712114690040D121B66
:101F4700389003F9121A7BEF5402FFE4FEFDFCFB05
:101F5700FAF9F8C31219B670217F0112E3B9E41236
:101F6700145B900401121A97121237900461121A27
:101F770097121146900411121B389003F9121A7B1D
:101F8700EF5404FFE4FEFDFCFBFAF9F8C31219B69F
:101F9700600302207C9007E493900A9E30E5691263
:101FA7001BBF90000812178DFDACF0E41214607B84
:101FB700007AF0799B7845121237C004C005C00635
:101FC700C007900A9E121BBF90000812178DAEF033
:101FD700FBE4C39BFFE49EFE74019400FDE49400C0
:101FE700FC12145BA804A905AA06AB07D007D00604
:101FF700D005D004121340900A92121B38900A920F
:10200700121A7B12A0E28067121BBF9000081217FA
:102017008DFDACF0E41214607B007AEC79427847CE
:10202700121237C004C005C006C007900A9E121BD3
:10203700BF90000812178DAEF0FBE4C39BFFE49E30
:10204700FE74019400FDE49400FC12145BA804A93B
:1020570005AA06AB07D007D006D005D00412134057
:10206700900A92121B38900A92121A7B12A15B9067
:102077000415121B389003F9121A7BEF5408FFE47A
:10208700FEFDFCFBFAF9F8C31219B6703890053A51
:10209700936027900A9E121BBF90000A12178DFDAE
:1020A700ACF0E4121460900405121A9712123790DC
:1020B7000465121A9712114680057F0212E092906A
:1020C7000419121B389003F9121A7BEF5420FFE40E
:1020D700FEFDFCFBFAF9F8C31219B6702F900A9EA1
:1020E700121BBF90001812178DFDACF0E41214609C
:1020F7007BE67A6A79B478391212377BD77AA37973
:102107002078C1121146900421121B389003F9124E
:102117001A7BEF5410FFE4FEFDFCFBFAF9F8C3123B
:1021270019B67033900A9E121BBF90000E12178DBE
:10213700FDACF0E4121460A804A905AA06AB079049
:10214700054B121A8712114290054F121AA3121249
:102157003790041D121B387F0312E09290044D1232
:102167001B387B017A0A7996900AB2121BDF7A0A2A
:102177007992129709E4FFFE7D207C4190044D126D
:102187001A97121146C004C005C006C0079005473C
:10219700121A87900543121AA3121237D003D002DE
:1021A700D001D000121340900A9A121B389003F9FD
:1021B700121A7BEF5480FFE4FEFDFCFBFAF9F8C32B
:1021C7001219B67015900A92121A7B900A9A121A6F
:1021D70097121237900429121B389003F9121A7BB1
:1021E700E4FFEE5401FEE4FDFCFBFAF9F8C3121913
:1021F700B67015900A96121A7B900A9A121A9712BD
:10220700123790042D121B389003F9121A7BE4FF42
:10221700FEED5402FDE4FCFBFAF9F8C31219B6709F
:1022270019900A9E121BBF90000C12178DFDACF07F
:10223700E4121460900451121B389003F9121A7BB0
:10224700E4FFFEED5404FDE4FCFBFAF9F8C31219B0
:10225700B67043900A9E121BBF90001412178DFD93
:10226700ACF0E4121460E4FBFA79207840121237DC
:102277007B007AFF797F7847121340E4FBFA79A055
:1022870078BF1211467B667A667906783F1213404B
:10229700900455121B389003F9121A7BE4FFFEEDE8
:1022A7005408FDE4FCFBFAF9F8C31219B670429022
:1022B7000A9E121BBF90001612178DFDACF0E41298
:1022C7001460E4FBFA792078401212377B007AFF1A
:1022D700797F7847121340E4FBFA79A078BF12118F
:1022E70046E4FBFA7980783E121340900459121B9A
:1022F700389003F9121A7BEF5440FFE4FEFDFCFB14
:10230700FAF9F8C31219B6706B900A9E121BBF90A8
:10231700001212178DFDACF0E4121460A804A90591
:10232700AA06AB07E4FFFE7D807C47121142C0047A
:10233700C005C006C007900A9E121BBF900012126C
:10234700178DFDACF0E41214607B007AD079CF785A
:1023570045121237D003D002D001D000121340909B
:102367000A92121B38900A92121A7B12A1D4900477
:1023770025121B3890053F121AA3E4FFFE7D807CCF
:102387003F121142900431121A97121237C004C03B
:1023970005C006C00790040D121A7B90053F121A5C
:1023A700A3121237D003D002D001D00012114690E9
:1023B7000431121B3890053F121AA3E4FFFE7D80FB
:1023C7007C3F121142900435121A97121237C0043B
:1023D700C005C006C007900411121A7B90053F1272
:1023E7001AA3121237D003D002D001D0001211461F
:1023F700900435121B3890053F121AA3E4FFFE7DA7
:10240700807C3F121142900439121A97121237C07A
:1024170004C005C006C007900415121A7B90053F3B
:10242700121AA3121237D003D002D001D000121112
:1024370046900439121B3890053F121AA3E4FFFE99
:102447007D807C3F12114290043D121A9712123779
:10245700C004C005C006C007900419121A7B900576
:102467003F121AA3121237D003D002D001D00012A4
:10247700114690043D121B3890053F121AA3E4FF42
:10248700FE7D807C3F121142900441121A9712126E
:1024970037C004C005C006C00790041D121A7B9000
:1024A700053F121AA3121237D003D002D001D00071
:1024B700121146900441121B3890053F121AA3E4EB
:1024C700FFFE7D807C3F121142900445121A97123D
:1024D7001237C004C005C006C007900429121A7B32
:1024E70090053F121AA3121237D003D002D001D0A1
:1024F70000121146900445121B3890053F121AA38B
:10250700E4FFFE7D807C3F121142900449121A9726
:10251700121237C004C005C006C00790042D121A56
:102527007B90053F121AA3121237D003D002D001B5
:0B253700D000121146900449021B382E
:10A0E200124339900D00121B387F5D7E757D567CC0
:10A0F20034900D00121A97121237900D00121A970F
:10A10200121237900D00121A97121237C004C005AE
:10A11200C006C0077F2C7E647D837C39900D0012BF
:10A122001A971212377B7B7AA87969783A1211460C
:10A13200D003D002D001D000121146A804A905AA6A
:10A1420006AB07E4FFFE7D807C3F1213407B337A2F
:08A1520093798878C3121146CD
:01A15A0022E2
:10DDCB00EF75F004A47B01240DF9740435F0FAC24D
:0CDDDB00AE900C6A121A7B121A3DD2AEF8
:01DDE7002219
:10E0C000EF75F004A47B01240DF9740435F0FAC255
:06E0D000AE1219EDD2AE04
:01E0D6002227
:07E9CD007B017A04790D22A1
:10B9A100900E2AEFF0ED9003F9601F121A97C00074
:10B9B100C001E47F01FEFDFC900E2AE0F9F81219A6
:10B9C100DAD001D00012198E8020121A97C000C05F
:10B9D10001E47F01FEFDFC900E2AE0F9F81219DA6C
:10B9E10012199BD001D0001219819003F9121B3852
:01B9F1002233
:10D94D00AB07E47F01FEFDFCA8031219DA9003F981
:10D95D00121A97121981EC4D4E4F60037F01227FF1
:02D96D00002296
:10A15B00124339900D04121B387F3B7E867D587C51
:10A16B0033900D04121A97121237900D04121A978E
:10A17B00121237900D04121A97121237C004C00531
:10A18B00C006C0077FA37E3A7D4C7C39900D04122C
:10A19B001A971212377B1D7AA07987783A121146DB
:10A1AB00D003D002D001D000121146A804A905AAF1
:10A1BB0006AB07E4FFFE7D807C3F1213407B337AB6
:08A1CB0093798878C312114654
:01A1D3002269
:10A1D400124339900D08121B387F9C7E4F7D547CAE
:10A1E40034900D08121A97121237900D08121A970C
:10A1F400121237900D08121A97121237C004C005B4
:10A20400C006C0077F2C7E647D837C39900D0812C4
:10A214001A971212377B7B7AA87969783A12114619
:10A22400D003D002D001D000121146A804A905AA77
:10A2340006AB07E4FFFE7D807C3F1213407B337A3C
:08A2440093798878C3121146DA
:01A24C0022EF
:10CD6A0012E4F4900E2BEFF012E96EEF14700E122B
:10CD7A00E73E900E2BE0FF12E0C002E4D212E46616
:10CD8A00900C6A121B38900E2BE0FF12DDCB12E7D3
:01CD9A003E5A
:01CD9B002275
:10D0420012E4F4900E2CEFF012E96EEF14700E124F
:10D05200E73E900E2CE0FF12D94D02E55812E4F49F
:0DD06200AD07900E2CE0FF12B9A112E73EC1
:01D06F00229E
:10A6EF00900B33121BDFE4900E2DF0900B36121BE4
:10A6FF00BFC003C002C001900B33121BBF900026D6
:10A70F00121C93900B33121BBF9000297401121768
:10A71F000290002A7401121702C003C002C00190F8
:10A72F000B36121BBF900ADB121BDF900B36121B6E
:10A73F00BFE92430F9E43AFA900ADE121BDF900BDE
:10A74F0039121A7B900AE1121B38D001D002D003C4
:03A75F00028CEF7A
:108C5100900BC0121B38900BBD121BDF90002A1223
:108C61001690601C900BBD121BBF900BC0121A7B9B
:108C7100129552900BBD121BBF90002AE4121702ED
:108C8100900BBD121BBF900029121690703B9000F3
:108C91002B121AD3900BC0121A7B12114212E70D3C
:108CA100900BBD121BBF900026121C639000441252
:108CB1001AD31213DD5012900E2DE004F0900BBD6B
:108CC100121BBF900008021A0D900BC0121A7B9064
:108CD1000BBD121BBF90002B121A5712BC16900B22
:0E8CE100BD121BBF900BC0121A7B1241142251
:04EC340012EC582264
:10DDE800900DC9121BDF900DC9121BBF12EC879052
:0DDDF8000DC9121BBF90002A740102170212
:03EC780002EBB6F6
:04EC380012EA752245
:10955200900BC7121B38900BC4121BDF12EC5890F1
:109562000BC7121A9712114212E70D900BC4121B6D
:10957200BF900026121C6390003C121AD31213DD16
:109582005028900BC4121BBF7D0112C6BB900BC4A6
:10959200121BBF121AB3900BC7121A7B1211429000
:1095A2000BC4121BBF90000C800F900BC7121A7BCA
:1095B200900BC4121BBF90002B121A57900BC412AF
:1095C2001BBF900026121C63900034121A0D9000EB
:1095D20030121AD3121237900BC4121BBF90001410
:0395E200021A5713
:10D07000900DCC121BDF900DCC121BBF127C83EFE6
:10D080006019900DCC121BBF900029121690700BE6
:0ED0900090002A12169070037F01227F00226A
:04EC3C0012EA7C223A
:04EC400012EA83222F
:04EC440012EA8A2224
:10E3F500900029740112170290002A740112170265
:03E4050002EBBC6B
:06BC1600900BCB121BDFB6
:10BC1C00900029121690603D900BCB121BBF900028
:10BC2C000C121A0D12E70D900BCE121B38900BCB89
:10BC3C00121BBF900026121C63900038121A0D9034
:10BC4C000BCE121A971213DD500B900BCB121BBF9D
:05BC5C00E4FD12C6BB6F
:01BC610022C0
:10C6BB00900DCF121BDF900029ED121702ED900D9C
:10C6CB00CF7012121BBF900026121C63E92418F9BD
:10C6DB00E43AFA8009121BBF900026121C63900CDF
:0EC6EB0051121BDF900DCF121BBF12DCDC22A0
:08E95E00900029121690FF221F
:07459900440719000186A090
:10D75B009007497401F0900721F090073CF0E4909A
:10D76B000722F012E9B190074E121BDF12E9B890B5
:05D77B000751021BDF55
:109D7D00900E2EEFF0706E90070C121B4400000039
:109D8D000090072B121B4400000000900738121B97
:109D9D00440000000090071D121B4400000000E469
:109DAD0090072FF0900714F090074E121BBF12EC86
:109DBD0034900741121B38900751121BBF12EC341F
:109DCD00900745121B387F0412E0C090074A121B02
:109DDD0038900727121B4400000000900754121BF7
:0E9DED004400000000900E2EE0900749F02286
:06EAF600900749E0FF2239
:0FE59800900721E06F6007EFF07003A304F022FB
:06EAFC00900721E0FF225B
:06EB020090073CEFF02239
:06EB080090073CE0FF2233
:07E9D40090071D121A7B22BF
:07E9DB00900738121A7B229D
:10E53800900738121A7B900738121A97121237224E
:03EC7B007F0122F4
:0745A000440D0C000186A090
:10E1600012E96EEF700912E73E12EAF602E5581264
:05E17000E4F4129D7DA6
:01E175002287
:10E1760012E96EEF700912E73E12EAFC02E5581248
:05E18600E4F412E5982D
:01E18B002271
:10E18C0012E96EEF700912E73E12EB0802E5581225
:05E19C00E4F412EB02A7
:01E1A100225B
:09E8080012E73E12E9DB02E4D242
:09E8110012E73E12E53802E4D2E0
:09E81A0012E73E12EC7B02EC7ED9
:09E8230012E73E12E9D402E4D22E
:0745A700440D10000186A085
:10D51700A2AF9200AEF5C2AFC2AFC3EC9480400693
:10D5270053F5CFEF42F58C088D098D828C83E493F8
:07D53700FF8EF5A20092AF88
:01D53E0022CA
:10C8A300900BD3ECF0A3EDF0A907900BD774FFF531
:10C8B300F012174C45F06022AF01900BD3E475F0F2
:10C8C3000112174CADF0FC12D5170BEBAC02700143
:0BC8D3000A14F5828C83EFF080D02265
:0BA51900900C6EEFF0A3ECF0A3EDF04F
:10A52400A2AF9201A3E5F5F012EBE6900C72EFF006
:10A534006005E4FF12EC94C2AFC2AF43B602900CC4
:10A544006FE0FEA3E0AC068C0AF50BC3EE948040EA
:10A554000953F5CF900C6EE042F5758F02438F01DD
:10A5640075B7A575B7F1850B82850A83E4F0F58F7D
:10A5740053B6FD900C71E0F5F5A20192AFA20192E1
:0AA58400AFA3E060057F0112EC9424
:01A58E0022AA
:109B7100EF7F0025E0FEE4FCFD900C74121B38E43D
:109B8100FF7E80FDFC900C74121A97C31219B65017
:109B910007E4900C73F0804DE4FFFE7D01FC900C16
:109BA10074121A97C31219B65008900C737410F0FE
:109BB10080337F007E807D017C00900C74121A97A7
:109BC100C31219B65019900C74121A7BEE4480FE20
:109BD100EC900C74121B38900C737420F08006907A
:109BE1000C737430F0900C73E0FF900C76E0FCA3E2
:059BF100E0FD02A519D2
:0B912D00900B09EFF0900B0C121BDF01
:10913800A2AF9202900B11E5F5F0C2AFC2AF43B6F1
:1091480002AF05AE048E0C8F0DC3EE948040095318
:10915800F5CF900B09E042F5E4900B12F0A3F090E4
:109168000B0FE0FEA3E0FF900B12E0FCA3E0FDC3B1
:109178009FEC9E5039900B0C121BBF8D828C831272
:109188001690FFF46014758F0175B7A575B7F18552
:109198000D82850C83EFF0E4F58F050DE50D700267
:1091A800050C900B12E475F00112173680B153B616
:0D91B800FD900B11E0F5F5A20292AF7F01D2
:0191C5002287
:06994B00900C2A121B38EB
:10995100E4FF7E80FDFC900C2A121A97C31219B6FF
:109961005007E4900C2FF0804DE4FFFE7D01FC9048
:109971000C2A121A97C31219B65008900C2F7410A2
:10998100F080337F007E807D017C00900C2A121ACA
:1099910097C31219B65019900C2A121A7BEE448003
:1099A100FEEC900C2A121B38900C2F7420F08006CC
:1099B100900C2F7430F0900C2FE0FF900C2CE0FCF9
:1099C100A3E0FD7B017A0C792E900B0FE4F0A30448
:0499D100F002912DE2
:069DFB00900C78121B38E9
:109E0100E4FF7E80FDFC900C78121A97C31219B6FC
:109E11005007E4900C7CF0804DE4FFFE7D01FC9046
:109E21000C78121A97C31219B65008900C7C741052
:109E3100F080337F007E807D017C00900C78121AC7
:109E410097C31219B65019900C78121A7BEE448000
:109E5100FEEC900C78121B38900C7C7420F080067C
:109E6100900C7C7430F0900C7CE0FF900C7AE0FC5C
:069E7100A3E0FD12D5176D
:019E770022C8
:09E82C00E4F5A7F58F75B6102282
:0745AE00440ACC000186A0C5
:10D87D00E4900AD0F0900ACB04F0900AD7F0FF1292
:10D88D00DD91900AD1121BDF7F0212DD91900AD437
:03D89D00021BDF8C
:0AE7CE00900ACBEFF0900AD7F0227A
:0968B800900ACBE060030269D3F1
:1068C100900AD1121BBF12EC34900A41121B38906E
:1068D1000AD4121BBF12EC34900A45121B38E49003
:1068E1000A51F01272E9900A41121A97121142905C
:1068F1000A49121B381273D8900A45121A971211BD
:1069010042900A4D121B38900518121A87900A49B5
:10691100121A971213DD600A4008900518121A879F
:10692100801D900518121A8712144A900A49121AEA
:10693100971213DD5011900518121A8712144A90FC
:106941000A49121B388006900A517401F09005180B
:10695100121A87900A4D121A971213DD600A400825
:10696100900518121A87801D900518121A871214A3
:106971004A900A4D121A971213DD50119005181200
:106981001A8712144A900A4D121B388015900A5129
:10699100E0600F900ACB7401F0900AD7F0E4900AFE
:1069A100D0F0900A49121A7B900A41121A971211DB
:1069B10046900AD1121BBF12DDE8900A4D121A7BD4
:1069C100900A45121A97121146900AD4121BBF124F
:0269D100DDE8FF
:0169D30022A1
:06EB0E00900AD7E0FF228F
:06EB1400900AD0EFF02290
:06EB1A00900AD0E0FF228A
:0F45B50044084C000186A0410843004108500013
:10A7D500900E2FEFF0AFEFEF900848F0A3E4F09064
:10A7E50007E49330E4137F297E5C7D0F7C3F90075F
:10A7F50086121AA312123780087F007E007D347CF2
:10A8050043128BAFE490086EF0900E2FE0700E901F
:10A81500086FF090086DF090083EF0A3F0E4900802
:10A825006CF090086804F0A374F4F0A37401F0FBD5
:10A835007A0879407D0A12DE3FE4900851F0A3F0D2
:01A8450022F0
:10254200900849E0540F900894F090086FE0540FFF
:10255200900896F090086DE0540F900897F012EAF8
:102562009F900899121BDF90086AE070117B017A34
:102572000879407D0212DE3F90086A7401F07B0107
:102582007A08794012B85AEF6003022B1CE49008D3
:1025920095F090086AF07F0B12E0C0900870121B51
:1025A200387F0912E0C0900874121B387F0A12E0CB
:1025B200C0900878121B387F1012E0C090087C127D
:1025C2001B3812539D900898EFF090075D121A87FE
:1025D200900870121A971213DD4013900761121AB5
:1025E20087900870121A971213DD6012401090083B
:1025F20094E04401F0A37401F0A3E04422F09007B8
:102602006D121A87900874121A971213DD401390F4
:102612000771121A87900874121A971213DD60124A
:102622004010900894E04402F0A37401F0A3E04447
:1026320022F0900775121A87900878121A971213CF
:10264200DD4013900779121A87900878121A9712B0
:1026520013DD60124010900894E04404F0A374016A
:10266200F0A3E04422F0900868E07002A3E0600C5E
:1026720090086874FFF5F0121736803290076512E1
:102682001A87900870121A971213DD401390076987
:10269200121A87900870121A971213DD6010400EFA
:1026A200900894E04420F0900897E04422F09008CB
:1026B20057121A7B90087C121A971213DD60104091
:1026C2000E900894E04480F0900897E04488F090DF
:1026D2000853121A7B90087C121A971213DD600DB0
:1026E200400B9008957401F0A3E04488F090083EF6
:1026F200E07002A3E0600A90083E74FFF5F0021752
:102702003612EC64900884121B3812EC6890088828
:10271200121B38900898E0D39407500302282E7FAA
:102722000412E0C0900880121B3890085B121A97BE
:10273200900884121A7B121340900888121A97127A
:1027420013DD401C90085B121A7B900884121A97C2
:10275200121237900888121A971213DD602A402845
:1027620090084BE07015900843E07016900898E0CE
:10277200FFC3940B400CEF640D6007900896E04491
:1027820011F09008957401F090085F121A97900862
:1027920084121A7B121340900888121A971213DDC2
:1027A200402F90085F121A7B900884121A97121217
:1027B20037900888121A971213DD6002501390079F
:1027C20082121A87900880121A971213DD6038401D
:1027D20036900894E04410F090084BE07015900891
:1027E20043E07016900898E0FFC3940B400CEF642E
:1027F2000D6007900897E04411F0900843E06040B4
:10280200E4900850F08039900843E060339008501B
:10281200E004F0C394324028E4900843F09008505A
:10282200F090083E04F0A374F4F08014900894E051
:102832004410F090084BE06007900897E04411F0D4
:10284200900898E0FFC3940750030228D7EF640D65
:0528520070030228D70D
:102857007F0312E0C090089C121B38E4FFFE7DA0A6
:102867007C40900870121A9712114690089C121A11
:10287700971213DD4014E4FFFE7D9E7C4290089C76
:10288700121A971213DD60094007900897E0445524
:10289700F0900870121A7B90089C121A971213DD99
:1028A7004014E4FFFE7DA07C4290089C121A971208
:1028B70013DD60174015900852E004F0E0C394035D
:1028C700400E900896E04455F08005E4900852F0D9
:1028D700900898E0FFD394075003022A98EF640CFE
:1028E7007003022A987F0E12E0C0C004C005C0061C
:1028F700C00712EA52A804A905AA06AB07D007D059
:1029070006D005D00412114212E70D90077E121A65
:10291700A31213DD5031900894E04440F090084B27
:10292700E07015900843E07016900898E0FFC39494
:102937000B400CEF640D6007900897E04444F0905B
:1029470008637401F08015900863E0600F90083EFB
:102957007401F0A374F4F0E4900863F07F0112DDD2
:102967009112EC38C004C005C006C0077F0112DD14
:102977009112EC34D003D002D001D000121146A836
:1029870004A905AA06AB07900874121A7B12114214
:1029970090088C121B387F0212DD9112EC38C004AC
:1029A700C005C006C0077F0212DD9112EC34D003C8
:1029B700D002D001D000121146A804A905AA06AB7F
:1029C70007900878121A7B121142900890121B3850
:1029D70090088C121A7B12E70DE4FBFA7980783F96
:1029E7001213DD406A900890121A7B12E70DE4FB80
:1029F700FA7980783F1213DD4055900890121A97A4
:102A070090088C121A7B12114212E70D7BCD7ACCFB
:102A170079CC783E1213DD4036E4FFFE7D807C40A2
:102A2700900870121A97121146900874121A97128A
:102A370013DD401BE4FFFE7D807C40900870121A76
:102A470097121146900878121A971213DD503B908F
:102A57000851E004F0E0C39403404A900894E0442E
:102A670008F0A37401F090084BE07014900843E05D
:102A77007033900898E0FF940B402AEF640D6025AF
:102A8700900896E04444F0A38017E4900851F08042
:102A970014900894E04440F090084BE060079008D9
:102AA70097E04444F0900848E0FEA3E0540FFF90FD
:102AB7000894E0FDEF4DFF900848EEF0A3EFF0908B
:102AC700086BE06004E4F08010900896E090086FCF
:102AD700F0900897E090086DF0900895E0602A90D4
:102AE700086EE02410F090077DE493C454F0FF9043
:102AF700086EE0FE54F0B5071CEE540FF090084A3C
:102B0700E0701290086C04F02290086EE0540FF009
:052B1700E490086CF0E1
:012B1C002296
:04EC4800E4FEFF22C5
:0EE5A70012EC48AD07900849E054F0F0AF05C3
:01E5B5002243
:10E40800EF700590084AF022E490086CF090084AF2
:03E4180004F022EB
:06EB200090084AE0FF220C
:06EB260090086DE0FF22E3
:10E2EC00EF540FFF90086DE0FE6FFFEE5FF09008AB
:05E2FC006B7401F0222B
:06EB2C0090086FE0FF22DB
:10E30100EF540FFF90086FE0FE6FFFEE5FF0900893
:05E311006B7401F02215
:05BC6200900C7DEFF0E5
:10BC6700AE04AF05E41214607B6F7A127983783AD9
:10BC770012123712DF19900C7E121B38A2AFE43371
:10BC8700FBC2AFC2AF900C7E121A7B900C7DE025F1
:10BC9700E025E0245BF582E43408F583121B38AF16
:06BCA70003EF24FF92AF41
:01BCAD002274
:10D0CC00EF25E025E0245BF582E43408F583121AA1
:10D0DC007B12E66A7B6F7A127903783A121146E476
:0DD0EC00FBFA797A78441212371214992257
:10D8A000D3ED9464EC94004004E4FE8013EF25E093
:10D8B0002464F582E43408F583ECF0A3EDF07E01F6
:02D8C000AF06B1
:01D8C2002243
:10E45400EF25E02464F582E43408F583E0FEA3E0CC
:02E46400FF2295
:108BAF00900D14121B38900D14121A7B900844125A
:108BBF001B38900D14121A97900786121A871211EC
:108BCF0042C004C005C006C007900864E0FCA3E0E3
:108BDF00FDE4121460D003D002D001D0001212377E
:108BEF007B0A7AD77923783C121237900D14121A18
:108BFF0097121146900853121B38900D14121A97A2
:108C0F00900786121A87121142C004C005C006C011
:108C1F0007900866E0FCA3E0FDE4121460D003D0D7
:108C2F0002D001D0001212377B0A7AD77923783C11
:108C3F00121237900D14121A9712114690085702FC
:028C4F001B38D0
:07E9E200900844121A7B2289
:109A5F007F1012E0C0900844121A97121142E4FBD3
:109A6F00FA79C87842121237C004C005C006C00781
:109A7F00900844121A97900786121A87121142A85B
:109A8F0004A905AA06AB07D007D006D005D004124B
:109A9F001340900D18121B38E4FFFEFDFC900D18BB
:109AAF00121A971213DD500C900D18121B44000060
:109ABF000000801EE4FFFE7DC87C42900D18121A34
:109ACF00971213DD600C400A900D18121B4442C808
:089ADF000000900D18121A7B23
:019AE700225C
:06EB320090084BEFF022F9
:0DE6BF0090084BE060047F0180027F002284
:06EB380090086CE0FF22D2
:0BE74A0090086FEFF090086DEDF022DA
:10E1A20090086FE01216F090086DE0FF900C3312A9
:06E1B2001BBFEF0216F096
:09E8350090083EE4F0A3EFF0228C
:0BE75500900843EFF0E4900850F02221
:06EB3E00900843E0FF22F5
:06EB4400900863E0FF22CF
:10DFE60012E96EEF700912E73E12EB2002E55812B5
:09DFF600EC4C12E40812E73E2293
:0FE5B60012E96EEF700302E73EE4FF12E6D9228E
:0FE5C50012E96EEF700302E73EE4FF12E6D9227F
:0FE5D40012E96EEF700302E73EE4FF12E6D92270
:10C9CA00EC8DF01217FD900BDFE014F0900BDFE016
:10C9DA00FF14F0EF601B900BDEE0FF7E002DFAEEF5
:10C9EA003C8D828C83F0A3CAF0EF2DFDEE3CFC80D7
:0AC9FA00DB8D828C83E4F0A3F022B1
:10DA5D0012176245F07003FEFF22121762AEF0FD41
:10DA6D00F5828E83E0FFA3E0CF8FF01217FDAF0597
:01DA7D002286
:10E1B800121762FF8D828C83E5F0F0A3EFF0AF05B4
:06E1C800EC8FF00217FDD0
:0745C400440D1C000186A05C
:10654600FFCF57FFD3AAFFD3D3FFD3FCFFC5BBFFB3
:10655600D425FFD679FFD69FFFC2A4FFE760FFE7E9
:106566006BFFC8DEFFE9E9FF94BCFFDE05FFE776B7
:10657600FF9F72FFE9E9FFE9E9FFDFFFFF4B31FF0C
:10658600E781FFE9E9FFE9E9FFE9E9FFE9E9FFE971
:10659600E9FFE9E9FFE9E9FFE9E9FFE9E9FFE9E9F7
:1065A600FFBCAEFFBCFAFFC1D7FFB0D3FFE9F0FFD7
:1065B600E9F7FFDA7EFFDA9EFFD152FFD17EFFD1E7
:1065C600AAFFE9E9FFE9E9FFE9E9FFE9E9FFE9E906
:1065D600FF7105FF9AE8FF6AECFFA24DFFBA92FF32
:1065E6007FA6FF81F5FFE9E9FFE9E9FFE9E9FFE9B0
:1065F600E9FFE9E9FFE9E9FFE9E9FFE9E9FFE9E997
:10660600FF9FEDFF8866FFE1CEFFE316FFE9E9FF96
:10661600E9E9FFE9E9FFE9E9FFE9E9FFE9E9FFE976
:10662600E9FFE9E9FFE9E9FFE9E9FFE9E9FFE6CC86
:10663600FFE0D7FF0CE6FFE71AFFC21DFFE5E3FF09
:10664600BE74FFE9FEFFBD46FFB1E7FFEA05FFEABC
:106656000CFFEA13FFEA1AFFE9E9FFE9E9FFCB2499
:09666600FFC82CFFE850FFB353FC
:1045CB004404A0000186A04104C80041048F0041AF
:1045DB000488004104C900420482000041048E009B
:0845EB004104AA004104D800BC
:06EB4A00E49004C8F02273
:10DE92009004AF121A7B9004C4121B387E007F03D9
:0BDEA2007D007B017A04797F021E3BAB
:10E548009004D5E04410F07B017A0479B402D7A591
:100AC100900D20121BDF900D23EDF0900D20121BD5
:100AD100BF12176254F0FFE4C4F854F0C8EFC454D5
:100AE1000F48FF12DD1A900D20121BBF121762E58D
:100AF100F05410C4540FFF12EB50900D20121BBF85
:100B010090000212178DFDACF0E4FF12BC62900D53
:100B110020121BBF90000412178DFDACF07F011253
:100B2100BC62900D20121BBF90000612178DFF9022
:100B3100047BE5F0F0A3EFF090000812178DFF9011
:100B410004A6E5F0F0A3EFF090000A12178DFF90D4
:100B510004ADE5F0F0A3EFF090001212178DFF90B5
:100B610004CEE5F0F0A3EFF090001612178DFDAC66
:100B7100F0E41214607B007A40791C78461213402D
:100B8100C004C005C006C007900D20121BBF900015
:100B91001412178DFDACF0E4121460D003D002D012
:100BA10001D000121146900477121B38900D2012CB
:100BB1001BBF90000C12178DFF9004ABE5F0F0A362
:100BC100EFF090000E12178DFDACF0EC1214607B6B
:100BD1006F7A127983783A12123712DF1912EB62A7
:100BE100900D23E06012900D20121BBF9000241283
:100BF100178DFFAEF012B3AB900D20121BBF90000A
:100C01001012178D7E0054047802CEC313CE13D870
:100C1100F94E70047F0180027F0012E408900D20DC
:100C2100121BBF90001012178D5402FFE4C313EF83
:100C310013FF12EB3290045F121A87900BA2121B62
:100C410038900477121A7B12AE89EFF4704912EAD8
:100C5100281219ED900477121B38900477121A7B31
:100C61001214999004D6EEF0A3EFF0FDAC06E41255
:100C71001460A804A905AA06AB07900477121A7B91
:100C81001211427B007A40791C78461212371214F5
:100C91009990047DEE8022900D20121BBF900014CC
:100CA10012178DFF9004D6E5F0F0A3EFF090001637
:100CB10012178DFF90047DE5F0F0A3EFF0900D2069
:100CC100121BBF90002012178DFDACF0E4FF12D86B
:100CD100A0900D20121BBF90002212178DFDACF0C9
:050CE1007F0102D8A014
:10495000900D24121B38900D24121A7BE4FFFEE404
:10496000FCFBFA7901F81218EF9004B3EFF0900D08
:1049700024121A7BE4FFFEFDEC5401FCE4FBFAF97F
:1049800078011218EF900489EFF0900D24121A7B31
:10499000E4FC9004AF121B38900D24121A7B900493
:1049A000A4EEF0A3EFF0E4900488F07B017A0D7997
:1049B0002412D25AE4FCFDFEC004C005C006C007A4
:1049C000900D24121A7BE4FFFEFDEC54F0FCE4FB96
:1049D000FAF978101218EFA804A905AA06AB07D0B7
:1049E00007D006D005D004C31219B660209004AFDA
:1049F000121A7BEC4408FC9004AF121B389004D5CB
:104A0000E04440F09004887408F07F0122900D2467
:104A1000121A7BE4FFFEFDEC5408FCE4FBFAF97883
:104A2000081218EFEC4D4E4F600F9004C4121A7B21
:104A30009004AF121B38024B119004B3E0FFD394E3
:104A400062501375F003EF906546121BB3121BE81A
:104A5000121D4C024B119004B3E0B4860612B24210
:104A6000024B119004B3E0B4880612AEEE024B1173
:104A70009004B3E0B4890612E5F2024B119004B33E
:104A8000E0B4900612AADF024B119004B3E0B49197
:104A90000512C5FB807B9004B3E0B4920512B666A4
:104AA000806F9004B3E0B49305129E788063900405
:104AB000B3E0B4940512C63B80579004B3E0B4232E
:104AC0000512E687804B9004B3E0B4F00512C36D85
:104AD000803F9004B3E0B4F10512E78C803390047A
:104AE000B3E0B4F205128A6780279004B3E0B4F310
:104AF00005126F15801B9004B3E0B4FB0512C7B21A
:104B0000800F9004B3E0B4FF0512C919800312E9C5
:104B1000E99004AF121A7B9004C4121B38900488E9
:104B2000E090048FF060079004D5E04480F07F01AE
:014B30002262
:1091C600900488E060239004AF121A7BE4FFFEEC63
:1091D60054FCFC9004AF121B389004AF121A7BECBF
:1091E6004401FC9004AF121B389004AF121A7BECBA
:1091F600540FFC9004AF121B389004AF121A7BEC8C
:109206004404FC9004AF121B389004AF121A97C0A6
:1092160000C001C002C0037B017A0479AF12D25AA2
:10922600E4FCFDFEFBFAF97810121864E4FFFEFD7B
:10923600EC54F0FCD003D002D001D00012198E906D
:1092460004AF121B389004AF121A7B9004C4121B91
:08925600389004AF121A7B22CC
:10474E0012EB2C900C82E4F0A3EFF012EB26900CFF
:10475E0084E4F0A3EFF012539D900C86EFF012EC70
:10476E0004EF7023900C86E0D39407403E12EC0ABF
:10477E00EF70389004D0E0A320E03012EB3EEF70E3
:10478E002A12EB44EF70249004C8E054FAF0900C17
:10479E0086E0C3940B40149004C8E054F7F012EB7B
:1047AE001AEF70079004C8E054EFF0900C82A3E06B
:1047BE00FD54F0FFE4C4F854F0C8EFC4540F48544D
:1047CE000FFEED540FFDEDFF900C82EEF0FCA3EF0B
:1047DE00F0A3A3E0FB54F0FFE4C4F854F0C8EFC418
:1047EE00540F48540FFEEB540FFBEBFF900C84EE6E
:1047FE00F0A3EFF090047CE0540FFFED540FFDEDAD
:10480E005F702B90047BE0FCA3E0FDEC540FFF9057
:10481E000C85E0540FFBEF5B70149004D4E0541041
:10482E00FEA3E054F0FFEC5EFEED5F4E600E9004D2
:10483E00D4E04480F0A3E0F0C2A180099004D4E05B
:10484E00547FF0D2A19004A6E0FEA3E0FF540FFD2A
:10485E00900C83E0540FFBEB5D701EEE540FFF9037
:10486E000C85E0540FFDEF5D700F9004D5E05420E1
:10487E00FF9004A6A3E05F602E9004D4E04420F0E5
:10488E00A3E0F012EB38EF602A12E7C39004C9746C
:10489E0001F0FF12D32C7F0112E3E19004D4E04427
:1048AE0010F0A3E0F0800C9004D4E054DFF0E4901C
:1048BE0004C9F0900966E06027309124C2AFC2AF00
:1048CE007B017A04797F12B85AEF7010FF12D32C45
:1048DE00E4900966F09004D4E054EFF0D2AFD2AF7A
:1048EE00900C82E0540FFF9004ADE0FCA3E0540F57
:1048FE00FBEF5B700FEC540FFD900C84E0540FFF38
:10490E00EF5D600C9004D4E04440F0A3E0F080072B
:10491E009004D4E054BFF09004D4E0FAA3E0FB90EE
:10492E000C82E04AFFA3E04B9004D2CFF0A3EFF04D
:10493E00900C84E04AFFA3E04B9004D0CFF0A3EF9D
:01494E00F078
:01494F002245
:09E83E009004D0E0FEA3E0FF22EB
:09E847009004D2E0FEA3E0FF22E0
:10D25A00900001121690FF121677540F6FFF90007C
:10D26A00021216906FFF9000031216906FFF54F08F
:09D27A00C4540FFEEF540F6EFFC7
:01D283002288
:10A92700900AE8EDF0900489E0705D900AE9121A48
:10A937007B121A3D900AED121A7B900004121A57E7
:10A94700900008121B8F00000000900AE8E025E045
:10A95700540E444190000C75F00012181C9004B37B
:10A96700E0FFE4FCFDFEFBFA7901F8121864E4FB52
:10A97700FAEDF97402F8900AED121A7BE4FDFC1265
:0FA98700198E9004AF021B389004887402F022DE
:10D7A500900004121B8F00000000121B7500000082
:10D7B50000900008121B8F0000000090000CE4F59B
:04D7C500F002181C3A
:06777B00900C36121BDF2A
:10778100900C36121BBF90000C12178DFFE5F054C0
:1077910001FEEF54807807CEC313CE13D8F9900CB5
:1077A10039F01219EDA907AA06AB05121762FF906D
:1077B1000C3AE5F0F0A3EFF0900C36121BBFC003BA
:1077C100C002C001121AB3900C39E0FFE4FCFDFEC7
:1077D100121849D001D002D003121A3D900C361272
:1077E1001BBFE92408F9E43AFAC003C002C0011240
:1077F1001AB3900C39E0FFE4FCFDFE121849D001E8
:10780100D002D003121A3D900C36121BBF90000417
:10781100121A0D900008121AD3D31219B6400A9009
:107821000C3AE0F8E4F0E8A3F0900C36121BBF909C
:107831000004121A0D900008121AD3C31219B6408F
:1078410009900C36121BBF12D7A5900C3AE0FEA38B
:02785100E0FF56
:017853002212
:08B5BA009004ABE0FEA3E0FFEA
:10B5C200900E07EEF0A3EFF09004CEE0FCA3E0FDB6
:10B5D200EC1214607B007A40791C7846121340C04A
:10B5E20004C005C006C007900E08E024FFFD900EBF
:10B5F20007E034FFFCE4121460D003D002D001D083
:0EB6020000121237900477121A971211462286
:10C4F900900E09EEF0A3EFF0900489E0702C9004FF
:10C50900B3E0FFE4FCFDFEFBFA7901F8121864E4DC
:10C51900FBFAEDF9E4F8900E09E0FEA3E0FFE4FC74
:10C52900FD12198E9004AF021B389004887402F032
:01C5390022DF
:105DD400900DD2121BDF12EB56EF7F00C45410FE5D
:105DE400C007C00612EC22EF75F010A454F0FDD0E9
:105DF400E0FED0E04D4404FF900DD2121BBFEE8FA5
:105E0400F01217FDE4FF12D0CC900DD2121BBF90FC
:105E14000002EE8FF012181C7F0112D0CC900DD22C
:105E2400121BBF900004EE8FF012181C90047BE04C
:105E3400FFA3E0900006CF8FF012181C9004A6E098
:105E4400FFA3E0900008CF8FF012181C9004ADE07F
:105E5400FFA3E090000ACF8FF012181C9004ABE06F
:105E6400FFA3E090000CCF8FF012181C12EC641208
:105E7400C737900DD2121BBF90000EEE8FF0121890
:105E84001C12EB20EF70047F0180027F00EF75F09D
:105E940004A47E005404FFC007C00612E6BFEF75D9
:105EA400F002A45402FDD0E0FED0E04DFF900DD2EC
:105EB400121BBF900010EE8FF012181C9004CEE05D
:105EC400FFA3E0900012CF8FF012181C9004D6E0CC
:105ED400FFA3E0900014CF8FF012181C90047DE013
:105EE400FFA3E0900016CF8FF012181CE4FF12E419
:105EF40054900DD2121BBF900020EE8FF012181C8C
:105F04007F0112E454900DD2121BBF900022EE8F39
:105F1400F012181C12EC60900DD2121BBF900024DA
:065F2400EE8FF002181CD4
:07E9E9009004887401F02284
:10CF57009004C8E0FE90048FE0540FFDEDFFE4FC61
:10CF6700FD9004AF121B38900BEEE0B40111900452
:10CF7700AF121A7BEF4410FFEC9004AF121B38225C
:10D3AA007BFF7A0779E5AF01AE027DFF7C00900A28
:10D3BA00E9121B38900AED121B44000000087B0199
:09D3CA007A047990E4FD02A92720
:10D3D3007BFF7A0779EDAF01AE027DFF7C00900AF7
:10D3E300E9121B38900AED121B44000000067B0172
:09D3F3007A047990E4FD02A927F7
:10D3FC007BFF7A0779F3AF01AE027DFF7C00900AC8
:10D40C00E9121B38900AED121B44000000107B013E
:09D41C007A047990E4FD02A927CD
:10C5BB007BFF7A08790312E340EE3395E0FDFC90A4
:10C5CB000D28121B387BFF7A087903AF01AE027D71
:10C5DB00FF7C00900AE9121B38900D28121A7B90F1
:10C5EB000AED121B387B017A047990E4FD02A9272E
:10D425007BFF7A087912AF01AE027DFF7C00900A7E
:10D43500E9121B38900AED121B440000000C7B0119
:09D445007A047990E4FD02A927A4
:10D67900121078AF01AE02AD037C00900AE9121BCB
:10D68900387B017A047990900AED121B440000005E
:06D699002AE4FD02A927AE
:10D69F0012107FAF01AE02AD037C00900AE9121B9E
:10D6AF00387B017A047990900AED121B4400000038
:06D6BF002AE4FD02A92788
:10C2A400900489E0700B9004AF121B440008000056
:10C2B4002212EC04EF60259004A4E05480A3C4137C
:08C2C400131354016401701A08
:10C2CC00A2AF9203C2A5C2AFC2AF12BBCAA2039265
:03C2DC00AFD2A539
:08C2DF00229004887409F0228A
:0BE7600090049CE0FEA3E0FF02C4F95F
:0BE76B00900492E0FEA3E0FF02C4F95E
:10C8DE00900489E0702E900494121A7B90049812A2
:10C8EE001A97C31219B650157B017A0479901277F4
:10C8FE007BE4FC740BFDE49004AF021B38900488BB
:0BC90E007406F0229004887402F022EE
:1094BC00900489E0703A12EC22EF75F010A47E0053
:1094CC0054F0FFE4FC740DFDE4C004C005C006C0FC
:1094DC000712EB56EF7F00C45410FEE4FCFDD003E2
:1094EC00D002D001D00012198EEF4404FFEC804959
:1094FC009004A5E054F0FFE4C4F854F0C8EFC45451
:0D950C000F48FF900DD5F012DD1AEF603210
:109519009004A4E0FCA3E054F04404FF900DD6ECC1
:10952900F0A3EFF0EC5410C4540FFF12EB50900D60
:10953900D6E0FEA3E0FFE4FC740DFDE49004AF0265
:029549001B38CD
:06954B009004887403F097
:0195510022F7
:10DE05009004B4121A7B78101219C7EF543FFF74AF
:0DDE150057FE9004C0EEF0A3EFF002C4F938
:0BE776009004B6E0FEA3E0FF02C4F92F
:109F72009004887406F0A3E070709004B8121A7B03
:0C9F82009004B4121A97C31219B6505E76
:109F8E009004B4121B03129DFB900E0BEFF0900485
:109F9E00B4121B03129DFB900E0CEFF07F007EFCA3
:109FAE007DFF7CFF9004B4121A97C31219B64009B4
:109FBE007B017A0479B412D7A5900E0CE0FFE4FC75
:109FCE00FE7410FDA804A905AA06AB07900E0BE0BF
:0E9FDE007F00FEE4FD12198E9004AF121B38B6
:019FEC002252
:10DFFF00900489E0700C9004C4121A7B9004AF0255
:09E00F001B389004887402F02211
:104B3100E4900C87F0900489E0700B9004AF121B95
:104B41004400140100229004A5E0FF9004C8E06035
:104B5100079004887404F022EFF4045FB50703EFB3
:054B61007003024CEF9F
:104B66009004A4E054F0C4540F900C88F012E9A30A
:104B7600900C89121BDF9004A5E020E003024C553F
:104B860012EC22900C89121BBF900037EF1217020D
:104B96009004D4E0FFA3E0900038CF8FF012181CE9
:104BA6009004D0E0FFA3E090003ACF8FF012181CDB
:104BB6009004D2E0FFA3E090003CCF8FF012181CC7
:104BC6009004ABE0FFA3E0900024CF8FF012181CF6
:104BD60012EC6412C737900C89121BBF900026EEA8
:104BE6008FF012181C900C88E024FD602B14605086
:104BF6002403705412EC04EF7017900C89121BBF3B
:104C0600900005E41217027F0112E65B7F0102EBBA
:104C1600C89004887409F022900C89121BBF90007A
:104C26000574011217027F0112E65B7F0112EBC8C1
:104C3600E4FDFF12D22EE4FF12D9B3E4FF02EC9496
:104C46009004A9E054FEF0229004887403F02290A8
:104C560004A4E0FCA3E0FD5402FFE4C313FEEF133B
:104C66004E6003024CF57E00ED54047802CEC31369
:104C7600CE13D8F94E600280709004A4E0FAA3E047
:104C8600FB7E0054087803CEC313CE13D8F94E60CA
:104C96002E9004B4121B44000000009004B8121BAE
:104CA60044FFFFFC009004BC121B4400000000906F
:104CB60004AF121A7BEC4402FC9004AF021B38EBE3
:104CC6005410FFE4C4F854F0C868FEEFC4540F480B
:104CD6004E600280147E009004A5E054207805CE34
:0F4CE600C313CE13D8F94E60069004887405F0FE
:014CF500229C
:0BE781009004A8E0FEA3E0FF02C4F932
:10BCAE00900489E070149004D2E0FEA3E0FFE4FC5F
:10BCBE007420FDE49004AF021B389004A4E4F090CD
:10BCCE0004D4E0FEA3E0FF9004A4E0FCA3E0FDEEAC
:10BCDE006CFCEF6DFDEE5CFEEF5DFF9004D4EEF0BC
:0CBCEE00A3EFF09004A5E0FF12E3012298
:10BCFA00900489E070149004D0E0FEA3E0FFE4FC15
:10BD0A007421FDE49004AF021B389004A4E4F0907F
:10BD1A0004D4E0FEA3E0FF9004A4E0FCA3E0FDEE5F
:10BD2A006CFCEF6DFDEE5CFEEF5DFF9004D4EEF06F
:0CBD3A00A3EFF09004A5E0FF12E2EC2261
:10C1D700900489E07010FF12D0CCE4FC7422FDE4D7
:10C1E7009004AF021B387F0112D0CC9004A4E0FC6E
:10C1F700A3E0FD4C6019D3ED94E8EC94035010C311
:10C20700ED9FEC9E40099004A4A3E4FF02BC62905A
:05C2170004887403F02F
:01C21C0022FF
:10B0D300900489E070117F0112D0CCE4FC7423FD4D
:10B0E300E49004AF021B38E4FF12D0CC9004A4E038
:10B0F300FCA3E0FD4C6018D3ED94E8EC9403500FEF
:10B103009004A4A3E09FEC9E50057F0102BC6290D3
:10B1130004887403F07423FFFEFD7C009004AF12D7
:0BB123001A97C31219B6700312E862FD
:01B12E0022FE
:07E9F0007F647E0002C4F900
:07E9F7007F197E0002C4F944
:10DA7E00E4FFFE7D487CC2900761121AA312114684
:10DA8E00E4FBFA79C8784212123712149902C4F9DB
:10DA9E00E4FFFE7D487CC2900769121AA31211465C
:10DAAE00E4FBFA79C8784212123712149902C4F9BB
:10D15200900489E0B401119004A4E0541FFFA3E0FD
:10D1620090047BCFF0A3EFF090047BE0FEA3E0FFFE
:0CD17200E4FC7428FDE49004AF021B38BC
:10D17E00900489E0B401119004A4E0540FFFA3E0E1
:10D18E00542FA3CFF0A3EFF09004A6E0FEA3E0FF90
:0CD19E00E4FC7429FDE49004AF021B388F
:10D1AA00900489E0B401139004A4E0540FFFA3E0B3
:10D1BA00540F9004ADCFF0A3EFF09004ADE0FEA3BE
:0CD1CA00E0FFE4FC742AFDE4A3021B3823
:10710500900489E0600302719A12EC04EF70721228
:10711500DF34900477121A971213DD6011400FE4E3
:107125009004ABF0A3F09004887405F0805312DF4F
:1071350034900477121A97121142C004C005C00694
:10714500C0079004CEE0FCA3E0FDEC121460A80497
:10715500A905AA06AB077F007E407D1C7C4612135D
:1071650040D003D002D001D000121237E4FBFA79E7
:10717500C0783F1211461214999004ABEEF0A3EFBC
:10718500F09004ABE0FEA3E0FFE4FC7430FDE49076
:0571950004AF021B38ED
:10719A009004A4E0FEA3E0FF4E7002804B9004AB83
:1071AA00E06E7003A3E06F60459004A412B5BD9031
:1071BA000D2C121B38900D2C121A7B12859AEF7027
:1071CA00279004A4E0FFA3E09004ABCFF0A3EFF074
:1071DA0012EC04EF70189004C8E04409F09004AF70
:0E71EA00121B4403300100229004887403F04D
:0171F8002274
:109AE80012EC68900BE3121B38900489E0701A128C
:109AF800EC6412C737900BE1EEF0A3EFF0E4FC74CE
:109B080031FDE49004AF021B3812539D900BE0EF37
:109B1800F012EC6412C737900BE1EEF0A3EFF0906F
:109B280004A4E0FCA3E0FDE41214607B6F7A1279D0
:109B380083783A12123712DF1912B18BBFFF0790E0
:109B480004887403F02212EC04EF70179004C8E044
:109B58004405F09004AF121A7BEC4403FC9004AF68
:089B6800121B387F0112E755C2
:019B700022D2
:106AEC00E4900C8CF0A3F09004A5E05401900C8E73
:106AFC00F09004A4A3E0FD5402FFE4C313EF139041
:106B0C000C8FF07E00ED54087803CEC313CE13D84F
:106B1C00F9900C90F012EC04EF7005900C8D04F0D1
:106B2C00900489E0702212EC04EF70047F01800263
:106B3C007F00EF75F008A47E005408FFE4FC74326B
:106B4C00FDE49004AF021B38900C8EE06003026BE6
:106B5C00DA900C8DE07046900C90E06040900C8FB9
:106B6C00E0704C900BEEE064016002804212B5BA0A
:106B7C0012859AEF702530917AFF12D32CE4FF1214
:106B8C00E3E19004D4E054EFF09004C8E04409F041
:106B9C009004AF121B4403320108228012900C8D1A
:106BAC00E06013900C90E0600D900C8FE06007900B
:106BBC0004887408F022900C8DE0600C900C90E02E
:106BCC006006900C8FE0602B900C8FE060077D01CD
:106BDC007F0302E3A5900C8DE060187F0112D32C8B
:106BEC007F0112E3E19004C8E054E6F09004D4E095
:036BFC0054EFF063
:016BFF002273
:10D2840012B5BA12859AEF702030911DFF12D32C7B
:10D29400E4FF12E3E19004D4E054EFF012EC0AEF5F
:0AD2A40060079004C8E04401F02286
:10D58F009004D4E04EFEA3E04FFF9004D4EEF0A33E
:10D59F00EFF09004D2E04EF0A3E04FF09004D0E013
:07D5AF004EF0A3E04FF02253
:0DE6790012C67BEF60077F307E0012D58F48
:01E686002271
:10A24D00900489E06401702CFE9004A5E05404781C
:10A25D0002CEC313CE13D8F94E70047F0180027F56
:10A26D000012E4089004A5E05402FFE4C313EF13B9
:10A27D00FF12EB3212EB20EF70047F0180027F00A2
:10A28D00EF75F004A47E005404FFE4FC7433FDE488
:10A29D00C004C005C006C00712E6BFEF75F002A4EA
:10A2AD007E005402FFE4FCFDD003D002D001D000AB
:09A2BD0012198E9004AF021B3847
:10CC9F009007FDE493FF900800E493FE9007E4E40F
:10CCAF0093FD30E2037F0022ED20E312EF64466034
:10CCBF000DEFB4300CEE64486004EEB44E037F0108
:03CCCF00227F00C1
:01CCD200223F
:06870300900AA1121B38D0
:1087090090044B121A87900AA9121B3890045F1221
:108719001A87900AA1121A97121142900AA9121ADD
:1087290097121340900AA5121B38E4FFFEFDFC9036
:108739000AA5121A971213DD5016900AA5121A7B70
:10874900E4FBFA798078BF121237900AA5121B3818
:10875900900AA5121A7B121499900AADEEF0A3EFB4
:10876900F0900AA5121A7BC004C005C006C0079084
:108779000AADE0FCA3E0FDE4121460A804A905AA6F
:1087890006AB07D007D006D005D004121142900AD3
:10879900A5121B387F177EB77DD17C38900AA512A8
:0C87A9001A971213DD50037F01227F009D
:0187B50022A1
:10BA9200900489E070149004CEE0FEA3E0FFE4FC81
:10BAA2007434FDE49004AF021B3812CC9FEF6007A0
:10BAB2009004887402F02212EC04EF601B9004A43C
:10BAC200E0FEA3E0FF4E60099004CEEEF0A3EFF09B
:0FBAD200229004887403F0229004887409F022F3
:107FA600900489E070149004D6E0FEA3E0FFE4FCA0
:107FB6007435FDE49004AF02806312CC9FEF604FEE
:107FC60090047DE0FCA3E0FDE41214607B007A409F
:107FD600791C7846121340C004C005C006C007903D
:107FE60004A4E0FCA3E0FDE4121460D003D002D0A8
:107FF60001D000121146900D30121B38900D301230
:0F8006001A7B128703EF70079004887403F0222F
:1080150012EC04EF604B9004A4E0FFA3E09004D6BB
:10802500CFF0A3EFF090047DE0FCA3E0FDE4121493
:10803500607B007A40791C7846121340C004C00565
:10804500C006C0079004D6E0FCA3E0FDE41214606E
:10805500D003D002D001D000121146900477021B44
:08806500389004887409F02230
:1081F500900489E0701490047DE0FEA3E0FFE4FCA8
:108205007436FDE49004AF0282AB12CC9FEF604F51
:108215009004A4E0FCA3E0FDE41214607B007A4026
:10822500791C7846121340C004C005C006C00790EB
:1082350004D6E0FCA3E0FDE4121460D003D002D024
:1082450001D000121146900D34121B38900D3412D6
:0F8255001A7B128703EF70079004887403F022DE
:1082640012EC04EF60449004A4E0FCA3E0FD90044D
:108274007DECF0A3EDF0E41214607B007A40791CED
:108284007846121340C004C005C006C0079004D647
:10829400E0FCA3E0FDE4121460D003D002D001D0CE
:1082A40000121146900477021B389004887409F078
:0182B40022A7
:109FED0012B5BA900D38121B38900D38121A97C051
:109FFD0000C001C002C00312EC60AC06AD07EC124C
:10A00D0014607B007A2479747849121340D003D000
:10A01D0002D001D000121146900D38121B38900D50
:10A02D0038121A7B7B177AB779517838121146900E
:10A03D000D38121B38E4FFFEFDFC900D38121A97F7
:10A04D001213DD500A900D38121B440000000090D1
:0BA05D000D38121A7B12149902C4F98E
:1088660012B5BA900D3C121B38900D3C121A97C0E7
:1088760000C001C002C00312EC60AC06AD07EC12EA
:1088860014607B007A2479747849121340D003D09F
:1088960002D001D000121146900D3C121B38900DEB
:1088A6003C121A7B7B177AB77951783812114690A9
:1088B6000D3C121B38E4FFFEFDFC900D3C121A978E
:1088C6001213DD900D3C5009121B4400000000807D
:1088D60030121A7B121499AD07AC06E4121460A884
:1088E60004A905AA06AB07900D3C121A7B12114289
:1088F6007B007A40791C7846121237900D3C121B89
:0D89060038900D3C121A7B12149902C4F92E
:10E1CE0012EC04EF60077FA87EE412C4F912EC682B
:06E1DE0012C73702C4F96C
:10E316007F0212E0C0E4FBFA79C878421212371283
:05E32600149902C4F986
:0DE6CC00900520E493FE740193FF02C4F951
:10E0D70012EA361219ED7B0A7AD779A3783B121127
:07E0E7004612C73702C4F91D
:100CE60012EA36900004121A0D7B0A7AD779A37895
:0A0CF6003B12114612C73702C4F981
:0CE71A0012EA281219ED12149902C4F939
:10C21D0012EA281219ED121499AD07AC06EC12149E
:10C22D0060C004C005C006C00712EA281219EDD07F
:10C23D0003D002D001D0001211427B007A40791C4C
:10C24D007846121237E4FBFAF9783F1211461214B0
:04C25D009902C4F985
:0FE5E30012EA28900004121A0D12149902C4F9BA
:10BE740012EA28900004121A0D121499AD07AC06A8
:10BE8400EC121460C004C005C006C00712EA289072
:10BE94000004121A0DD003D002D001D000121142B6
:10BEA4007B007A40791C7846121237E4FBFAF97861
:0ABEB4003F12114612149902C4F95E
:07E9FE007F017E0002C4F955
:10BD460012B9F2900469EEF0A3EFF07F1012E0C092
:10BD5600E4FBFA7920784112123712149990046B99
